{
  "_format": "hh-sol-artifact-1",
  "contractName": "CaskVault",
  "sourceName": "contracts/vault/CaskVault.sol",
  "abi": [
    {
      "inputs": [],
      "stateMutability": "nonpayable",
      "type": "constructor"
    },
    {
      "anonymous": false,
      "inputs": [
        {
          "indexed": true,
          "internalType": "address",
          "name": "protocol",
          "type": "address"
        }
      ],
      "name": "AddProtocol",
      "type": "event"
    },
    {
      "anonymous": false,
      "inputs": [
        {
          "indexed": true,
          "internalType": "address",
          "name": "asset",
          "type": "address"
        }
      ],
      "name": "AllowedAsset",
      "type": "event"
    },
    {
      "anonymous": false,
      "inputs": [
        {
          "indexed": true,
          "internalType": "address",
          "name": "owner",
          "type": "address"
        },
        {
          "indexed": true,
          "internalType": "address",
          "name": "spender",
          "type": "address"
        },
        {
          "indexed": false,
          "internalType": "uint256",
          "name": "value",
          "type": "uint256"
        }
      ],
      "name": "Approval",
      "type": "event"
    },
    {
      "anonymous": false,
      "inputs": [
        {
          "indexed": true,
          "internalType": "address",
          "name": "participant",
          "type": "address"
        },
        {
          "indexed": true,
          "internalType": "address",
          "name": "asset",
          "type": "address"
        },
        {
          "indexed": false,
          "internalType": "uint256",
          "name": "assetAmount",
          "type": "uint256"
        },
        {
          "indexed": false,
          "internalType": "uint256",
          "name": "baseAssetAmount",
          "type": "uint256"
        },
        {
          "indexed": false,
          "internalType": "uint256",
          "name": "shares",
          "type": "uint256"
        }
      ],
      "name": "AssetDeposited",
      "type": "event"
    },
    {
      "anonymous": false,
      "inputs": [
        {
          "indexed": true,
          "internalType": "address",
          "name": "participant",
          "type": "address"
        },
        {
          "indexed": true,
          "internalType": "address",
          "name": "asset",
          "type": "address"
        },
        {
          "indexed": false,
          "internalType": "uint256",
          "name": "assetAmount",
          "type": "uint256"
        },
        {
          "indexed": false,
          "internalType": "uint256",
          "name": "baseAssetAmount",
          "type": "uint256"
        },
        {
          "indexed": false,
          "internalType": "uint256",
          "name": "shares",
          "type": "uint256"
        }
      ],
      "name": "AssetWithdrawn",
      "type": "event"
    },
    {
      "anonymous": false,
      "inputs": [
        {
          "indexed": true,
          "internalType": "address",
          "name": "asset",
          "type": "address"
        }
      ],
      "name": "DisallowedAsset",
      "type": "event"
    },
    {
      "anonymous": false,
      "inputs": [
        {
          "indexed": true,
          "internalType": "address",
          "name": "previousOwner",
          "type": "address"
        },
        {
          "indexed": true,
          "internalType": "address",
          "name": "newOwner",
          "type": "address"
        }
      ],
      "name": "OwnershipTransferred",
      "type": "event"
    },
    {
      "anonymous": false,
      "inputs": [
        {
          "indexed": false,
          "internalType": "address",
          "name": "account",
          "type": "address"
        }
      ],
      "name": "Paused",
      "type": "event"
    },
    {
      "anonymous": false,
      "inputs": [
        {
          "indexed": true,
          "internalType": "address",
          "name": "from",
          "type": "address"
        },
        {
          "indexed": true,
          "internalType": "address",
          "name": "to",
          "type": "address"
        },
        {
          "indexed": false,
          "internalType": "uint256",
          "name": "baseAssetAmount",
          "type": "uint256"
        },
        {
          "indexed": false,
          "internalType": "uint256",
          "name": "shares",
          "type": "uint256"
        },
        {
          "indexed": false,
          "internalType": "uint256",
          "name": "protocolFee",
          "type": "uint256"
        },
        {
          "indexed": false,
          "internalType": "uint256",
          "name": "protocolFeeShares",
          "type": "uint256"
        },
        {
          "indexed": true,
          "internalType": "address",
          "name": "network",
          "type": "address"
        },
        {
          "indexed": false,
          "internalType": "uint256",
          "name": "networkFee",
          "type": "uint256"
        },
        {
          "indexed": false,
          "internalType": "uint256",
          "name": "networkFeeShares",
          "type": "uint256"
        }
      ],
      "name": "Payment",
      "type": "event"
    },
    {
      "anonymous": false,
      "inputs": [
        {
          "indexed": true,
          "internalType": "address",
          "name": "protocol",
          "type": "address"
        }
      ],
      "name": "RemoveProtocol",
      "type": "event"
    },
    {
      "anonymous": false,
      "inputs": [
        {
          "indexed": true,
          "internalType": "address",
          "name": "feeDistributor",
          "type": "address"
        }
      ],
      "name": "SetFeeDistributor",
      "type": "event"
    },
    {
      "anonymous": false,
      "inputs": [
        {
          "indexed": true,
          "internalType": "address",
          "name": "participant",
          "type": "address"
        },
        {
          "indexed": false,
          "internalType": "enum ICaskVault.FundingSource",
          "name": "fundingSource",
          "type": "uint8"
        },
        {
          "indexed": false,
          "internalType": "address",
          "name": "fundingAsset",
          "type": "address"
        }
      ],
      "name": "SetFundingSource",
      "type": "event"
    },
    {
      "anonymous": false,
      "inputs": [
        {
          "indexed": false,
          "internalType": "uint256",
          "name": "maxPriceFeedAge",
          "type": "uint256"
        }
      ],
      "name": "SetMaxPriceFeedAge",
      "type": "event"
    },
    {
      "anonymous": false,
      "inputs": [
        {
          "indexed": false,
          "internalType": "uint256",
          "name": "minDeposit",
          "type": "uint256"
        }
      ],
      "name": "SetMinDeposit",
      "type": "event"
    },
    {
      "anonymous": false,
      "inputs": [
        {
          "indexed": true,
          "internalType": "address",
          "name": "feeDistributor",
          "type": "address"
        }
      ],
      "name": "SetTrustedForwarder",
      "type": "event"
    },
    {
      "anonymous": false,
      "inputs": [
        {
          "indexed": true,
          "internalType": "address",
          "name": "from",
          "type": "address"
        },
        {
          "indexed": true,
          "internalType": "address",
          "name": "to",
          "type": "address"
        },
        {
          "indexed": false,
          "internalType": "uint256",
          "name": "value",
          "type": "uint256"
        }
      ],
      "name": "Transfer",
      "type": "event"
    },
    {
      "anonymous": false,
      "inputs": [
        {
          "indexed": true,
          "internalType": "address",
          "name": "from",
          "type": "address"
        },
        {
          "indexed": true,
          "internalType": "address",
          "name": "to",
          "type": "address"
        },
        {
          "indexed": false,
          "internalType": "uint256",
          "name": "baseAssetAmount",
          "type": "uint256"
        },
        {
          "indexed": false,
          "internalType": "uint256",
          "name": "shares",
          "type": "uint256"
        }
      ],
      "name": "TransferValue",
      "type": "event"
    },
    {
      "anonymous": false,
      "inputs": [
        {
          "indexed": false,
          "internalType": "address",
          "name": "account",
          "type": "address"
        }
      ],
      "name": "Unpaused",
      "type": "event"
    },
    {
      "inputs": [
        {
          "internalType": "address",
          "name": "_protocol",
          "type": "address"
        }
      ],
      "name": "addProtocol",
      "outputs": [],
      "stateMutability": "nonpayable",
      "type": "function"
    },
    {
      "inputs": [
        {
          "internalType": "address",
          "name": "_asset",
          "type": "address"
        },
        {
          "internalType": "address",
          "name": "_priceFeed",
          "type": "address"
        },
        {
          "internalType": "uint256",
          "name": "_depositLimit",
          "type": "uint256"
        },
        {
          "internalType": "uint256",
          "name": "_slippageBps",
          "type": "uint256"
        }
      ],
      "name": "allowAsset",
      "outputs": [],
      "stateMutability": "nonpayable",
      "type": "function"
    },
    {
      "inputs": [
        {
          "internalType": "address",
          "name": "owner",
          "type": "address"
        },
        {
          "internalType": "address",
          "name": "spender",
          "type": "address"
        }
      ],
      "name": "allowance",
      "outputs": [
        {
          "internalType": "uint256",
          "name": "",
          "type": "uint256"
        }
      ],
      "stateMutability": "view",
      "type": "function"
    },
    {
      "inputs": [
        {
          "internalType": "address",
          "name": "spender",
          "type": "address"
        },
        {
          "internalType": "uint256",
          "name": "amount",
          "type": "uint256"
        }
      ],
      "name": "approve",
      "outputs": [
        {
          "internalType": "bool",
          "name": "",
          "type": "bool"
        }
      ],
      "stateMutability": "nonpayable",
      "type": "function"
    },
    {
      "inputs": [
        {
          "internalType": "address",
          "name": "account",
          "type": "address"
        }
      ],
      "name": "balanceOf",
      "outputs": [
        {
          "internalType": "uint256",
          "name": "",
          "type": "uint256"
        }
      ],
      "stateMutability": "view",
      "type": "function"
    },
    {
      "inputs": [],
      "name": "baseAsset",
      "outputs": [
        {
          "internalType": "address",
          "name": "",
          "type": "address"
        }
      ],
      "stateMutability": "view",
      "type": "function"
    },
    {
      "inputs": [
        {
          "internalType": "address",
          "name": "_fromAsset",
          "type": "address"
        },
        {
          "internalType": "address",
          "name": "_toAsset",
          "type": "address"
        },
        {
          "internalType": "uint256",
          "name": "_fromAmount",
          "type": "uint256"
        }
      ],
      "name": "convertPrice",
      "outputs": [
        {
          "internalType": "uint256",
          "name": "",
          "type": "uint256"
        }
      ],
      "stateMutability": "view",
      "type": "function"
    },
    {
      "inputs": [
        {
          "internalType": "address",
          "name": "_address",
          "type": "address"
        }
      ],
      "name": "currentValueOf",
      "outputs": [
        {
          "internalType": "uint256",
          "name": "",
          "type": "uint256"
        }
      ],
      "stateMutability": "view",
      "type": "function"
    },
    {
      "inputs": [],
      "name": "decimals",
      "outputs": [
        {
          "internalType": "uint8",
          "name": "",
          "type": "uint8"
        }
      ],
      "stateMutability": "view",
      "type": "function"
    },
    {
      "inputs": [
        {
          "internalType": "address",
          "name": "spender",
          "type": "address"
        },
        {
          "internalType": "uint256",
          "name": "subtractedValue",
          "type": "uint256"
        }
      ],
      "name": "decreaseAllowance",
      "outputs": [
        {
          "internalType": "bool",
          "name": "",
          "type": "bool"
        }
      ],
      "stateMutability": "nonpayable",
      "type": "function"
    },
    {
      "inputs": [
        {
          "internalType": "address",
          "name": "_asset",
          "type": "address"
        },
        {
          "internalType": "uint256",
          "name": "_assetAmount",
          "type": "uint256"
        }
      ],
      "name": "deposit",
      "outputs": [],
      "stateMutability": "nonpayable",
      "type": "function"
    },
    {
      "inputs": [
        {
          "internalType": "address",
          "name": "_to",
          "type": "address"
        },
        {
          "internalType": "address",
          "name": "_asset",
          "type": "address"
        },
        {
          "internalType": "uint256",
          "name": "_assetAmount",
          "type": "uint256"
        }
      ],
      "name": "depositTo",
      "outputs": [],
      "stateMutability": "nonpayable",
      "type": "function"
    },
    {
      "inputs": [
        {
          "internalType": "address",
          "name": "_asset",
          "type": "address"
        }
      ],
      "name": "disallowAsset",
      "outputs": [],
      "stateMutability": "nonpayable",
      "type": "function"
    },
    {
      "inputs": [],
      "name": "feeDistributor",
      "outputs": [
        {
          "internalType": "address",
          "name": "",
          "type": "address"
        }
      ],
      "stateMutability": "view",
      "type": "function"
    },
    {
      "inputs": [
        {
          "internalType": "address",
          "name": "_address",
          "type": "address"
        }
      ],
      "name": "fundingSource",
      "outputs": [
        {
          "components": [
            {
              "internalType": "enum ICaskVault.FundingSource",
              "name": "fundingSource",
              "type": "uint8"
            },
            {
              "internalType": "address",
              "name": "fundingAsset",
              "type": "address"
            }
          ],
          "internalType": "struct ICaskVault.FundingProfile",
          "name": "",
          "type": "tuple"
        }
      ],
      "stateMutability": "view",
      "type": "function"
    },
    {
      "inputs": [],
      "name": "getAllAssets",
      "outputs": [
        {
          "internalType": "address[]",
          "name": "",
          "type": "address[]"
        }
      ],
      "stateMutability": "view",
      "type": "function"
    },
    {
      "inputs": [
        {
          "internalType": "address",
          "name": "_asset",
          "type": "address"
        }
      ],
      "name": "getAsset",
      "outputs": [
        {
          "components": [
            {
              "internalType": "address",
              "name": "priceFeed",
              "type": "address"
            },
            {
              "internalType": "uint256",
              "name": "slippageBps",
              "type": "uint256"
            },
            {
              "internalType": "uint256",
              "name": "depositLimit",
              "type": "uint256"
            },
            {
              "internalType": "uint8",
              "name": "assetDecimals",
              "type": "uint8"
            },
            {
              "internalType": "uint8",
              "name": "priceFeedDecimals",
              "type": "uint8"
            },
            {
              "internalType": "bool",
              "name": "allowed",
              "type": "bool"
            }
          ],
          "internalType": "struct ICaskVault.Asset",
          "name": "",
          "type": "tuple"
        }
      ],
      "stateMutability": "view",
      "type": "function"
    },
    {
      "inputs": [],
      "name": "getBaseAsset",
      "outputs": [
        {
          "internalType": "address",
          "name": "",
          "type": "address"
        }
      ],
      "stateMutability": "view",
      "type": "function"
    },
    {
      "inputs": [
        {
          "internalType": "address",
          "name": "spender",
          "type": "address"
        },
        {
          "internalType": "uint256",
          "name": "addedValue",
          "type": "uint256"
        }
      ],
      "name": "increaseAllowance",
      "outputs": [
        {
          "internalType": "bool",
          "name": "",
          "type": "bool"
        }
      ],
      "stateMutability": "nonpayable",
      "type": "function"
    },
    {
      "inputs": [
        {
          "internalType": "address",
          "name": "_baseAsset",
          "type": "address"
        },
        {
          "internalType": "address",
          "name": "_baseAssetPriceFeed",
          "type": "address"
        },
        {
          "internalType": "address",
          "name": "_feeDistributor",
          "type": "address"
        }
      ],
      "name": "initialize",
      "outputs": [],
      "stateMutability": "nonpayable",
      "type": "function"
    },
    {
      "inputs": [
        {
          "internalType": "address",
          "name": "forwarder",
          "type": "address"
        }
      ],
      "name": "isTrustedForwarder",
      "outputs": [
        {
          "internalType": "bool",
          "name": "",
          "type": "bool"
        }
      ],
      "stateMutability": "view",
      "type": "function"
    },
    {
      "inputs": [],
      "name": "maxPriceFeedAge",
      "outputs": [
        {
          "internalType": "uint256",
          "name": "",
          "type": "uint256"
        }
      ],
      "stateMutability": "view",
      "type": "function"
    },
    {
      "inputs": [],
      "name": "minDeposit",
      "outputs": [
        {
          "internalType": "uint256",
          "name": "",
          "type": "uint256"
        }
      ],
      "stateMutability": "view",
      "type": "function"
    },
    {
      "inputs": [],
      "name": "name",
      "outputs": [
        {
          "internalType": "string",
          "name": "",
          "type": "string"
        }
      ],
      "stateMutability": "view",
      "type": "function"
    },
    {
      "inputs": [],
      "name": "owner",
      "outputs": [
        {
          "internalType": "address",
          "name": "",
          "type": "address"
        }
      ],
      "stateMutability": "view",
      "type": "function"
    },
    {
      "inputs": [],
      "name": "pause",
      "outputs": [],
      "stateMutability": "nonpayable",
      "type": "function"
    },
    {
      "inputs": [],
      "name": "paused",
      "outputs": [
        {
          "internalType": "bool",
          "name": "",
          "type": "bool"
        }
      ],
      "stateMutability": "view",
      "type": "function"
    },
    {
      "inputs": [],
      "name": "pricePerShare",
      "outputs": [
        {
          "internalType": "uint256",
          "name": "",
          "type": "uint256"
        }
      ],
      "stateMutability": "view",
      "type": "function"
    },
    {
      "inputs": [],
      "name": "protocolCount",
      "outputs": [
        {
          "internalType": "uint256",
          "name": "",
          "type": "uint256"
        }
      ],
      "stateMutability": "view",
      "type": "function"
    },
    {
      "inputs": [
        {
          "internalType": "address",
          "name": "_from",
          "type": "address"
        },
        {
          "internalType": "address",
          "name": "_to",
          "type": "address"
        },
        {
          "internalType": "uint256",
          "name": "_value",
          "type": "uint256"
        },
        {
          "internalType": "uint256",
          "name": "_protocolFee",
          "type": "uint256"
        },
        {
          "internalType": "address",
          "name": "_network",
          "type": "address"
        },
        {
          "internalType": "uint256",
          "name": "_networkFee",
          "type": "uint256"
        }
      ],
      "name": "protocolPayment",
      "outputs": [],
      "stateMutability": "nonpayable",
      "type": "function"
    },
    {
      "inputs": [
        {
          "internalType": "address",
          "name": "_from",
          "type": "address"
        },
        {
          "internalType": "address",
          "name": "_to",
          "type": "address"
        },
        {
          "internalType": "uint256",
          "name": "_value",
          "type": "uint256"
        }
      ],
      "name": "protocolPayment",
      "outputs": [],
      "stateMutability": "nonpayable",
      "type": "function"
    },
    {
      "inputs": [
        {
          "internalType": "address",
          "name": "_from",
          "type": "address"
        },
        {
          "internalType": "address",
          "name": "_to",
          "type": "address"
        },
        {
          "internalType": "uint256",
          "name": "_value",
          "type": "uint256"
        },
        {
          "internalType": "uint256",
          "name": "_protocolFee",
          "type": "uint256"
        }
      ],
      "name": "protocolPayment",
      "outputs": [],
      "stateMutability": "nonpayable",
      "type": "function"
    },
    {
      "inputs": [
        {
          "internalType": "uint256",
          "name": "",
          "type": "uint256"
        }
      ],
      "name": "protocols",
      "outputs": [
        {
          "internalType": "address",
          "name": "",
          "type": "address"
        }
      ],
      "stateMutability": "view",
      "type": "function"
    },
    {
      "inputs": [
        {
          "internalType": "address",
          "name": "_protocol",
          "type": "address"
        }
      ],
      "name": "removeProtocol",
      "outputs": [],
      "stateMutability": "nonpayable",
      "type": "function"
    },
    {
      "inputs": [],
      "name": "renounceOwnership",
      "outputs": [],
      "stateMutability": "nonpayable",
      "type": "function"
    },
    {
      "inputs": [],
      "name": "reserved1",
      "outputs": [
        {
          "internalType": "address",
          "name": "",
          "type": "address"
        }
      ],
      "stateMutability": "view",
      "type": "function"
    },
    {
      "inputs": [
        {
          "internalType": "address",
          "name": "_feeDistributor",
          "type": "address"
        }
      ],
      "name": "setFeeDistributor",
      "outputs": [],
      "stateMutability": "nonpayable",
      "type": "function"
    },
    {
      "inputs": [
        {
          "internalType": "enum ICaskVault.FundingSource",
          "name": "_fundingSource",
          "type": "uint8"
        },
        {
          "internalType": "address",
          "name": "_fundingAsset",
          "type": "address"
        }
      ],
      "name": "setFundingSource",
      "outputs": [],
      "stateMutability": "nonpayable",
      "type": "function"
    },
    {
      "inputs": [
        {
          "internalType": "uint256",
          "name": "_maxPriceFeedAge",
          "type": "uint256"
        }
      ],
      "name": "setMaxPriceFeedAge",
      "outputs": [],
      "stateMutability": "nonpayable",
      "type": "function"
    },
    {
      "inputs": [
        {
          "internalType": "uint256",
          "name": "_minDeposit",
          "type": "uint256"
        }
      ],
      "name": "setMinDeposit",
      "outputs": [],
      "stateMutability": "nonpayable",
      "type": "function"
    },
    {
      "inputs": [
        {
          "internalType": "address",
          "name": "_forwarder",
          "type": "address"
        }
      ],
      "name": "setTrustedForwarder",
      "outputs": [],
      "stateMutability": "nonpayable",
      "type": "function"
    },
    {
      "inputs": [
        {
          "internalType": "uint256",
          "name": "_value",
          "type": "uint256"
        }
      ],
      "name": "sharesForValue",
      "outputs": [
        {
          "internalType": "uint256",
          "name": "",
          "type": "uint256"
        }
      ],
      "stateMutability": "view",
      "type": "function"
    },
    {
      "inputs": [
        {
          "internalType": "address",
          "name": "_asset",
          "type": "address"
        }
      ],
      "name": "supportsAsset",
      "outputs": [
        {
          "internalType": "bool",
          "name": "",
          "type": "bool"
        }
      ],
      "stateMutability": "view",
      "type": "function"
    },
    {
      "inputs": [],
      "name": "symbol",
      "outputs": [
        {
          "internalType": "string",
          "name": "",
          "type": "string"
        }
      ],
      "stateMutability": "view",
      "type": "function"
    },
    {
      "inputs": [
        {
          "internalType": "address",
          "name": "_asset",
          "type": "address"
        }
      ],
      "name": "totalAssetBalance",
      "outputs": [
        {
          "internalType": "uint256",
          "name": "",
          "type": "uint256"
        }
      ],
      "stateMutability": "view",
      "type": "function"
    },
    {
      "inputs": [],
      "name": "totalSupply",
      "outputs": [
        {
          "internalType": "uint256",
          "name": "",
          "type": "uint256"
        }
      ],
      "stateMutability": "view",
      "type": "function"
    },
    {
      "inputs": [],
      "name": "totalValue",
      "outputs": [
        {
          "internalType": "uint256",
          "name": "",
          "type": "uint256"
        }
      ],
      "stateMutability": "view",
      "type": "function"
    },
    {
      "inputs": [
        {
          "internalType": "address",
          "name": "recipient",
          "type": "address"
        },
        {
          "internalType": "uint256",
          "name": "amount",
          "type": "uint256"
        }
      ],
      "name": "transfer",
      "outputs": [
        {
          "internalType": "bool",
          "name": "",
          "type": "bool"
        }
      ],
      "stateMutability": "nonpayable",
      "type": "function"
    },
    {
      "inputs": [
        {
          "internalType": "address",
          "name": "sender",
          "type": "address"
        },
        {
          "internalType": "address",
          "name": "recipient",
          "type": "address"
        },
        {
          "internalType": "uint256",
          "name": "amount",
          "type": "uint256"
        }
      ],
      "name": "transferFrom",
      "outputs": [
        {
          "internalType": "bool",
          "name": "",
          "type": "bool"
        }
      ],
      "stateMutability": "nonpayable",
      "type": "function"
    },
    {
      "inputs": [
        {
          "internalType": "address",
          "name": "newOwner",
          "type": "address"
        }
      ],
      "name": "transferOwnership",
      "outputs": [],
      "stateMutability": "nonpayable",
      "type": "function"
    },
    {
      "inputs": [
        {
          "internalType": "address",
          "name": "_recipient",
          "type": "address"
        },
        {
          "internalType": "uint256",
          "name": "_value",
          "type": "uint256"
        }
      ],
      "name": "transferValue",
      "outputs": [
        {
          "internalType": "bool",
          "name": "",
          "type": "bool"
        }
      ],
      "stateMutability": "nonpayable",
      "type": "function"
    },
    {
      "inputs": [
        {
          "internalType": "address",
          "name": "_sender",
          "type": "address"
        },
        {
          "internalType": "address",
          "name": "_recipient",
          "type": "address"
        },
        {
          "internalType": "uint256",
          "name": "_value",
          "type": "uint256"
        }
      ],
      "name": "transferValueFrom",
      "outputs": [
        {
          "internalType": "bool",
          "name": "",
          "type": "bool"
        }
      ],
      "stateMutability": "nonpayable",
      "type": "function"
    },
    {
      "inputs": [],
      "name": "trustedForwarder",
      "outputs": [
        {
          "internalType": "address",
          "name": "",
          "type": "address"
        }
      ],
      "stateMutability": "view",
      "type": "function"
    },
    {
      "inputs": [],
      "name": "unpause",
      "outputs": [],
      "stateMutability": "nonpayable",
      "type": "function"
    },
    {
      "inputs": [],
      "name": "versionRecipient",
      "outputs": [
        {
          "internalType": "string",
          "name": "",
          "type": "string"
        }
      ],
      "stateMutability": "pure",
      "type": "function"
    },
    {
      "inputs": [
        {
          "internalType": "address",
          "name": "_asset",
          "type": "address"
        },
        {
          "internalType": "uint256",
          "name": "_shares",
          "type": "uint256"
        }
      ],
      "name": "withdraw",
      "outputs": [],
      "stateMutability": "nonpayable",
      "type": "function"
    },
    {
      "inputs": [
        {
          "internalType": "address",
          "name": "_recipient",
          "type": "address"
        },
        {
          "internalType": "address",
          "name": "_asset",
          "type": "address"
        },
        {
          "internalType": "uint256",
          "name": "_shares",
          "type": "uint256"
        }
      ],
      "name": "withdrawTo",
      "outputs": [],
      "stateMutability": "nonpayable",
      "type": "function"
    }
  ],
  "bytecode": "0x60806040523480156200001157600080fd5b50600054610100900460ff166200002f5760005460ff161562000039565b62000039620000de565b620000a15760405162461bcd60e51b815260206004820152602e60248201527f496e697469616c697a61626c653a20636f6e747261637420697320616c72656160448201526d191e481a5b9a5d1a585b1a5e995960921b606482015260840160405180910390fd5b600054610100900460ff16158015620000c4576000805461ffff19166101011790555b8015620000d7576000805461ff00191690555b5062000102565b6000620000f630620000fc60201b620024891760201c565b15905090565b3b151590565b6145eb80620001126000396000f3fe608060405234801561001057600080fd5b50600436106103835760003560e01c806379b2125f116101de578063c0c53b8b1161010f578063dd62ed3e116100ad578063f213159c1161007c578063f213159c146108ce578063f2fde38b146108e1578063f3fef3a3146108f4578063fcd6a25b1461090757600080fd5b8063dd62ed3e14610866578063e1ded2de1461089f578063e2eed04f146108b2578063e300eec7146108bb57600080fd5b8063cdf456e1116100e9578063cdf456e114610825578063d4c3eea014610838578063d73f730b14610840578063da7422281461085357600080fd5b8063c0c53b8b146107ec578063c3b35a7e146107ff578063ccfc2e8d1461081257600080fd5b80638fcc9cfb1161017c578063a457c2d711610156578063a457c2d71461077d578063a9059cbb14610790578063aa388af6146107a3578063aaac831f146107d957600080fd5b80638fcc9cfb1461075a57806395d89b411461076d57806399530b061461077557600080fd5b80638c396220116101b85780638c396220146107125780638d3a4af6146107255780638da5cb5b146107365780638e3e580d1461074757600080fd5b806379b2125f146106e65780637da0a877146106f95780638456cb591461070a57600080fd5b80633f4ba83a116102b8578063597435cb116102565780635c975abb116102305780635c975abb1461069757806370a08231146106a2578063715018a6146106cb578063771d4c28146106d357600080fd5b8063597435cb146106515780635979d7b8146106645780635a4161ff1461068457600080fd5b8063486ff0cd11610292578063486ff0cd146105e85780634bb846e1146106095780635517575d1461061c578063572b6c051461062f57600080fd5b80633f4ba83a146105c357806341b3d185146105cb57806347e7ef24146105d557600080fd5b80631e377d39116103255780632acada4d116102ff5780632acada4d1461047557806330b8b2c61461048a578063313ce5671461059657806339509351146105b057600080fd5b80631e377d391461043c5780632298d8491461044f57806323b872dd1461046257600080fd5b8063095ea7b311610361578063095ea7b3146103e15780630d43e8ad146103f457806318160ddd1461041f57806318ff57681461042757600080fd5b806306fdde03146103885780630816c847146103a657806308751b18146103be575b600080fd5b61039061091a565b60405161039d9190613e73565b60405180910390f35b6103b06101035481565b60405190815260200161039d565b6103d16103cc366004613ebd565b6109ac565b604051901515815260200161039d565b6103d16103ef366004613ef9565b610ac6565b60fe54610407906001600160a01b031681565b6040516001600160a01b03909116815260200161039d565b6036546103b0565b61043a610435366004613f23565b610ae4565b005b61043a61044a366004613f3e565b610c87565b61043a61045d366004613f23565b611049565b6103d1610470366004613ebd565b611147565b61047d6111d9565b60405161039d9190613f80565b61053a610498366004613f23565b6040805160c081018252600080825260208201819052918101829052606081018290526080810182905260a0810191909152506001600160a01b03908116600090815260ff6020818152604092839020835160c08101855281549095168552600181015491850191909152600281015492840192909252600390910154808216606084015261010081048216608084015262010000900416151560a082015290565b60405161039d9190600060c08201905060018060a01b038351168252602083015160208301526040830151604083015260ff606084015116606083015260ff608084015116608083015260a0830151151560a083015292915050565b61059e61123b565b60405160ff909116815260200161039d565b6103d16105be366004613ef9565b6112bd565b61043a611311565b6103b06101025481565b61043a6105e3366004613ef9565b611364565b6040805180820190915260058152640322e322e360dc1b6020820152610390565b6103b0610617366004613ebd565b6113d2565b6103b061062a366004613f23565b6113e7565b6103d161063d366004613f23565b6033546001600160a01b0391821691161490565b6103b061065f366004613f23565b6113f2565b610677610672366004613f23565b611419565b60405161039d9190614005565b6103d1610692366004613ef9565b611497565b60985460ff166103d1565b6103b06106b0366004613f23565b6001600160a01b031660009081526034602052604090205490565b61043a611570565b61043a6106e1366004613f23565b6115c3565b61043a6106f436600461402f565b611685565b6033546001600160a01b0316610407565b61043a611774565b61040761072036600461408e565b6117c5565b60fd546001600160a01b0316610407565b6066546001600160a01b0316610407565b61043a610755366004613ebd565b6117f0565b61043a61076836600461408e565b6118de565b610390611964565b6103b0611973565b6103d161078b366004613ef9565b6119a3565b6103d161079e366004613ef9565b611a5a565b6103d16107b1366004613f23565b6001600160a01b0316600090815260ff60208190526040909120600301546201000090041690565b60fc54610407906001600160a01b031681565b61043a6107fa3660046140a7565b611a6e565b61043a61080d366004613ebd565b611ee3565b61043a610820366004613f23565b611f43565b60fd54610407906001600160a01b031681565b6103b0611fd6565b61043a61084e3660046140ea565b611fe0565b61043a610861366004613f23565b612101565b6103b0610874366004614123565b6001600160a01b03918216600090815260356020908152604080832093909416825291909152205490565b6103b06108ad36600461408e565b61219c565b610101546103b0565b61043a6108c936600461408e565b6121a7565b61043a6108dc366004613ebd565b612226565b61043a6108ef366004613f23565b612284565b61043a610902366004613ef9565b61233e565b61043a610915366004613f3e565b61239b565b6060603780546109299061413f565b80601f01602080910402602001604051908101604052809291908181526020018280546109559061413f565b80156109a25780601f10610977576101008083540402835291602001916109a2565b820191906000526020600020905b81548152906001019060200180831161098557829003601f168201915b5050505050905090565b6000600260ca5414156109da5760405162461bcd60e51b81526004016109d190614174565b60405180910390fd5b600260ca5560985460ff1615610a025760405162461bcd60e51b81526004016109d1906141ab565b6000610a0d8361248f565b9050610a1a8585836124c9565b6000610a2886610874612697565b905081811015610a4a5760405162461bcd60e51b81526004016109d1906141d5565b610a5e86610a56612697565b8484036126a1565b846001600160a01b0316866001600160a01b03167fc8cf4e5d87b5b4ffb59d20991b0840a27d2227ee272dae54bacf0f4b4184bf778685604051610aac929190918252602082015260400190565b60405180910390a3600192505050600160ca559392505050565b6000610ada610ad3612697565b84846126a1565b5060015b92915050565b610aec612697565b6001600160a01b0316610b076066546001600160a01b031690565b6001600160a01b031614610b2d5760405162461bcd60e51b81526004016109d19061421d565b6101015460005b61010154811015610b9257826001600160a01b03166101018281548110610b5d57610b5d614252565b6000918252602090912001546001600160a01b03161415610b8057809150610b92565b80610b8a8161427e565b915050610b34565b5061010154811015610c4f576101018054610baf90600190614299565b81548110610bbf57610bbf614252565b60009182526020909120015461010180546001600160a01b039092169183908110610bec57610bec614252565b9060005260206000200160006101000a8154816001600160a01b0302191690836001600160a01b03160217905550610101805480610c2c57610c2c6142b0565b600082815260209020810160001990810180546001600160a01b03191690550190555b6040516001600160a01b038316907fb0e13246ae39a13158fc894c77b848e06901f1440d7cc8aaad18f0a0e1566b3890600090a25050565b610c8f612697565b6001600160a01b0316610caa6066546001600160a01b031690565b6001600160a01b031614610cd05760405162461bcd60e51b81526004016109d19061421d565b6000846001600160a01b031663313ce5676040518163ffffffff1660e01b815260040160206040518083038186803b158015610d0b57600080fd5b505afa158015610d1f573d6000803e3d6000fd5b505050506040513d601f19601f82011682018060405250810190610d4391906142c6565b60ff1611610d855760405162461bcd60e51b815260206004820152600f60248201526e21494e56414c49442861737365742960881b60448201526064016109d1565b6000836001600160a01b031663313ce5676040518163ffffffff1660e01b815260040160206040518083038186803b158015610dc057600080fd5b505afa158015610dd4573d6000803e3d6000fd5b505050506040513d601f19601f82011682018060405250810190610df891906142c6565b60ff1611610e3e5760405162461bcd60e51b815260206004820152601360248201527221494e56414c4944287072696365466565642960681b60448201526064016109d1565b6001600160a01b038416600090815260ff602081905260409091206003810154909116610eb25761010080546001810182556000919091527f45e010b9ae401e2eb71529478da8bd513a9bdc2d095a111e324f5b95c09ed87b0180546001600160a01b0319166001600160a01b0387161790555b60038101805462ff000019166201000017905580546001600160a01b038086166001600160a01b031990921691909117825560028201849055600182018390556040805163313ce56760e01b815290519187169163313ce56791600480820192602092909190829003018186803b158015610f2c57600080fd5b505afa158015610f40573d6000803e3d6000fd5b505050506040513d601f19601f82011682018060405250810190610f6491906142c6565b8160030160006101000a81548160ff021916908360ff160217905550836001600160a01b031663313ce5676040518163ffffffff1660e01b815260040160206040518083038186803b158015610fb957600080fd5b505afa158015610fcd573d6000803e3d6000fd5b505050506040513d601f19601f82011682018060405250810190610ff191906142c6565b60038201805460ff929092166101000261ff00199092169190911790556040516001600160a01b038616907f06a94869c30cb7089f57f8d4a5ff251ac74a8c2bc361e7f91bda209898de8ead90600090a25050505050565b611051612697565b6001600160a01b031661106c6066546001600160a01b031690565b6001600160a01b0316146110925760405162461bcd60e51b81526004016109d19061421d565b6001600160a01b038116600090815260ff6020819052604090912060030154620100009004166110f95760405162461bcd60e51b8152602060048201526012602482015271085054d4d15517d393d517d0531313d5d15160721b60448201526064016109d1565b6001600160a01b038116600081815260ff6020526040808220600301805462ff000019169055517f0a8090b3b8835c60a03ebb0cc69833b4359a1924917dbc2e80bb4516428da0a39190a250565b60006111548484846124c9565b6001600160a01b038416600090815260356020526040812081611175612697565b6001600160a01b03166001600160a01b03168152602001908152602001600020549050828110156111b85760405162461bcd60e51b81526004016109d1906141d5565b6111cc856111c4612697565b8584036126a1565b60019150505b9392505050565b60606101008054806020026020016040519081016040528092919081815260200182805480156109a257602002820191906000526020600020905b81546001600160a01b03168152600190910190602001808311611214575050505050905090565b60fd546040805163313ce56760e01b815290516000926001600160a01b03169163313ce567916004808301926020929190829003018186803b15801561128057600080fd5b505afa158015611294573d6000803e3d6000fd5b505050506040513d601f19601f820116820180604052508101906112b891906142c6565b905090565b6000610ada6112ca612697565b8484603560006112d8612697565b6001600160a01b03908116825260208083019390935260409182016000908120918b168152925290205461130c91906142e9565b6126a1565b611319612697565b6001600160a01b03166113346066546001600160a01b031690565b6001600160a01b03161461135a5760405162461bcd60e51b81526004016109d19061421d565b6113626127c5565b565b600260ca5414156113875760405162461bcd60e51b81526004016109d190614174565b600260ca5560985460ff16156113af5760405162461bcd60e51b81526004016109d1906141ab565b6113c96113ba612697565b6113c2612697565b848461285e565b5050600160ca55565b60006113df848484612b07565b949350505050565b6000610ade82612f51565b6001600160a01b038116600090815260346020526040812054610ade90612fcb565b612fcb565b60408051808201909152600080825260208201526001600160a01b038216600090815261010460205260409081902081518083019092528054829060ff16600181111561146857611468613fcd565b600181111561147957611479613fcd565b8152905461010090046001600160a01b031660209091015292915050565b6000600260ca5414156114bc5760405162461bcd60e51b81526004016109d190614174565b600260ca5560985460ff16156114e45760405162461bcd60e51b81526004016109d1906141ab565b60006114ef8361248f565b90506115036114fc612697565b85836124c9565b836001600160a01b0316611515612697565b6001600160a01b03167fc8cf4e5d87b5b4ffb59d20991b0840a27d2227ee272dae54bacf0f4b4184bf778584604051611558929190918252602082015260400190565b60405180910390a36001915050600160ca5592915050565b611578612697565b6001600160a01b03166115936066546001600160a01b031690565b6001600160a01b0316146115b95760405162461bcd60e51b81526004016109d19061421d565b6113626000612ff4565b6115cb612697565b6001600160a01b03166115e66066546001600160a01b031690565b6001600160a01b03161461160c5760405162461bcd60e51b81526004016109d19061421d565b610101805460018101825560009182527f109ea3cebb188b9c1b9fc5bb3920be60dfdc8699098dff92f3d80daaca7476890180546001600160a01b0319166001600160a01b03841690811790915560405190917f713b660c92a559fe6eecdbf5d129bf8e30d527db74b47b6dc5eeb65c7893f1e591a250565b600260ca5414156116a85760405162461bcd60e51b81526004016109d190614174565b600260ca556000805b610101548110156117175761010181815481106116d0576116d0614252565b6000918252602090912001546001600160a01b03166116ed612697565b6001600160a01b031614156117055760019150611717565b8061170f8161427e565b9150506116b1565b50806117355760405162461bcd60e51b81526004016109d190614301565b60985460ff16156117585760405162461bcd60e51b81526004016109d1906141ab565b611766878787878787613046565b5050600160ca555050505050565b61177c612697565b6001600160a01b03166117976066546001600160a01b031690565b6001600160a01b0316146117bd5760405162461bcd60e51b81526004016109d19061421d565b611362613376565b61010181815481106117d657600080fd5b6000918252602090912001546001600160a01b0316905081565b600260ca5414156118135760405162461bcd60e51b81526004016109d190614174565b600260ca556000805b6101015481101561188257610101818154811061183b5761183b614252565b6000918252602090912001546001600160a01b0316611858612697565b6001600160a01b031614156118705760019150611882565b8061187a8161427e565b91505061181c565b50806118a05760405162461bcd60e51b81526004016109d190614301565b60985460ff16156118c35760405162461bcd60e51b81526004016109d1906141ab565b6118d38484846000806000613046565b5050600160ca555050565b6118e6612697565b6001600160a01b03166119016066546001600160a01b031690565b6001600160a01b0316146119275760405162461bcd60e51b81526004016109d19061421d565b6101028190556040518181527f8335b9d95c5f85895bf6ed3f9d159211b514ab77f7e20509e553c657cfa39b4e906020015b60405180910390a150565b6060603880546109299061413f565b60fd546001600160a01b0316600090815260ff602081905260408220600301546112b8916114149116600a614404565b600080603560006119b2612697565b6001600160a01b0390811682526020808301939093526040918201600090812091881681529252902054905082811015611a3c5760405162461bcd60e51b815260206004820152602560248201527f45524332303a2064656372656173656420616c6c6f77616e63652062656c6f77604482015264207a65726f60d81b60648201526084016109d1565b611a50611a47612697565b858584036126a1565b5060019392505050565b6000610ada611a67612697565b84846124c9565b600054610100900460ff16611a895760005460ff1615611a8d565b303b155b611af05760405162461bcd60e51b815260206004820152602e60248201527f496e697469616c697a61626c653a20636f6e747261637420697320616c72656160448201526d191e481a5b9a5d1a585b1a5e995960921b60648201526084016109d1565b600054610100900460ff16158015611b12576000805461ffff19166101011790555b611b1a6133cf565b611b22613406565b611b2a61343d565b611b79604051806040016040528060118152602001704361736b205661756c7420546f6b656e7360781b8152506040518060400160405280600481526020016309a82a6960e31b81525061346c565b6000846001600160a01b031663313ce5676040518163ffffffff1660e01b815260040160206040518083038186803b158015611bb457600080fd5b505afa158015611bc8573d6000803e3d6000fd5b505050506040513d601f19601f82011682018060405250810190611bec91906142c6565b60ff1611611c325760405162461bcd60e51b815260206004820152601360248201527221494e56414c4944286261736541737365742960681b60448201526064016109d1565b6000836001600160a01b031663313ce5676040518163ffffffff1660e01b815260040160206040518083038186803b158015611c6d57600080fd5b505afa158015611c81573d6000803e3d6000fd5b505050506040513d601f19601f82011682018060405250810190611ca591906142c6565b60ff1611611cf55760405162461bcd60e51b815260206004820152601c60248201527f21494e56414c494428626173654173736574507269636546656564290000000060448201526064016109d1565b6001600160a01b03848116600081815260ff602090815260409182902080546001600160a01b031916948816949094178455815163313ce56760e01b8152915163313ce567926004808201939291829003018186803b158015611d5757600080fd5b505afa158015611d6b573d6000803e3d6000fd5b505050506040513d601f19601f82011682018060405250810190611d8f91906142c6565b8160030160006101000a81548160ff021916908360ff160217905550836001600160a01b031663313ce5676040518163ffffffff1660e01b815260040160206040518083038186803b158015611de457600080fd5b505afa158015611df8573d6000803e3d6000fd5b505050506040513d601f19601f82011682018060405250810190611e1c91906142c6565b6003820180546000196002850155600060019485018190556201000062ffff001990921661010060ff95909516850262ff000019161791909117909155815492830182559081527f45e010b9ae401e2eb71529478da8bd513a9bdc2d095a111e324f5b95c09ed87b90910180546001600160a01b03199081166001600160a01b0388811691821790935560fd80548316909117905560fe8054909116918516919091179055610102819055610103558015611edd576000805461ff00191690555b50505050565b600260ca541415611f065760405162461bcd60e51b81526004016109d190614174565b600260ca5560985460ff1615611f2e5760405162461bcd60e51b81526004016109d1906141ab565b611f398383836134a9565b5050600160ca5550565b611f4b612697565b6001600160a01b0316611f666066546001600160a01b031690565b6001600160a01b031614611f8c5760405162461bcd60e51b81526004016109d19061421d565b60fe80546001600160a01b0319166001600160a01b0383169081179091556040517f9e9a9a4a82acd1b28aab6bf1d43aad70ae6d290549c0d6183e2e91ebcdf5744190600090a250565b60006112b8613657565b6001600160a01b038116600090815260ff6020819052604090912060030154620100009004166120475760405162461bcd60e51b8152602060048201526012602482015271085054d4d15517d393d517d0531313d5d15160721b60448201526064016109d1565b60006101046000612056612697565b6001600160a01b03168152602081019190915260400160002080549091508390829060ff19166001838181111561208f5761208f613fcd565b02179055508054610100600160a81b0319166101006001600160a01b038416021781556120ba612697565b6001600160a01b03167f1d97f1da175e9fad2f79856dc3bb2ced51a7a3c6c62c366fa5f909579da4b16084846040516120f4929190614413565b60405180910390a2505050565b612109612697565b6001600160a01b03166121246066546001600160a01b031690565b6001600160a01b03161461214a5760405162461bcd60e51b81526004016109d19061421d565b603380546001600160a01b0319166001600160a01b0383161790556040516001600160a01b038216907f8c2bee8063bb4464870b7dfa415ebb2fe80bfa73ba20d6fbf0d42791274667ff90600090a250565b6000610ade8261248f565b6121af612697565b6001600160a01b03166121ca6066546001600160a01b031690565b6001600160a01b0316146121f05760405162461bcd60e51b81526004016109d19061421d565b6101038190556040518181527f1fe1f9ede5e74676189934337b4dd60f437c0f524b40a4c18400f040dd592adb90602001611959565b600260ca5414156122495760405162461bcd60e51b81526004016109d190614174565b600260ca5560985460ff16156122715760405162461bcd60e51b81526004016109d1906141ab565b611f3961227c612697565b84848461285e565b61228c612697565b6001600160a01b03166122a76066546001600160a01b031690565b6001600160a01b0316146122cd5760405162461bcd60e51b81526004016109d19061421d565b6001600160a01b0381166123325760405162461bcd60e51b815260206004820152602660248201527f4f776e61626c653a206e6577206f776e657220697320746865207a65726f206160448201526564647265737360d01b60648201526084016109d1565b61233b81612ff4565b50565b600260ca5414156123615760405162461bcd60e51b81526004016109d190614174565b600260ca5560985460ff16156123895760405162461bcd60e51b81526004016109d1906141ab565b6113c9612394612697565b83836134a9565b600260ca5414156123be5760405162461bcd60e51b81526004016109d190614174565b600260ca556000805b6101015481101561242d5761010181815481106123e6576123e6614252565b6000918252602090912001546001600160a01b0316612403612697565b6001600160a01b0316141561241b576001915061242d565b806124258161427e565b9150506123c7565b508061244b5760405162461bcd60e51b81526004016109d190614301565b60985460ff161561246e5760405162461bcd60e51b81526004016109d1906141ab565b61247d85858585600080613046565b5050600160ca55505050565b3b151590565b60008061249b60365490565b11156124c0576124a9613657565b6036546124b69084614439565b610ade9190614458565b5090565b919050565b6001600160a01b03831661252d5760405162461bcd60e51b815260206004820152602560248201527f45524332303a207472616e736665722066726f6d20746865207a65726f206164604482015264647265737360d81b60648201526084016109d1565b6001600160a01b03821661258f5760405162461bcd60e51b815260206004820152602360248201527f45524332303a207472616e7366657220746f20746865207a65726f206164647260448201526265737360e81b60648201526084016109d1565b6001600160a01b038316600090815260346020526040902054818110156126075760405162461bcd60e51b815260206004820152602660248201527f45524332303a207472616e7366657220616d6f756e7420657863656564732062604482015265616c616e636560d01b60648201526084016109d1565b6001600160a01b0380851660009081526034602052604080822085850390559185168152908120805484929061263e9084906142e9565b92505081905550826001600160a01b0316846001600160a01b03167fddf252ad1be2c89b69c2b068fc378daa952ba7f163c4a11628f55a4df523b3ef8460405161268a91815260200190565b60405180910390a3611edd565b60006112b8613760565b6001600160a01b0383166127035760405162461bcd60e51b8152602060048201526024808201527f45524332303a20617070726f76652066726f6d20746865207a65726f206164646044820152637265737360e01b60648201526084016109d1565b6001600160a01b0382166127645760405162461bcd60e51b815260206004820152602260248201527f45524332303a20617070726f766520746f20746865207a65726f206164647265604482015261737360f01b60648201526084016109d1565b6001600160a01b0383811660008181526035602090815260408083209487168084529482529182902085905590518481527f8c5be1e5ebec7d5bd14f71427d1e84f3dd0314c0f7b2291e5b200ac8c7c3b925910160405180910390a3505050565b60985460ff1661280e5760405162461bcd60e51b815260206004820152601460248201527314185d5cd8589b194e881b9bdd081c185d5cd95960621b60448201526064016109d1565b6098805460ff191690557f5db9ee0a495bf2e6ff9c91a7834c1ba4fdd244a5e8aa4e537bd38aeae4b073aa612841612697565b6040516001600160a01b03909116815260200160405180910390a1565b6001600160a01b038216600090815260ff6020819052604090912060030154620100009004166128c65760405162461bcd60e51b8152602060048201526013602482015272214e4f545f414c4c4f5745442861737365742960681b60448201526064016109d1565b6000811161290e5760405162461bcd60e51b815260206004820152601560248201527421494e56414c4944286173736574416d6f756e742960581b60448201526064016109d1565b6001600160a01b038216600090815260ff60205260409020600201548161293484612f51565b61293e91906142e9565b11156129845760405162461bcd60e51b8152602060048201526015602482015274214445504f5349545f4c494d49542861737365742960581b60448201526064016109d1565b60fd5481906001600160a01b038481169116146129fc576001600160a01b038316600090815260ff602052604081206001810154909190612710906129c99086614439565b6129d39190614458565b60fd549091506129f79086906001600160a01b03166129f28488614299565b612b07565b925050505b61010254811015612a3e5760405162461bcd60e51b815260206004820152600c60248201526b0853525397d1115413d4d25560a21b60448201526064016109d1565b806000612a4a60365490565b1115612a8f57612a58613657565b6001612a6360365490565b612a6d9085614439565b612a779190614299565b612a819190614458565b612a8c9060016142e9565b90505b612aa46001600160a01b038516873086613794565b612aae85826137ff565b60408051848152602081018490529081018290526001600160a01b0380861691908716907fbef68d45f01f5e2c114616dc4840e7a543da6ec57afc5700e4be96056a899b4e9060600160405180910390a3505050505050565b6000826001600160a01b0316846001600160a01b03161415612b595760405162461bcd60e51b815260206004820152600b60248201526a0854d0535157d054d4d15560aa1b60448201526064016109d1565b6001600160a01b03848116600090815260ff602052604090205416612bb65760405162461bcd60e51b815260206004820152601360248201527221494e56414c49442866726f6d41737365742960681b60448201526064016109d1565b6001600160a01b03838116600090815260ff602052604090205416612c155760405162461bcd60e51b8152602060048201526015602482015274214e4f545f414c4c4f57454428746f41737365742960581b60448201526064016109d1565b81612c22575060006111d2565b6001600160a01b03808516600090815260ff6020526040808220548151633fabe5a360e21b815291519293849391169163feaf968c9160048083019260a0929190829003018186803b158015612c7757600080fd5b505afa158015612c8b573d6000803e3d6000fd5b505050506040513d601f19601f82011682018060405250810190612caf9190614494565b50610103549295509350849250501580612cd5575061010354612cd28342614299565b11155b612d135760405162461bcd60e51b815260206004820152600f60248201526e0854149250d157d3d5551110551151608a1b60448201526064016109d1565b6001600160a01b03808716600090815260ff602052604090819020548151633fabe5a360e21b8152915192169163feaf968c9160048082019260a092909190829003018186803b158015612d6657600080fd5b505afa158015612d7a573d6000803e3d6000fd5b505050506040513d601f19601f82011682018060405250810190612d9e9190614494565b50610103549296509450859250501580612dc4575061010354612dc18442614299565b11155b612e025760405162461bcd60e51b815260206004820152600f60248201526e0854149250d157d3d5551110551151608a1b60448201526064016109d1565b6001600160a01b03808816600090815260ff60208190526040808320600390810154948d16845292209091015461010090819004821692041614612f11576001600160a01b038716600090815260ff6020819052604090912060030154612e739183916101008104821691166138de565b6001600160a01b03808a16600090815260ff60208190526040808320600390810154948d168452922090910154612eb5928692610100909104811691166138de565b6001600160a01b03808b16600090815260ff60208190526040808320600390810154948e168452922090910154612ef2928b9290811691166138de565b612efc9190614439565b612f069190614458565b9450505050506111d2565b6001600160a01b03808916600090815260ff60208190526040808320600390810154948c16845292209091015483928592612ef2928b92821691166138de565b6040516370a0823160e01b81523060048201526000906001600160a01b038316906370a082319060240160206040518083038186803b158015612f9357600080fd5b505afa158015612fa7573d6000803e3d6000fd5b505050506040513d601f19601f82011682018060405250810190610ade91906144e4565b6000612fd660365490565b612fde575090565b60365482612fea613657565b6124b69190614439565b606680546001600160a01b038381166001600160a01b0319831681179093556040519116919082907f8be0079c531659141344cd1fd0a4f28419497f9722a3daafe3b4186f6b6457e090600090a35050565b61305081846142e9565b841161308f5760405162461bcd60e51b815260206004820152600e60248201526d2156414c55455f544f4f5f4c4f5760901b60448201526064016109d1565b6001600160a01b0386166000908152610104602052604080822081518083019092528054829060ff1660018111156130c9576130c9613fcd565b60018111156130da576130da613fcd565b8152905461010090046001600160a01b0316602090910152905060018151600181111561310957613109613fcd565b141561321a5760fd54602082015186916001600160a01b03918216911614613204576020808301516001600160a01b0316600090815260ff91829052604090206003810154909162010000909104166131a45760405162461bcd60e51b815260206004820152601a60248201527f214e4f545f414c4c4f5745442866756e64696e6741737365742900000000000060448201526064016109d1565b60fd5460208401516131c0916001600160a01b03169089612b07565b6001820154909250156132025760018101546131de90612710614299565b6131ea83612710614439565b6131f49190614458565b6131ff9060016142e9565b91505b505b613214888984602001518461285e565b5061327c565b60008151600181111561322f5761322f613fcd565b1461327c5760405162461bcd60e51b815260206004820152601760248201527f21494e56414c49442866756e64696e67536f757263652900000000000000000060448201526064016109d1565b60006132878661248f565b90506000851561329d5761329a8661248f565b90505b600080851180156132b657506001600160a01b03861615155b156132c7576132c48561248f565b90505b6132d28a8a856124c9565b81156132f05760fe546132f0908a906001600160a01b0316846124c9565b8015613301576133018987836124c9565b6040805189815260208101859052908101889052606081018390526080810186905260a081018290526001600160a01b03808816918b8216918d16907fe231cd9559a5a16d19e2bf003665b108bb05f45a7318361550754822be725a1d9060c00160405180910390a450505050505050505050565b60985460ff16156133995760405162461bcd60e51b81526004016109d1906141ab565b6098805460ff191660011790557f62e78cea01bee320cd4e420270b5ea74000d11b0c9f74754ebdbfc544b05a258612841612697565b600054610100900460ff166133f65760405162461bcd60e51b81526004016109d1906144fd565b6133fe61394f565b611362613976565b600054610100900460ff1661342d5760405162461bcd60e51b81526004016109d1906144fd565b61343561394f565b6113626139ad565b600054610100900460ff166134645760405162461bcd60e51b81526004016109d1906144fd565b6113626139e0565b600054610100900460ff166134935760405162461bcd60e51b81526004016109d1906144fd565b61349b61394f565b6134a58282613a0e565b5050565b6001600160a01b038216600090815260ff6020819052604090912060030154620100009004166135115760405162461bcd60e51b8152602060048201526013602482015272214e4f545f414c4c4f5745442861737365742960681b60448201526064016109d1565b6000811161355a5760405162461bcd60e51b815260206004820152601660248201527521494e56414c494428736861726573416d6f756e742960501b60448201526064016109d1565b600061356582612fcb565b9050613578613572612697565b83613a5c565b60fd5481906001600160a01b038581169116146135eb576001600160a01b03808516600090815260ff6020526040902060fd5490916135b991168685612b07565b915060006127108260010154846135d09190614439565b6135da9190614458565b90506135e68184614299565b925050505b6135ff6001600160a01b0385168683613baa565b60408051828152602081018490529081018490526001600160a01b0380861691908716907fc90b5405a6805d53680586ef15168b1d791e67ceebe68fa62eefdb81478763cc9060600160405180910390a35050505050565b600080805b610100548110156137555760fd5461010080546001600160a01b03909216918390811061368b5761368b614252565b6000918252602090912001546001600160a01b031614156136cc5760fd546136bb906001600160a01b0316612f51565b6136c590836142e9565b9150613743565b61373661010082815481106136e3576136e3614252565b60009182526020909120015460fd5461010080546001600160a01b0393841693909216916129f291908690811061371c5761371c614252565b6000918252602090912001546001600160a01b0316612f51565b61374090836142e9565b91505b8061374d8161427e565b91505061365c565b50919050565b505050565b60006014361080159061377d57506033546001600160a01b031633145b1561378f575060131936013560601c90565b503390565b6040516001600160a01b0380851660248301528316604482015260648101829052611edd9085906323b872dd60e01b906084015b60408051601f198184030181529190526020810180516001600160e01b03166001600160e01b031990931692909217909152613bda565b6001600160a01b0382166138555760405162461bcd60e51b815260206004820152601f60248201527f45524332303a206d696e7420746f20746865207a65726f20616464726573730060448201526064016109d1565b806036600082825461386791906142e9565b90915550506001600160a01b038216600090815260346020526040812080548392906138949084906142e9565b90915550506040518181526001600160a01b038316906000907fddf252ad1be2c89b69c2b068fc378daa952ba7f163c4a11628f55a4df523b3ef9060200160405180910390a35050565b60008160ff168360ff161015613917576138f88383614548565b6139069060ff16600a61456b565b6139109085614439565b90506111d2565b8160ff168360ff1611156139475761392f8284614548565b61393d9060ff16600a61456b565b6139109085614458565b509192915050565b600054610100900460ff166113625760405162461bcd60e51b81526004016109d1906144fd565b600054610100900460ff1661399d5760405162461bcd60e51b81526004016109d1906144fd565b6113626139a8612697565b612ff4565b600054610100900460ff166139d45760405162461bcd60e51b81526004016109d1906144fd565b6098805460ff19169055565b600054610100900460ff16613a075760405162461bcd60e51b81526004016109d1906144fd565b600160ca55565b600054610100900460ff16613a355760405162461bcd60e51b81526004016109d1906144fd565b8151613a48906037906020850190613db7565b50805161375b906038906020840190613db7565b6001600160a01b038216613abc5760405162461bcd60e51b815260206004820152602160248201527f45524332303a206275726e2066726f6d20746865207a65726f206164647265736044820152607360f81b60648201526084016109d1565b6001600160a01b03821660009081526034602052604090205481811015613b305760405162461bcd60e51b815260206004820152602260248201527f45524332303a206275726e20616d6f756e7420657863656564732062616c616e604482015261636560f01b60648201526084016109d1565b6001600160a01b0383166000908152603460205260408120838303905560368054849290613b5f908490614299565b90915550506040518281526000906001600160a01b038516907fddf252ad1be2c89b69c2b068fc378daa952ba7f163c4a11628f55a4df523b3ef9060200160405180910390a3505050565b6040516001600160a01b03831660248201526044810182905261375b90849063a9059cbb60e01b906064016137c8565b6000613c2f826040518060400160405280602081526020017f5361666545524332303a206c6f772d6c6576656c2063616c6c206661696c6564815250856001600160a01b0316613cac9092919063ffffffff16565b80519091501561375b5780806020019051810190613c4d9190614577565b61375b5760405162461bcd60e51b815260206004820152602a60248201527f5361666545524332303a204552433230206f7065726174696f6e20646964206e6044820152691bdd081cdd58d8d9595960b21b60648201526084016109d1565b60606113df848460008585843b613d055760405162461bcd60e51b815260206004820152601d60248201527f416464726573733a2063616c6c20746f206e6f6e2d636f6e747261637400000060448201526064016109d1565b600080866001600160a01b03168587604051613d219190614599565b60006040518083038185875af1925050503d8060008114613d5e576040519150601f19603f3d011682016040523d82523d6000602084013e613d63565b606091505b5091509150613d73828286613d7e565b979650505050505050565b60608315613d8d5750816111d2565b825115613d9d5782518084602001fd5b8160405162461bcd60e51b81526004016109d19190613e73565b828054613dc39061413f565b90600052602060002090601f016020900481019282613de55760008555613e2b565b82601f10613dfe57805160ff1916838001178555613e2b565b82800160010185558215613e2b579182015b82811115613e2b578251825591602001919060010190613e10565b506124c09291505b808211156124c05760008155600101613e33565b60005b83811015613e62578181015183820152602001613e4a565b83811115611edd5750506000910152565b6020815260008251806020840152613e92816040850160208701613e47565b601f01601f19169190910160400192915050565b80356001600160a01b03811681146124c457600080fd5b600080600060608486031215613ed257600080fd5b613edb84613ea6565b9250613ee960208501613ea6565b9150604084013590509250925092565b60008060408385031215613f0c57600080fd5b613f1583613ea6565b946020939093013593505050565b600060208284031215613f3557600080fd5b6111d282613ea6565b60008060008060808587031215613f5457600080fd5b613f5d85613ea6565b9350613f6b60208601613ea6565b93969395505050506040820135916060013590565b6020808252825182820181905260009190848201906040850190845b81811015613fc15783516001600160a01b031683529284019291840191600101613f9c565b50909695505050505050565b634e487b7160e01b600052602160045260246000fd5b6002811061400157634e487b7160e01b600052602160045260246000fd5b9052565b6000604082019050614018828451613fe3565b6020928301516001600160a01b0316919092015290565b60008060008060008060c0878903121561404857600080fd5b61405187613ea6565b955061405f60208801613ea6565b9450604087013593506060870135925061407b60808801613ea6565b915060a087013590509295509295509295565b6000602082840312156140a057600080fd5b5035919050565b6000806000606084860312156140bc57600080fd5b6140c584613ea6565b92506140d360208501613ea6565b91506140e160408501613ea6565b90509250925092565b600080604083850312156140fd57600080fd5b82356002811061410c57600080fd5b915061411a60208401613ea6565b90509250929050565b6000806040838503121561413657600080fd5b61410c83613ea6565b600181811c9082168061415357607f821691505b6020821081141561375557634e487b7160e01b600052602260045260246000fd5b6020808252601f908201527f5265656e7472616e637947756172643a207265656e7472616e742063616c6c00604082015260600190565b60208082526010908201526f14185d5cd8589b194e881c185d5cd95960821b604082015260600190565b60208082526028908201527f45524332303a207472616e7366657220616d6f756e74206578636565647320616040820152676c6c6f77616e636560c01b606082015260800190565b6020808252818101527f4f776e61626c653a2063616c6c6572206973206e6f7420746865206f776e6572604082015260600190565b634e487b7160e01b600052603260045260246000fd5b634e487b7160e01b600052601160045260246000fd5b600060001982141561429257614292614268565b5060010190565b6000828210156142ab576142ab614268565b500390565b634e487b7160e01b600052603160045260246000fd5b6000602082840312156142d857600080fd5b815160ff811681146111d257600080fd5b600082198211156142fc576142fc614268565b500190565b60208082526005908201526404282aaa8960db1b604082015260600190565b600181815b8085111561435b57816000190482111561434157614341614268565b8085161561434e57918102915b93841c9390800290614325565b509250929050565b60008261437257506001610ade565b8161437f57506000610ade565b8160018114614395576002811461439f576143bb565b6001915050610ade565b60ff8411156143b0576143b0614268565b50506001821b610ade565b5060208310610133831016604e8410600b84101617156143de575081810a610ade565b6143e88383614320565b80600019048211156143fc576143fc614268565b029392505050565b60006111d260ff841683614363565b604081016144218285613fe3565b6001600160a01b039290921660209190910152919050565b600081600019048311821515161561445357614453614268565b500290565b60008261447557634e487b7160e01b600052601260045260246000fd5b500490565b805169ffffffffffffffffffff811681146124c457600080fd5b600080600080600060a086880312156144ac57600080fd5b6144b58661447a565b94506020860151935060408601519250606086015191506144d86080870161447a565b90509295509295909350565b6000602082840312156144f657600080fd5b5051919050565b6020808252602b908201527f496e697469616c697a61626c653a20636f6e7472616374206973206e6f74206960408201526a6e697469616c697a696e6760a81b606082015260800190565b600060ff821660ff84168082101561456257614562614268565b90039392505050565b60006111d28383614363565b60006020828403121561458957600080fd5b815180151581146111d257600080fd5b600082516145ab818460208701613e47565b919091019291505056fea26469706673582212208b0eac9c5f152988da1aef341b6b578a1ab811b9e98c37b14aef6f929ad55dc164736f6c63430008090033",
  "linkReferences": {},
  "deployedLinkReferences": {}
}