{
  "_format": "hh-sol-artifact-1",
  "contractName": "CaskChainlinkTopup",
  "sourceName": "contracts/chainlink_topup/CaskChainlinkTopup.sol",
  "abi": [
    {
      "inputs": [],
      "stateMutability": "nonpayable",
      "type": "constructor"
    },
    {
      "anonymous": false,
      "inputs": [
        {
          "indexed": true,
          "internalType": "bytes32",
          "name": "chainlinkTopupId",
          "type": "bytes32"
        },
        {
          "indexed": true,
          "internalType": "address",
          "name": "user",
          "type": "address"
        },
        {
          "indexed": false,
          "internalType": "uint256",
          "name": "targetId",
          "type": "uint256"
        },
        {
          "indexed": false,
          "internalType": "address",
          "name": "registry",
          "type": "address"
        },
        {
          "indexed": false,
          "internalType": "enum ICaskChainlinkTopup.TopupType",
          "name": "topupType",
          "type": "uint8"
        }
      ],
      "name": "ChainlinkTopupCanceled",
      "type": "event"
    },
    {
      "anonymous": false,
      "inputs": [
        {
          "indexed": true,
          "internalType": "bytes32",
          "name": "chainlinkTopupId",
          "type": "bytes32"
        },
        {
          "indexed": true,
          "internalType": "address",
          "name": "user",
          "type": "address"
        },
        {
          "indexed": false,
          "internalType": "uint256",
          "name": "lowBalance",
          "type": "uint256"
        },
        {
          "indexed": false,
          "internalType": "uint256",
          "name": "topupAmount",
          "type": "uint256"
        },
        {
          "indexed": false,
          "internalType": "uint256",
          "name": "targetId",
          "type": "uint256"
        },
        {
          "indexed": false,
          "internalType": "address",
          "name": "registry",
          "type": "address"
        },
        {
          "indexed": false,
          "internalType": "enum ICaskChainlinkTopup.TopupType",
          "name": "topupType",
          "type": "uint8"
        }
      ],
      "name": "ChainlinkTopupCreated",
      "type": "event"
    },
    {
      "anonymous": false,
      "inputs": [
        {
          "indexed": true,
          "internalType": "bytes32",
          "name": "chainlinkTopupId",
          "type": "bytes32"
        },
        {
          "indexed": true,
          "internalType": "address",
          "name": "user",
          "type": "address"
        },
        {
          "indexed": false,
          "internalType": "uint256",
          "name": "targetId",
          "type": "uint256"
        },
        {
          "indexed": false,
          "internalType": "address",
          "name": "registry",
          "type": "address"
        },
        {
          "indexed": false,
          "internalType": "enum ICaskChainlinkTopup.TopupType",
          "name": "topupType",
          "type": "uint8"
        }
      ],
      "name": "ChainlinkTopupPaused",
      "type": "event"
    },
    {
      "anonymous": false,
      "inputs": [
        {
          "indexed": true,
          "internalType": "bytes32",
          "name": "chainlinkTopupId",
          "type": "bytes32"
        },
        {
          "indexed": true,
          "internalType": "address",
          "name": "user",
          "type": "address"
        },
        {
          "indexed": false,
          "internalType": "uint256",
          "name": "targetId",
          "type": "uint256"
        },
        {
          "indexed": false,
          "internalType": "address",
          "name": "registry",
          "type": "address"
        },
        {
          "indexed": false,
          "internalType": "enum ICaskChainlinkTopup.TopupType",
          "name": "topupType",
          "type": "uint8"
        },
        {
          "indexed": false,
          "internalType": "uint256",
          "name": "amount",
          "type": "uint256"
        },
        {
          "indexed": false,
          "internalType": "uint256",
          "name": "buyQty",
          "type": "uint256"
        },
        {
          "indexed": false,
          "internalType": "uint256",
          "name": "fee",
          "type": "uint256"
        }
      ],
      "name": "ChainlinkTopupProcessed",
      "type": "event"
    },
    {
      "anonymous": false,
      "inputs": [
        {
          "indexed": true,
          "internalType": "bytes32",
          "name": "chainlinkTopupId",
          "type": "bytes32"
        },
        {
          "indexed": true,
          "internalType": "address",
          "name": "user",
          "type": "address"
        },
        {
          "indexed": false,
          "internalType": "uint256",
          "name": "targetId",
          "type": "uint256"
        },
        {
          "indexed": false,
          "internalType": "address",
          "name": "registry",
          "type": "address"
        },
        {
          "indexed": false,
          "internalType": "enum ICaskChainlinkTopup.TopupType",
          "name": "topupType",
          "type": "uint8"
        }
      ],
      "name": "ChainlinkTopupResumed",
      "type": "event"
    },
    {
      "anonymous": false,
      "inputs": [
        {
          "indexed": true,
          "internalType": "bytes32",
          "name": "chainlinkTopupId",
          "type": "bytes32"
        },
        {
          "indexed": true,
          "internalType": "address",
          "name": "user",
          "type": "address"
        },
        {
          "indexed": false,
          "internalType": "uint256",
          "name": "targetId",
          "type": "uint256"
        },
        {
          "indexed": false,
          "internalType": "address",
          "name": "registry",
          "type": "address"
        },
        {
          "indexed": false,
          "internalType": "enum ICaskChainlinkTopup.TopupType",
          "name": "topupType",
          "type": "uint8"
        },
        {
          "indexed": false,
          "internalType": "enum ICaskChainlinkTopup.SkipReason",
          "name": "skipReason",
          "type": "uint8"
        }
      ],
      "name": "ChainlinkTopupSkipped",
      "type": "event"
    },
    {
      "anonymous": false,
      "inputs": [
        {
          "indexed": true,
          "internalType": "address",
          "name": "previousOwner",
          "type": "address"
        },
        {
          "indexed": true,
          "internalType": "address",
          "name": "newOwner",
          "type": "address"
        }
      ],
      "name": "OwnershipTransferred",
      "type": "event"
    },
    {
      "anonymous": false,
      "inputs": [
        {
          "indexed": false,
          "internalType": "address",
          "name": "account",
          "type": "address"
        }
      ],
      "name": "Paused",
      "type": "event"
    },
    {
      "anonymous": false,
      "inputs": [
        {
          "indexed": false,
          "internalType": "address",
          "name": "account",
          "type": "address"
        }
      ],
      "name": "Unpaused",
      "type": "event"
    },
    {
      "inputs": [
        {
          "internalType": "uint256",
          "name": "",
          "type": "uint256"
        }
      ],
      "name": "backfillGroups",
      "outputs": [
        {
          "internalType": "uint256",
          "name": "",
          "type": "uint256"
        }
      ],
      "stateMutability": "view",
      "type": "function"
    },
    {
      "inputs": [
        {
          "internalType": "bytes32",
          "name": "_chainlinkTopupId",
          "type": "bytes32"
        }
      ],
      "name": "cancelChainlinkTopup",
      "outputs": [],
      "stateMutability": "nonpayable",
      "type": "function"
    },
    {
      "inputs": [],
      "name": "chainlinkTopupManager",
      "outputs": [
        {
          "internalType": "contract ICaskChainlinkTopupManager",
          "name": "",
          "type": "address"
        }
      ],
      "stateMutability": "view",
      "type": "function"
    },
    {
      "inputs": [
        {
          "internalType": "uint256",
          "name": "_lowBalance",
          "type": "uint256"
        },
        {
          "internalType": "uint256",
          "name": "_topupAmount",
          "type": "uint256"
        },
        {
          "internalType": "uint256",
          "name": "_targetId",
          "type": "uint256"
        },
        {
          "internalType": "address",
          "name": "_registry",
          "type": "address"
        },
        {
          "internalType": "enum ICaskChainlinkTopup.TopupType",
          "name": "_topupType",
          "type": "uint8"
        }
      ],
      "name": "createChainlinkTopup",
      "outputs": [
        {
          "internalType": "bytes32",
          "name": "",
          "type": "bytes32"
        }
      ],
      "stateMutability": "nonpayable",
      "type": "function"
    },
    {
      "inputs": [],
      "name": "currentGroup",
      "outputs": [
        {
          "internalType": "uint256",
          "name": "",
          "type": "uint256"
        }
      ],
      "stateMutability": "view",
      "type": "function"
    },
    {
      "inputs": [
        {
          "internalType": "bytes32",
          "name": "_chainlinkTopupId",
          "type": "bytes32"
        }
      ],
      "name": "getChainlinkTopup",
      "outputs": [
        {
          "components": [
            {
              "internalType": "address",
              "name": "user",
              "type": "address"
            },
            {
              "internalType": "uint256",
              "name": "groupId",
              "type": "uint256"
            },
            {
              "internalType": "uint256",
              "name": "lowBalance",
              "type": "uint256"
            },
            {
              "internalType": "uint256",
              "name": "topupAmount",
              "type": "uint256"
            },
            {
              "internalType": "uint256",
              "name": "currentAmount",
              "type": "uint256"
            },
            {
              "internalType": "uint256",
              "name": "currentBuyQty",
              "type": "uint256"
            },
            {
              "internalType": "uint256",
              "name": "numTopups",
              "type": "uint256"
            },
            {
              "internalType": "uint256",
              "name": "numSkips",
              "type": "uint256"
            },
            {
              "internalType": "uint32",
              "name": "createdAt",
              "type": "uint32"
            },
            {
              "internalType": "uint256",
              "name": "targetId",
              "type": "uint256"
            },
            {
              "internalType": "address",
              "name": "registry",
              "type": "address"
            },
            {
              "internalType": "enum ICaskChainlinkTopup.TopupType",
              "name": "topupType",
              "type": "uint8"
            },
            {
              "internalType": "enum ICaskChainlinkTopup.ChainlinkTopupStatus",
              "name": "status",
              "type": "uint8"
            },
            {
              "internalType": "uint32",
              "name": "retryAfter",
              "type": "uint32"
            }
          ],
          "internalType": "struct ICaskChainlinkTopup.ChainlinkTopup",
          "name": "",
          "type": "tuple"
        }
      ],
      "stateMutability": "view",
      "type": "function"
    },
    {
      "inputs": [
        {
          "internalType": "uint256",
          "name": "_chainlinkTopupGroupId",
          "type": "uint256"
        }
      ],
      "name": "getChainlinkTopupGroup",
      "outputs": [
        {
          "components": [
            {
              "internalType": "bytes32[]",
              "name": "chainlinkTopups",
              "type": "bytes32[]"
            }
          ],
          "internalType": "struct ICaskChainlinkTopup.ChainlinkTopupGroup",
          "name": "",
          "type": "tuple"
        }
      ],
      "stateMutability": "view",
      "type": "function"
    },
    {
      "inputs": [
        {
          "internalType": "address",
          "name": "_user",
          "type": "address"
        },
        {
          "internalType": "uint256",
          "name": "_idx",
          "type": "uint256"
        }
      ],
      "name": "getUserChainlinkTopup",
      "outputs": [
        {
          "internalType": "bytes32",
          "name": "",
          "type": "bytes32"
        }
      ],
      "stateMutability": "view",
      "type": "function"
    },
    {
      "inputs": [
        {
          "internalType": "address",
          "name": "_user",
          "type": "address"
        }
      ],
      "name": "getUserChainlinkTopupCount",
      "outputs": [
        {
          "internalType": "uint256",
          "name": "",
          "type": "uint256"
        }
      ],
      "stateMutability": "view",
      "type": "function"
    },
    {
      "inputs": [],
      "name": "groupSize",
      "outputs": [
        {
          "internalType": "uint256",
          "name": "",
          "type": "uint256"
        }
      ],
      "stateMutability": "view",
      "type": "function"
    },
    {
      "inputs": [
        {
          "internalType": "uint256",
          "name": "_groupSize",
          "type": "uint256"
        }
      ],
      "name": "initialize",
      "outputs": [],
      "stateMutability": "nonpayable",
      "type": "function"
    },
    {
      "inputs": [
        {
          "internalType": "address",
          "name": "forwarder",
          "type": "address"
        }
      ],
      "name": "isTrustedForwarder",
      "outputs": [
        {
          "internalType": "bool",
          "name": "",
          "type": "bool"
        }
      ],
      "stateMutability": "view",
      "type": "function"
    },
    {
      "inputs": [
        {
          "internalType": "bytes32",
          "name": "_chainlinkTopupId",
          "type": "bytes32"
        },
        {
          "internalType": "enum ICaskChainlinkTopup.ManagerCommand",
          "name": "_command",
          "type": "uint8"
        }
      ],
      "name": "managerCommand",
      "outputs": [],
      "stateMutability": "nonpayable",
      "type": "function"
    },
    {
      "inputs": [
        {
          "internalType": "bytes32",
          "name": "_chainlinkTopupId",
          "type": "bytes32"
        },
        {
          "internalType": "uint256",
          "name": "_amount",
          "type": "uint256"
        },
        {
          "internalType": "uint256",
          "name": "_buyQty",
          "type": "uint256"
        },
        {
          "internalType": "uint256",
          "name": "_fee",
          "type": "uint256"
        }
      ],
      "name": "managerProcessed",
      "outputs": [],
      "stateMutability": "nonpayable",
      "type": "function"
    },
    {
      "inputs": [
        {
          "internalType": "bytes32",
          "name": "_chainlinkTopupId",
          "type": "bytes32"
        },
        {
          "internalType": "uint32",
          "name": "_retryAfter",
          "type": "uint32"
        },
        {
          "internalType": "enum ICaskChainlinkTopup.SkipReason",
          "name": "_skipReason",
          "type": "uint8"
        }
      ],
      "name": "managerSkipped",
      "outputs": [],
      "stateMutability": "nonpayable",
      "type": "function"
    },
    {
      "inputs": [],
      "name": "minTopupAmount",
      "outputs": [
        {
          "internalType": "uint256",
          "name": "",
          "type": "uint256"
        }
      ],
      "stateMutability": "view",
      "type": "function"
    },
    {
      "inputs": [],
      "name": "owner",
      "outputs": [
        {
          "internalType": "address",
          "name": "",
          "type": "address"
        }
      ],
      "stateMutability": "view",
      "type": "function"
    },
    {
      "inputs": [],
      "name": "pause",
      "outputs": [],
      "stateMutability": "nonpayable",
      "type": "function"
    },
    {
      "inputs": [
        {
          "internalType": "bytes32",
          "name": "_chainlinkTopupId",
          "type": "bytes32"
        }
      ],
      "name": "pauseChainlinkTopup",
      "outputs": [],
      "stateMutability": "nonpayable",
      "type": "function"
    },
    {
      "inputs": [],
      "name": "paused",
      "outputs": [
        {
          "internalType": "bool",
          "name": "",
          "type": "bool"
        }
      ],
      "stateMutability": "view",
      "type": "function"
    },
    {
      "inputs": [],
      "name": "renounceOwnership",
      "outputs": [],
      "stateMutability": "nonpayable",
      "type": "function"
    },
    {
      "inputs": [
        {
          "internalType": "bytes32",
          "name": "_chainlinkTopupId",
          "type": "bytes32"
        }
      ],
      "name": "resumeChainlinkTopup",
      "outputs": [],
      "stateMutability": "nonpayable",
      "type": "function"
    },
    {
      "inputs": [
        {
          "internalType": "address",
          "name": "_chainlinkTopupManager",
          "type": "address"
        }
      ],
      "name": "setManager",
      "outputs": [],
      "stateMutability": "nonpayable",
      "type": "function"
    },
    {
      "inputs": [
        {
          "internalType": "uint256",
          "name": "_minTopupAmount",
          "type": "uint256"
        }
      ],
      "name": "setMinTopupAmount",
      "outputs": [],
      "stateMutability": "nonpayable",
      "type": "function"
    },
    {
      "inputs": [
        {
          "internalType": "address",
          "name": "_forwarder",
          "type": "address"
        }
      ],
      "name": "setTrustedForwarder",
      "outputs": [],
      "stateMutability": "nonpayable",
      "type": "function"
    },
    {
      "inputs": [
        {
          "internalType": "address",
          "name": "newOwner",
          "type": "address"
        }
      ],
      "name": "transferOwnership",
      "outputs": [],
      "stateMutability": "nonpayable",
      "type": "function"
    },
    {
      "inputs": [],
      "name": "trustedForwarder",
      "outputs": [
        {
          "internalType": "address",
          "name": "",
          "type": "address"
        }
      ],
      "stateMutability": "view",
      "type": "function"
    },
    {
      "inputs": [],
      "name": "unpause",
      "outputs": [],
      "stateMutability": "nonpayable",
      "type": "function"
    },
    {
      "inputs": [],
      "name": "versionRecipient",
      "outputs": [
        {
          "internalType": "string",
          "name": "",
          "type": "string"
        }
      ],
      "stateMutability": "pure",
      "type": "function"
    }
  ],
  "bytecode": "0x60806040523480156200001157600080fd5b50600054610100900460ff166200002f5760005460ff161562000039565b62000039620000de565b620000a15760405162461bcd60e51b815260206004820152602e60248201527f496e697469616c697a61626c653a20636f6e747261637420697320616c72656160448201526d191e481a5b9a5d1a585b1a5e995960921b606482015260840160405180910390fd5b600054610100900460ff16158015620000c4576000805461ffff19166101011790555b8015620000d7576000805461ff00191690555b5062000102565b6000620000f630620000fc60201b620015ca1760201c565b15905090565b3b151590565b61216480620001126000396000f3fe608060405234801561001057600080fd5b50600436106101cf5760003560e01c80639d44ac9411610104578063cb3e5eca116100a2578063da74222811610071578063da742228146103f0578063f19d6a4d14610403578063f2fde38b14610416578063fe4b84df1461042957600080fd5b8063cb3e5eca146103a4578063d0ebdbe7146103b7578063d4c359da146103ca578063d89816bb146103dd57600080fd5b8063aa5bd0a2116100de578063aa5bd0a21461033e578063b4cbc9e41461035e578063ba844dc914610371578063c68f5eb31461038457600080fd5b80639d44ac941461030f578063a00b774214610322578063a3d5b5591461032b57600080fd5b806363b635ea11610171578063715018a61161014b578063715018a6146102c95780637da0a877146102d15780638456cb59146102f65780638da5cb5b146102fe57600080fd5b806363b635ea1461028457806367594c6c1461028d5780636f978f6c146102b657600080fd5b8063486ff0cd116101ad578063486ff0cd1461020d578063572b6c05146102345780635ba581cd146102665780635c975abb1461027957600080fd5b80630d4d98a5146101d45780630dff2d0c146101e95780633f4ba83a14610205575b600080fd5b6101e76101e2366004611bc8565b61043c565b005b6101f2609e5481565b6040519081526020015b60405180910390f35b6101e7610530565b60408051808201825260058152640322e322e360dc1b602082015290516101fc9190611c13565b610256610242366004611c7f565b6097546001600160a01b0391821691161490565b60405190151581526020016101fc565b6101e7610274366004611ca1565b610583565b60655460ff16610256565b6101f2609f5481565b6101f261029b366004611c7f565b6001600160a01b03166000908152609a602052604090205490565b6101f26102c4366004611cd1565b6106ff565b6101e761073c565b6097546001600160a01b03165b6040516001600160a01b0390911681526020016101fc565b6101e761078f565b6033546001600160a01b03166102de565b6101e761031d366004611cfb565b6107e0565b6101f2609c5481565b6101f2610339366004611cfb565b610906565b61035161034c366004611cfb565b610927565b6040516101fc9190611d14565b6101e761036c366004611d64565b6109a0565b6101e761037f366004611cfb565b610ab9565b610397610392366004611cfb565b610c4a565b6040516101fc9190611dc9565b6098546102de906001600160a01b031681565b6101e76103c5366004611c7f565b610d80565b6101e76103d8366004611cfb565b610deb565b6101e76103eb366004611cfb565b610f40565b6101e76103fe366004611c7f565b610f8e565b6101f2610411366004611e99565b610ff8565b6101e7610424366004611c7f565b61143f565b6101e7610437366004611cfb565b6114f6565b6098546001600160a01b03166104506115d0565b6001600160a01b03161461047f5760405162461bcd60e51b815260040161047690611ef1565b60405180910390fd5b6000838152609960205260408120600a8101805463ffffffff60b01b1916600160b01b63ffffffff87160217905560078101805491926001926104c3908490611f26565b909155505080546009820154600a8301546040516001600160a01b039384169388937e374955e503c1cb80274d04743ac516c7954db106b4f57f594b216b75e0ad8593610522939192811691600160a01b90910460ff16908990611f3e565b60405180910390a350505050565b6105386115d0565b6001600160a01b03166105536033546001600160a01b031690565b6001600160a01b0316146105795760405162461bcd60e51b815260040161047690611f82565b6105816115df565b565b6098546001600160a01b03166105976115d0565b6001600160a01b0316146105bd5760405162461bcd60e51b815260040161047690611ef1565b600082815260996020526040902060028260028111156105df576105df611d96565b141561066957600a8101805460ff60a81b1916600160a91b17905561060383611678565b80546009820154600a8301546040516001600160a01b039384169387937fde6232c9da3e9160ca0f56ea30d25de77f313c765456b2f059566bae7ddddb4e9361065c939192811691600160a01b90910460ff1690611fb7565b60405180910390a3505050565b600182600281111561067d5761067d611d96565b14156106fa57600a8101805460ff60a81b1916600360a81b1790556106a183611678565b80546009820154600a8301546040516001600160a01b039384169387937f27edcd358ef2b53bc526b57370e2e080ffa9c6e3d6fd210e390b05ac82b4db419361065c939192811691600160a01b90910460ff1690611fb7565b505050565b6001600160a01b0382166000908152609a6020526040812080548390811061072957610729611fe4565b9060005260206000200154905092915050565b6107446115d0565b6001600160a01b031661075f6033546001600160a01b031690565b6001600160a01b0316146107855760405162461bcd60e51b815260040161047690611f82565b61058160006117d5565b6107976115d0565b6001600160a01b03166107b26033546001600160a01b031690565b6001600160a01b0316146107d85760405162461bcd60e51b815260040161047690611f82565b610581611827565b60008181526099602052604090205481906001600160a01b03166108026115d0565b6001600160a01b0316146108285760405162461bcd60e51b815260040161047690611ef1565b60008281526099602052604090206001600a820154600160a81b900460ff16600381111561085857610858611d96565b146108935760405162461bcd60e51b815260206004820152600b60248201526a214e4f545f41435449564560a81b6044820152606401610476565b61089c83611678565b600a8101805460ff60a81b198116600160a91b1791829055825460098401546040516001600160a01b039283169488947fde6232c9da3e9160ca0f56ea30d25de77f313c765456b2f059566bae7ddddb4e9461065c9493911691600160a01b900460ff1690611fb7565b609d818154811061091657600080fd5b600091825260209091200154905081565b6040805160208082018352606082526000848152609b82528390208351815480840282018601865292810183815293949093919284929184919084018282801561099057602002820191906000526020600020905b81548152602001906001019080831161097c575b5050505050815250509050919050565b6098546001600160a01b03166109b46115d0565b6001600160a01b0316146109da5760405162461bcd60e51b815260040161047690611ef1565b6000848152609960205260408120600a8101805463ffffffff60b01b1916905560048101805491928692610a0f908490611f26565b9250508190555082816005016000828254610a2a9190611f26565b925050819055506001816006016000828254610a469190611f26565b909155505080546009820154600a8301546040516001600160a01b039384169389937f18b6d1bde03ff595fa39cebb5f8528d44bcbd97f09a8d99a9ed966e5b8cc1e5293610aaa939192811691600160a01b90910460ff16908b908b908b90611ffa565b60405180910390a35050505050565b60008181526099602052604090205481906001600160a01b0316610adb6115d0565b6001600160a01b031614610b015760405162461bcd60e51b815260040161047690611ef1565b60008281526099602052604090206002600a820154600160a81b900460ff166003811115610b3157610b31611d96565b14610b6c5760405162461bcd60e51b815260206004820152600b60248201526a085393d517d4105554d15160aa1b6044820152606401610476565b610b75836118a3565b60006007820155600a81018054600160a81b60ff60a81b1990911617905560985460405163e6cab67160e01b8152600481018590526001600160a01b039091169063e6cab67190602401600060405180830381600087803b158015610bd957600080fd5b505af1158015610bed573d6000803e3d6000fd5b505082546009840154600a8501546040516001600160a01b0393841695508894507ff357ce53e83696815ee1632d0f04267d8feff645a8b4f7c5befc32376b8997079361065c939290811691600160a01b90910460ff1690611fb7565b610c52611b23565b60008281526099602090815260409182902082516101c08101845281546001600160a01b039081168252600183015493820193909352600282015493810193909352600380820154606085015260048201546080850152600582015460a0850152600682015460c0850152600782015460e0850152600882015463ffffffff166101008501526009820154610120850152600a8201549283166101408501529091610160840191600160a01b90910460ff1690811115610d1457610d14611d96565b6003811115610d2557610d25611d96565b8152602001600a820160159054906101000a900460ff166003811115610d4d57610d4d611d96565b6003811115610d5e57610d5e611d96565b8152600a9190910154600160b01b900463ffffffff1660209091015292915050565b610d886115d0565b6001600160a01b0316610da36033546001600160a01b031690565b6001600160a01b031614610dc95760405162461bcd60e51b815260040161047690611f82565b609880546001600160a01b0319166001600160a01b0392909216919091179055565b60008181526099602052604090205481906001600160a01b0316610e0d6115d0565b6001600160a01b031614610e335760405162461bcd60e51b815260040161047690611ef1565b60008281526099602052604090206001600a820154600160a81b900460ff166003811115610e6357610e63611d96565b1480610e8e57506002600a820154600160a81b900460ff166003811115610e8c57610e8c611d96565b145b610ecd5760405162461bcd60e51b815260206004820152601060248201526f21494e56414c4944287374617475732960801b6044820152606401610476565b610ed683611678565b600a8101805460ff60a81b198116600360a81b1791829055825460098401546040516001600160a01b039283169488947f27edcd358ef2b53bc526b57370e2e080ffa9c6e3d6fd210e390b05ac82b4db419461065c9493911691600160a01b900460ff1690611fb7565b610f486115d0565b6001600160a01b0316610f636033546001600160a01b031690565b6001600160a01b031614610f895760405162461bcd60e51b815260040161047690611f82565b609e55565b610f966115d0565b6001600160a01b0316610fb16033546001600160a01b031690565b6001600160a01b031614610fd75760405162461bcd60e51b815260040161047690611f82565b609780546001600160a01b0319166001600160a01b03831617905550565b50565b6000609e548510156110445760405162461bcd60e51b815260206004820152601560248201527421494e56414c494428746f707570416d6f756e742960581b6044820152606401610476565b600182600381111561105857611058611d96565b14806110755750600282600381111561107357611073611d96565b145b806110915750600382600381111561108f5761108f611d96565b145b6110d35760405162461bcd60e51b815260206004820152601360248201527221494e56414c494428746f707570547970652960681b6044820152606401610476565b60038260038111156110e7576110e7611d96565b146111aa5760985460405163d5f59fb960e01b81526001600160a01b0385811660048301529091169063d5f59fb99060240160206040518083038186803b15801561113157600080fd5b505afa158015611145573d6000803e3d6000fd5b505050506040513d601f19601f82011682018060405250810190611169919061203c565b6111aa5760405162461bcd60e51b815260206004820152601260248201527121494e56414c49442872656769737472792960701b6044820152606401610476565b60006111b46115d0565b6040516bffffffffffffffffffffffff19606092831b81166020830152603482018890529186901b909116605482015243606882015242608882015260a80160408051601f1981840301815291815281516020928301206000818152609990935291209091506112226115d0565b81546001600160a01b03199081166001600160a01b03928316178355600283018a905560038084018a905560088401805463ffffffff19164263ffffffff1617905560098401899055600a840180549283169389169384178155879390926001600160a81b0319161790600160a01b9084908111156112a3576112a3611d96565b0217905550600a8101805460ff60a81b1916600160a81b179055609a60006112c96115d0565b6001600160a01b031681526020808201929092526040016000908120805460018101825590825291902001829055611300826118a3565b60985460405163e6cab67160e01b8152600481018490526001600160a01b039091169063e6cab67190602401600060405180830381600087803b15801561134657600080fd5b505af115801561135a573d6000803e3d6000fd5b5060019250611367915050565b600a820154600160a81b900460ff16600381111561138757611387611d96565b146113c55760405162461bcd60e51b815260206004820152600e60248201526d21554e50524f4345535341424c4560901b6044820152606401610476565b8054600282015460038301546009840154600a8501546040516001600160a01b039586169588957fe26548496d0e88951d526ea185b82864689467851bf69d0218e2cf1b949850269561142c95919490939192811691600160a01b90910460ff169061205e565b60405180910390a3509695505050505050565b6114476115d0565b6001600160a01b03166114626033546001600160a01b031690565b6001600160a01b0316146114885760405162461bcd60e51b815260040161047690611f82565b6001600160a01b0381166114ed5760405162461bcd60e51b815260206004820152602660248201527f4f776e61626c653a206e6577206f776e657220697320746865207a65726f206160448201526564647265737360d01b6064820152608401610476565b610ff5816117d5565b600054610100900460ff166115115760005460ff1615611515565b303b155b6115785760405162461bcd60e51b815260206004820152602e60248201527f496e697469616c697a61626c653a20636f6e747261637420697320616c72656160448201526d191e481a5b9a5d1a585b1a5e995960921b6064820152608401610476565b600054610100900460ff1615801561159a576000805461ffff19166101011790555b6115a261191f565b6115aa611956565b6001609c55609f82905580156115c6576000805461ff00191690555b5050565b3b151590565b60006115da61198d565b905090565b60655460ff166116285760405162461bcd60e51b815260206004820152601460248201527314185d5cd8589b194e881b9bdd081c185d5cd95960621b6044820152606401610476565b6065805460ff191690557f5db9ee0a495bf2e6ff9c91a7834c1ba4fdd244a5e8aa4e537bd38aeae4b073aa61165b6115d0565b6040516001600160a01b03909116815260200160405180910390a1565b60008181526099602090815260408083206001810154808552609b90935290832054909281905b828110156116f5576000848152609b602052604090208054879190839081106116ca576116ca611fe4565b906000526020600020015414156116e3578091506116f5565b806116ed8161209b565b91505061169f565b508181101561179c576000838152609b602052604090206117176001846120b6565b8154811061172757611727611fe4565b9060005260206000200154609b6000858152602001908152602001600020600001828154811061175957611759611fe4565b6000918252602080832090910192909255848152609b90915260409020805480611785576117856120cd565b600190038181906000526020600020016000905590555b5050609d80546001810182556000919091527fd26e832454299e9fabb89e0e5fffdc046d4e14431bc1bf607ffb2e8a1ddecf7b01555050565b603380546001600160a01b038381166001600160a01b0319831681179093556040519116919082907f8be0079c531659141344cd1fd0a4f28419497f9722a3daafe3b4186f6b6457e090600090a35050565b60655460ff161561186d5760405162461bcd60e51b815260206004820152601060248201526f14185d5cd8589b194e881c185d5cd95960821b6044820152606401610476565b6065805460ff191660011790557f62e78cea01bee320cd4e420270b5ea74000d11b0c9f74754ebdbfc544b05a25861165b6115d0565b60006118ad6119c1565b9050600081116118ee5760405162461bcd60e51b815260206004820152600c60248201526b10a3a927aaa82fa2a92927a960a11b6044820152606401610476565b60008281526099602090815260408083206001908101859055938352609b8252822080549384018155825290200155565b600054610100900460ff166119465760405162461bcd60e51b8152600401610476906120e3565b61194e611a92565b610581611ab9565b600054610100900460ff1661197d5760405162461bcd60e51b8152600401610476906120e3565b611985611a92565b610581611af0565b6000601436108015906119aa57506097546001600160a01b031633145b156119bc575060131936013560601c90565b503390565b609d54600090819015611a2757609d80546119de906001906120b6565b815481106119ee576119ee611fe4565b90600052602060002001549050609d805480611a0c57611a0c6120cd565b60019003818190600052602060002001600090559055611a2c565b50609c545b609c548114158015611a4e5750609f546000828152609b602052604090205410155b15611a585750609c545b609f546000828152609b602052604090205410611a8d576001609c6000828254611a829190611f26565b9091555050609c5490505b919050565b600054610100900460ff166105815760405162461bcd60e51b8152600401610476906120e3565b600054610100900460ff16611ae05760405162461bcd60e51b8152600401610476906120e3565b610581611aeb6115d0565b6117d5565b600054610100900460ff16611b175760405162461bcd60e51b8152600401610476906120e3565b6065805460ff19169055565b604051806101c0016040528060006001600160a01b0316815260200160008152602001600081526020016000815260200160008152602001600081526020016000815260200160008152602001600063ffffffff1681526020016000815260200160006001600160a01b0316815260200160006003811115611ba757611ba7611d96565b815260200160008152600060209091015290565b60038110610ff557600080fd5b600080600060608486031215611bdd57600080fd5b83359250602084013563ffffffff81168114611bf857600080fd5b91506040840135611c0881611bbb565b809150509250925092565b600060208083528351808285015260005b81811015611c4057858101830151858201604001528201611c24565b81811115611c52576000604083870101525b50601f01601f1916929092016040019392505050565b80356001600160a01b0381168114611a8d57600080fd5b600060208284031215611c9157600080fd5b611c9a82611c68565b9392505050565b60008060408385031215611cb457600080fd5b823591506020830135611cc681611bbb565b809150509250929050565b60008060408385031215611ce457600080fd5b611ced83611c68565b946020939093013593505050565b600060208284031215611d0d57600080fd5b5035919050565b6020808252825182820182905280516040840181905260009291820190839060608601905b80831015611d595783518252928401926001929092019190840190611d39565b509695505050505050565b60008060008060808587031215611d7a57600080fd5b5050823594602084013594506040840135936060013592509050565b634e487b7160e01b600052602160045260246000fd5b60048110610ff557610ff5611d96565b611dc581611dac565b9052565b81516001600160a01b031681526101c081016020830151602083015260408301516040830152606083015160608301526080830151608083015260a083015160a083015260c083015160c083015260e083015160e083015261010080840151611e398285018263ffffffff169052565b50506101208381015190830152610140808401516001600160a01b03169083015261016080840151611e6d82850182611dbc565b505061018080840151611e8282850182611dbc565b50506101a09283015163ffffffff16919092015290565b600080600080600060a08688031215611eb157600080fd5b853594506020860135935060408601359250611ecf60608701611c68565b9150608086013560048110611ee357600080fd5b809150509295509295909350565b60208082526005908201526404282aaa8960db1b604082015260600190565b634e487b7160e01b600052601160045260246000fd5b60008219821115611f3957611f39611f10565b500190565b8481526001600160a01b038416602082015260808101611f5d84611dac565b83604083015260038310611f7357611f73611d96565b82606083015295945050505050565b6020808252818101527f4f776e61626c653a2063616c6c6572206973206e6f7420746865206f776e6572604082015260600190565b8381526001600160a01b038316602082015260608101611fd683611dac565b826040830152949350505050565b634e487b7160e01b600052603260045260246000fd5b8681526001600160a01b038616602082015260c0810161201986611dac565b8560408301528460608301528360808301528260a0830152979650505050505050565b60006020828403121561204e57600080fd5b81518015158114611c9a57600080fd5b85815260208101859052604081018490526001600160a01b038316606082015260a0810161208b83611dac565b8260808301529695505050505050565b60006000198214156120af576120af611f10565b5060010190565b6000828210156120c8576120c8611f10565b500390565b634e487b7160e01b600052603160045260246000fd5b6020808252602b908201527f496e697469616c697a61626c653a20636f6e7472616374206973206e6f74206960408201526a6e697469616c697a696e6760a81b60608201526080019056fea2646970667358221220d3c0d3f1c45e4206edb793375e05bdaf5e2e82001bd77f1477db58f26250b4a064736f6c63430008090033",
  "linkReferences": {},
  "deployedLinkReferences": {}
}