{
  "_format": "hh-sol-artifact-1",
  "contractName": "CaskSubscriptions",
  "sourceName": "contracts/subscriptions/CaskSubscriptions.sol",
  "abi": [
    {
      "inputs": [],
      "stateMutability": "nonpayable",
      "type": "constructor"
    },
    {
      "anonymous": false,
      "inputs": [
        {
          "indexed": true,
          "internalType": "address",
          "name": "owner",
          "type": "address"
        },
        {
          "indexed": true,
          "internalType": "address",
          "name": "approved",
          "type": "address"
        },
        {
          "indexed": true,
          "internalType": "uint256",
          "name": "tokenId",
          "type": "uint256"
        }
      ],
      "name": "Approval",
      "type": "event"
    },
    {
      "anonymous": false,
      "inputs": [
        {
          "indexed": true,
          "internalType": "address",
          "name": "owner",
          "type": "address"
        },
        {
          "indexed": true,
          "internalType": "address",
          "name": "operator",
          "type": "address"
        },
        {
          "indexed": false,
          "internalType": "bool",
          "name": "approved",
          "type": "bool"
        }
      ],
      "name": "ApprovalForAll",
      "type": "event"
    },
    {
      "anonymous": false,
      "inputs": [
        {
          "indexed": true,
          "internalType": "address",
          "name": "previousOwner",
          "type": "address"
        },
        {
          "indexed": true,
          "internalType": "address",
          "name": "newOwner",
          "type": "address"
        }
      ],
      "name": "OwnershipTransferred",
      "type": "event"
    },
    {
      "anonymous": false,
      "inputs": [
        {
          "indexed": false,
          "internalType": "address",
          "name": "account",
          "type": "address"
        }
      ],
      "name": "Paused",
      "type": "event"
    },
    {
      "anonymous": false,
      "inputs": [
        {
          "indexed": true,
          "internalType": "address",
          "name": "consumer",
          "type": "address"
        },
        {
          "indexed": true,
          "internalType": "address",
          "name": "provider",
          "type": "address"
        },
        {
          "indexed": true,
          "internalType": "uint256",
          "name": "subscriptionId",
          "type": "uint256"
        },
        {
          "indexed": false,
          "internalType": "bytes32",
          "name": "ref",
          "type": "bytes32"
        },
        {
          "indexed": false,
          "internalType": "uint32",
          "name": "planId",
          "type": "uint32"
        }
      ],
      "name": "SubscriptionCanceled",
      "type": "event"
    },
    {
      "anonymous": false,
      "inputs": [
        {
          "indexed": true,
          "internalType": "address",
          "name": "consumer",
          "type": "address"
        },
        {
          "indexed": true,
          "internalType": "address",
          "name": "provider",
          "type": "address"
        },
        {
          "indexed": true,
          "internalType": "uint256",
          "name": "subscriptionId",
          "type": "uint256"
        },
        {
          "indexed": false,
          "internalType": "bytes32",
          "name": "ref",
          "type": "bytes32"
        },
        {
          "indexed": false,
          "internalType": "uint32",
          "name": "prevPlanId",
          "type": "uint32"
        },
        {
          "indexed": false,
          "internalType": "uint32",
          "name": "planId",
          "type": "uint32"
        },
        {
          "indexed": false,
          "internalType": "bytes32",
          "name": "discountId",
          "type": "bytes32"
        }
      ],
      "name": "SubscriptionChangedPlan",
      "type": "event"
    },
    {
      "anonymous": false,
      "inputs": [
        {
          "indexed": true,
          "internalType": "address",
          "name": "consumer",
          "type": "address"
        },
        {
          "indexed": true,
          "internalType": "address",
          "name": "provider",
          "type": "address"
        },
        {
          "indexed": true,
          "internalType": "uint256",
          "name": "subscriptionId",
          "type": "uint256"
        },
        {
          "indexed": false,
          "internalType": "bytes32",
          "name": "ref",
          "type": "bytes32"
        },
        {
          "indexed": false,
          "internalType": "uint32",
          "name": "planId",
          "type": "uint32"
        },
        {
          "indexed": false,
          "internalType": "bytes32",
          "name": "discountId",
          "type": "bytes32"
        }
      ],
      "name": "SubscriptionCreated",
      "type": "event"
    },
    {
      "anonymous": false,
      "inputs": [
        {
          "indexed": true,
          "internalType": "address",
          "name": "consumer",
          "type": "address"
        },
        {
          "indexed": true,
          "internalType": "address",
          "name": "provider",
          "type": "address"
        },
        {
          "indexed": true,
          "internalType": "uint256",
          "name": "subscriptionId",
          "type": "uint256"
        },
        {
          "indexed": false,
          "internalType": "bytes32",
          "name": "ref",
          "type": "bytes32"
        },
        {
          "indexed": false,
          "internalType": "uint32",
          "name": "planId",
          "type": "uint32"
        }
      ],
      "name": "SubscriptionPastDue",
      "type": "event"
    },
    {
      "anonymous": false,
      "inputs": [
        {
          "indexed": true,
          "internalType": "address",
          "name": "consumer",
          "type": "address"
        },
        {
          "indexed": true,
          "internalType": "address",
          "name": "provider",
          "type": "address"
        },
        {
          "indexed": true,
          "internalType": "uint256",
          "name": "subscriptionId",
          "type": "uint256"
        },
        {
          "indexed": false,
          "internalType": "bytes32",
          "name": "ref",
          "type": "bytes32"
        },
        {
          "indexed": false,
          "internalType": "uint32",
          "name": "planId",
          "type": "uint32"
        }
      ],
      "name": "SubscriptionPaused",
      "type": "event"
    },
    {
      "anonymous": false,
      "inputs": [
        {
          "indexed": true,
          "internalType": "address",
          "name": "consumer",
          "type": "address"
        },
        {
          "indexed": true,
          "internalType": "address",
          "name": "provider",
          "type": "address"
        },
        {
          "indexed": true,
          "internalType": "uint256",
          "name": "subscriptionId",
          "type": "uint256"
        },
        {
          "indexed": false,
          "internalType": "bytes32",
          "name": "ref",
          "type": "bytes32"
        },
        {
          "indexed": false,
          "internalType": "uint32",
          "name": "planId",
          "type": "uint32"
        },
        {
          "indexed": false,
          "internalType": "uint32",
          "name": "cancelAt",
          "type": "uint32"
        }
      ],
      "name": "SubscriptionPendingCancel",
      "type": "event"
    },
    {
      "anonymous": false,
      "inputs": [
        {
          "indexed": true,
          "internalType": "address",
          "name": "consumer",
          "type": "address"
        },
        {
          "indexed": true,
          "internalType": "address",
          "name": "provider",
          "type": "address"
        },
        {
          "indexed": true,
          "internalType": "uint256",
          "name": "subscriptionId",
          "type": "uint256"
        },
        {
          "indexed": false,
          "internalType": "bytes32",
          "name": "ref",
          "type": "bytes32"
        },
        {
          "indexed": false,
          "internalType": "uint32",
          "name": "prevPlanId",
          "type": "uint32"
        },
        {
          "indexed": false,
          "internalType": "uint32",
          "name": "planId",
          "type": "uint32"
        }
      ],
      "name": "SubscriptionPendingChangePlan",
      "type": "event"
    },
    {
      "anonymous": false,
      "inputs": [
        {
          "indexed": true,
          "internalType": "address",
          "name": "consumer",
          "type": "address"
        },
        {
          "indexed": true,
          "internalType": "address",
          "name": "provider",
          "type": "address"
        },
        {
          "indexed": true,
          "internalType": "uint256",
          "name": "subscriptionId",
          "type": "uint256"
        },
        {
          "indexed": false,
          "internalType": "bytes32",
          "name": "ref",
          "type": "bytes32"
        },
        {
          "indexed": false,
          "internalType": "uint32",
          "name": "planId",
          "type": "uint32"
        }
      ],
      "name": "SubscriptionPendingPause",
      "type": "event"
    },
    {
      "anonymous": false,
      "inputs": [
        {
          "indexed": true,
          "internalType": "address",
          "name": "consumer",
          "type": "address"
        },
        {
          "indexed": true,
          "internalType": "address",
          "name": "provider",
          "type": "address"
        },
        {
          "indexed": true,
          "internalType": "uint256",
          "name": "subscriptionId",
          "type": "uint256"
        },
        {
          "indexed": false,
          "internalType": "bytes32",
          "name": "ref",
          "type": "bytes32"
        },
        {
          "indexed": false,
          "internalType": "uint32",
          "name": "planId",
          "type": "uint32"
        }
      ],
      "name": "SubscriptionRenewed",
      "type": "event"
    },
    {
      "anonymous": false,
      "inputs": [
        {
          "indexed": true,
          "internalType": "address",
          "name": "consumer",
          "type": "address"
        },
        {
          "indexed": true,
          "internalType": "address",
          "name": "provider",
          "type": "address"
        },
        {
          "indexed": true,
          "internalType": "uint256",
          "name": "subscriptionId",
          "type": "uint256"
        },
        {
          "indexed": false,
          "internalType": "bytes32",
          "name": "ref",
          "type": "bytes32"
        },
        {
          "indexed": false,
          "internalType": "uint32",
          "name": "planId",
          "type": "uint32"
        }
      ],
      "name": "SubscriptionResumed",
      "type": "event"
    },
    {
      "anonymous": false,
      "inputs": [
        {
          "indexed": true,
          "internalType": "address",
          "name": "consumer",
          "type": "address"
        },
        {
          "indexed": true,
          "internalType": "address",
          "name": "provider",
          "type": "address"
        },
        {
          "indexed": true,
          "internalType": "uint256",
          "name": "subscriptionId",
          "type": "uint256"
        },
        {
          "indexed": false,
          "internalType": "bytes32",
          "name": "ref",
          "type": "bytes32"
        },
        {
          "indexed": false,
          "internalType": "uint32",
          "name": "planId",
          "type": "uint32"
        }
      ],
      "name": "SubscriptionTrialEnded",
      "type": "event"
    },
    {
      "anonymous": false,
      "inputs": [
        {
          "indexed": true,
          "internalType": "address",
          "name": "from",
          "type": "address"
        },
        {
          "indexed": true,
          "internalType": "address",
          "name": "to",
          "type": "address"
        },
        {
          "indexed": true,
          "internalType": "uint256",
          "name": "tokenId",
          "type": "uint256"
        }
      ],
      "name": "Transfer",
      "type": "event"
    },
    {
      "anonymous": false,
      "inputs": [
        {
          "indexed": false,
          "internalType": "address",
          "name": "account",
          "type": "address"
        }
      ],
      "name": "Unpaused",
      "type": "event"
    },
    {
      "inputs": [
        {
          "internalType": "address",
          "name": "to",
          "type": "address"
        },
        {
          "internalType": "uint256",
          "name": "tokenId",
          "type": "uint256"
        }
      ],
      "name": "approve",
      "outputs": [],
      "stateMutability": "nonpayable",
      "type": "function"
    },
    {
      "inputs": [
        {
          "internalType": "uint256",
          "name": "_subscriptionId",
          "type": "uint256"
        },
        {
          "internalType": "string",
          "name": "_dataCid",
          "type": "string"
        }
      ],
      "name": "attachData",
      "outputs": [],
      "stateMutability": "nonpayable",
      "type": "function"
    },
    {
      "inputs": [
        {
          "internalType": "address",
          "name": "owner",
          "type": "address"
        }
      ],
      "name": "balanceOf",
      "outputs": [
        {
          "internalType": "uint256",
          "name": "",
          "type": "uint256"
        }
      ],
      "stateMutability": "view",
      "type": "function"
    },
    {
      "inputs": [
        {
          "internalType": "uint256",
          "name": "_subscriptionId",
          "type": "uint256"
        },
        {
          "internalType": "uint32",
          "name": "_cancelAt",
          "type": "uint32"
        }
      ],
      "name": "cancelSubscription",
      "outputs": [],
      "stateMutability": "nonpayable",
      "type": "function"
    },
    {
      "inputs": [
        {
          "internalType": "uint256",
          "name": "_subscriptionId",
          "type": "uint256"
        },
        {
          "internalType": "uint256",
          "name": "_nonce",
          "type": "uint256"
        },
        {
          "internalType": "bytes32[]",
          "name": "_planProof",
          "type": "bytes32[]"
        },
        {
          "internalType": "bytes32[]",
          "name": "_discountProof",
          "type": "bytes32[]"
        },
        {
          "internalType": "bytes",
          "name": "_providerSignature",
          "type": "bytes"
        },
        {
          "internalType": "string",
          "name": "_cid",
          "type": "string"
        }
      ],
      "name": "changeSubscriptionPlan",
      "outputs": [],
      "stateMutability": "nonpayable",
      "type": "function"
    },
    {
      "inputs": [
        {
          "internalType": "uint256",
          "name": "_nonce",
          "type": "uint256"
        },
        {
          "internalType": "bytes32[]",
          "name": "_planProof",
          "type": "bytes32[]"
        },
        {
          "internalType": "bytes32[]",
          "name": "_discountProof",
          "type": "bytes32[]"
        },
        {
          "internalType": "bytes32",
          "name": "_networkData",
          "type": "bytes32"
        },
        {
          "internalType": "uint32",
          "name": "_cancelAt",
          "type": "uint32"
        },
        {
          "internalType": "bytes",
          "name": "_providerSignature",
          "type": "bytes"
        },
        {
          "internalType": "bytes",
          "name": "_networkSignature",
          "type": "bytes"
        },
        {
          "internalType": "string",
          "name": "_cid",
          "type": "string"
        }
      ],
      "name": "createNetworkSubscription",
      "outputs": [],
      "stateMutability": "nonpayable",
      "type": "function"
    },
    {
      "inputs": [
        {
          "internalType": "uint256",
          "name": "_nonce",
          "type": "uint256"
        },
        {
          "internalType": "bytes32[]",
          "name": "_planProof",
          "type": "bytes32[]"
        },
        {
          "internalType": "bytes32[]",
          "name": "_discountProof",
          "type": "bytes32[]"
        },
        {
          "internalType": "uint32",
          "name": "_cancelAt",
          "type": "uint32"
        },
        {
          "internalType": "bytes",
          "name": "_providerSignature",
          "type": "bytes"
        },
        {
          "internalType": "string",
          "name": "_cid",
          "type": "string"
        }
      ],
      "name": "createSubscription",
      "outputs": [],
      "stateMutability": "nonpayable",
      "type": "function"
    },
    {
      "inputs": [
        {
          "internalType": "address",
          "name": "_consumer",
          "type": "address"
        },
        {
          "internalType": "address",
          "name": "_provider",
          "type": "address"
        },
        {
          "internalType": "uint32",
          "name": "_planId",
          "type": "uint32"
        }
      ],
      "name": "getActiveSubscriptionCount",
      "outputs": [
        {
          "internalType": "uint256",
          "name": "",
          "type": "uint256"
        }
      ],
      "stateMutability": "view",
      "type": "function"
    },
    {
      "inputs": [
        {
          "internalType": "uint256",
          "name": "tokenId",
          "type": "uint256"
        }
      ],
      "name": "getApproved",
      "outputs": [
        {
          "internalType": "address",
          "name": "",
          "type": "address"
        }
      ],
      "stateMutability": "view",
      "type": "function"
    },
    {
      "inputs": [
        {
          "internalType": "address",
          "name": "_consumer",
          "type": "address"
        },
        {
          "internalType": "uint256",
          "name": "_idx",
          "type": "uint256"
        }
      ],
      "name": "getConsumerSubscription",
      "outputs": [
        {
          "internalType": "uint256",
          "name": "",
          "type": "uint256"
        }
      ],
      "stateMutability": "view",
      "type": "function"
    },
    {
      "inputs": [
        {
          "internalType": "address",
          "name": "_consumer",
          "type": "address"
        }
      ],
      "name": "getConsumerSubscriptionCount",
      "outputs": [
        {
          "internalType": "uint256",
          "name": "",
          "type": "uint256"
        }
      ],
      "stateMutability": "view",
      "type": "function"
    },
    {
      "inputs": [
        {
          "internalType": "uint256",
          "name": "_subscriptionId",
          "type": "uint256"
        }
      ],
      "name": "getPendingPlanChange",
      "outputs": [
        {
          "internalType": "bytes32",
          "name": "",
          "type": "bytes32"
        }
      ],
      "stateMutability": "view",
      "type": "function"
    },
    {
      "inputs": [
        {
          "internalType": "address",
          "name": "_provider",
          "type": "address"
        },
        {
          "internalType": "uint256",
          "name": "_idx",
          "type": "uint256"
        }
      ],
      "name": "getProviderSubscription",
      "outputs": [
        {
          "internalType": "uint256",
          "name": "",
          "type": "uint256"
        }
      ],
      "stateMutability": "view",
      "type": "function"
    },
    {
      "inputs": [
        {
          "internalType": "address",
          "name": "_provider",
          "type": "address"
        },
        {
          "internalType": "bool",
          "name": "_includeCanceled",
          "type": "bool"
        },
        {
          "internalType": "uint32",
          "name": "_planId",
          "type": "uint32"
        }
      ],
      "name": "getProviderSubscriptionCount",
      "outputs": [
        {
          "internalType": "uint256",
          "name": "",
          "type": "uint256"
        }
      ],
      "stateMutability": "view",
      "type": "function"
    },
    {
      "inputs": [
        {
          "internalType": "uint256",
          "name": "_subscriptionId",
          "type": "uint256"
        }
      ],
      "name": "getSubscription",
      "outputs": [
        {
          "components": [
            {
              "internalType": "bytes32",
              "name": "planData",
              "type": "bytes32"
            },
            {
              "internalType": "bytes32",
              "name": "networkData",
              "type": "bytes32"
            },
            {
              "internalType": "bytes32",
              "name": "discountId",
              "type": "bytes32"
            },
            {
              "internalType": "bytes32",
              "name": "discountData",
              "type": "bytes32"
            },
            {
              "internalType": "bytes32",
              "name": "ref",
              "type": "bytes32"
            },
            {
              "internalType": "address",
              "name": "provider",
              "type": "address"
            },
            {
              "internalType": "enum ICaskSubscriptions.SubscriptionStatus",
              "name": "status",
              "type": "uint8"
            },
            {
              "internalType": "uint32",
              "name": "planId",
              "type": "uint32"
            },
            {
              "internalType": "uint32",
              "name": "createdAt",
              "type": "uint32"
            },
            {
              "internalType": "uint32",
              "name": "renewAt",
              "type": "uint32"
            },
            {
              "internalType": "uint32",
              "name": "minTermAt",
              "type": "uint32"
            },
            {
              "internalType": "uint32",
              "name": "cancelAt",
              "type": "uint32"
            },
            {
              "internalType": "string",
              "name": "cid",
              "type": "string"
            },
            {
              "internalType": "string",
              "name": "dataCid",
              "type": "string"
            }
          ],
          "internalType": "struct ICaskSubscriptions.Subscription",
          "name": "subscription",
          "type": "tuple"
        },
        {
          "internalType": "address",
          "name": "currentOwner",
          "type": "address"
        }
      ],
      "stateMutability": "view",
      "type": "function"
    },
    {
      "inputs": [
        {
          "internalType": "address",
          "name": "_subscriptionPlans",
          "type": "address"
        }
      ],
      "name": "initialize",
      "outputs": [],
      "stateMutability": "nonpayable",
      "type": "function"
    },
    {
      "inputs": [
        {
          "internalType": "address",
          "name": "owner",
          "type": "address"
        },
        {
          "internalType": "address",
          "name": "operator",
          "type": "address"
        }
      ],
      "name": "isApprovedForAll",
      "outputs": [
        {
          "internalType": "bool",
          "name": "",
          "type": "bool"
        }
      ],
      "stateMutability": "view",
      "type": "function"
    },
    {
      "inputs": [
        {
          "internalType": "address",
          "name": "forwarder",
          "type": "address"
        }
      ],
      "name": "isTrustedForwarder",
      "outputs": [
        {
          "internalType": "bool",
          "name": "",
          "type": "bool"
        }
      ],
      "stateMutability": "view",
      "type": "function"
    },
    {
      "inputs": [
        {
          "internalType": "uint256",
          "name": "_subscriptionId",
          "type": "uint256"
        },
        {
          "internalType": "enum ICaskSubscriptions.ManagerCommand",
          "name": "_command",
          "type": "uint8"
        }
      ],
      "name": "managerCommand",
      "outputs": [],
      "stateMutability": "nonpayable",
      "type": "function"
    },
    {
      "inputs": [],
      "name": "name",
      "outputs": [
        {
          "internalType": "string",
          "name": "",
          "type": "string"
        }
      ],
      "stateMutability": "view",
      "type": "function"
    },
    {
      "inputs": [],
      "name": "owner",
      "outputs": [
        {
          "internalType": "address",
          "name": "",
          "type": "address"
        }
      ],
      "stateMutability": "view",
      "type": "function"
    },
    {
      "inputs": [
        {
          "internalType": "uint256",
          "name": "tokenId",
          "type": "uint256"
        }
      ],
      "name": "ownerOf",
      "outputs": [
        {
          "internalType": "address",
          "name": "",
          "type": "address"
        }
      ],
      "stateMutability": "view",
      "type": "function"
    },
    {
      "inputs": [],
      "name": "pause",
      "outputs": [],
      "stateMutability": "nonpayable",
      "type": "function"
    },
    {
      "inputs": [
        {
          "internalType": "uint256",
          "name": "_subscriptionId",
          "type": "uint256"
        }
      ],
      "name": "pauseSubscription",
      "outputs": [],
      "stateMutability": "nonpayable",
      "type": "function"
    },
    {
      "inputs": [],
      "name": "paused",
      "outputs": [
        {
          "internalType": "bool",
          "name": "",
          "type": "bool"
        }
      ],
      "stateMutability": "view",
      "type": "function"
    },
    {
      "inputs": [],
      "name": "renounceOwnership",
      "outputs": [],
      "stateMutability": "nonpayable",
      "type": "function"
    },
    {
      "inputs": [
        {
          "internalType": "uint256",
          "name": "_subscriptionId",
          "type": "uint256"
        }
      ],
      "name": "resumeSubscription",
      "outputs": [],
      "stateMutability": "nonpayable",
      "type": "function"
    },
    {
      "inputs": [
        {
          "internalType": "address",
          "name": "from",
          "type": "address"
        },
        {
          "internalType": "address",
          "name": "to",
          "type": "address"
        },
        {
          "internalType": "uint256",
          "name": "tokenId",
          "type": "uint256"
        }
      ],
      "name": "safeTransferFrom",
      "outputs": [],
      "stateMutability": "nonpayable",
      "type": "function"
    },
    {
      "inputs": [
        {
          "internalType": "address",
          "name": "from",
          "type": "address"
        },
        {
          "internalType": "address",
          "name": "to",
          "type": "address"
        },
        {
          "internalType": "uint256",
          "name": "tokenId",
          "type": "uint256"
        },
        {
          "internalType": "bytes",
          "name": "_data",
          "type": "bytes"
        }
      ],
      "name": "safeTransferFrom",
      "outputs": [],
      "stateMutability": "nonpayable",
      "type": "function"
    },
    {
      "inputs": [
        {
          "internalType": "address",
          "name": "operator",
          "type": "address"
        },
        {
          "internalType": "bool",
          "name": "approved",
          "type": "bool"
        }
      ],
      "name": "setApprovalForAll",
      "outputs": [],
      "stateMutability": "nonpayable",
      "type": "function"
    },
    {
      "inputs": [
        {
          "internalType": "address",
          "name": "_subscriptionManager",
          "type": "address"
        }
      ],
      "name": "setManager",
      "outputs": [],
      "stateMutability": "nonpayable",
      "type": "function"
    },
    {
      "inputs": [
        {
          "internalType": "address",
          "name": "_forwarder",
          "type": "address"
        }
      ],
      "name": "setTrustedForwarder",
      "outputs": [],
      "stateMutability": "nonpayable",
      "type": "function"
    },
    {
      "inputs": [],
      "name": "subscriptionManager",
      "outputs": [
        {
          "internalType": "contract ICaskSubscriptionManager",
          "name": "",
          "type": "address"
        }
      ],
      "stateMutability": "view",
      "type": "function"
    },
    {
      "inputs": [],
      "name": "subscriptionPlans",
      "outputs": [
        {
          "internalType": "contract ICaskSubscriptionPlans",
          "name": "",
          "type": "address"
        }
      ],
      "stateMutability": "view",
      "type": "function"
    },
    {
      "inputs": [
        {
          "internalType": "bytes4",
          "name": "interfaceId",
          "type": "bytes4"
        }
      ],
      "name": "supportsInterface",
      "outputs": [
        {
          "internalType": "bool",
          "name": "",
          "type": "bool"
        }
      ],
      "stateMutability": "view",
      "type": "function"
    },
    {
      "inputs": [],
      "name": "symbol",
      "outputs": [
        {
          "internalType": "string",
          "name": "",
          "type": "string"
        }
      ],
      "stateMutability": "view",
      "type": "function"
    },
    {
      "inputs": [
        {
          "internalType": "uint256",
          "name": "_subscriptionId",
          "type": "uint256"
        }
      ],
      "name": "tokenURI",
      "outputs": [
        {
          "internalType": "string",
          "name": "",
          "type": "string"
        }
      ],
      "stateMutability": "view",
      "type": "function"
    },
    {
      "inputs": [
        {
          "internalType": "address",
          "name": "from",
          "type": "address"
        },
        {
          "internalType": "address",
          "name": "to",
          "type": "address"
        },
        {
          "internalType": "uint256",
          "name": "tokenId",
          "type": "uint256"
        }
      ],
      "name": "transferFrom",
      "outputs": [],
      "stateMutability": "nonpayable",
      "type": "function"
    },
    {
      "inputs": [
        {
          "internalType": "address",
          "name": "newOwner",
          "type": "address"
        }
      ],
      "name": "transferOwnership",
      "outputs": [],
      "stateMutability": "nonpayable",
      "type": "function"
    },
    {
      "inputs": [],
      "name": "trustedForwarder",
      "outputs": [
        {
          "internalType": "address",
          "name": "",
          "type": "address"
        }
      ],
      "stateMutability": "view",
      "type": "function"
    },
    {
      "inputs": [],
      "name": "unpause",
      "outputs": [],
      "stateMutability": "nonpayable",
      "type": "function"
    },
    {
      "inputs": [],
      "name": "versionRecipient",
      "outputs": [
        {
          "internalType": "string",
          "name": "",
          "type": "string"
        }
      ],
      "stateMutability": "pure",
      "type": "function"
    }
  ],
  "bytecode": "0x60806040523480156200001157600080fd5b50600054610100900460ff166200002f5760005460ff161562000039565b62000039620000de565b620000a15760405162461bcd60e51b815260206004820152602e60248201527f496e697469616c697a61626c653a20636f6e747261637420697320616c72656160448201526d191e481a5b9a5d1a585b1a5e995960921b606482015260840160405180910390fd5b600054610100900460ff16158015620000c4576000805461ffff19166101011790555b8015620000d7576000805461ff00191690555b5062000102565b6000620000f630620000fc60201b620029cc1760201c565b15905090565b3b151590565b615eaf80620001126000396000f3fe608060405234801561001057600080fd5b506004361061025e5760003560e01c80637df7b2aa11610146578063b88d4fde116100c3578063d0ebdbe711610087578063d0ebdbe714610557578063d67dc0de1461056a578063da742228146105b3578063dc311dd3146105c6578063e985e9c5146105e7578063f2fde38b1461062357600080fd5b8063b88d4fde146104ea578063bf158fd2146104fd578063c4d66de814610510578063c86e695414610523578063c87b56dd1461054457600080fd5b80638fe17b161161010a5780638fe17b1614610496578063925fa591146104a957806395d89b41146104bc578063a22cb465146104c4578063ac58e37b146104d757600080fd5b80637df7b2aa14610444578063825527ff146104575780638456cb591461046a578063876bebbb146104725780638da5cb5b1461048557600080fd5b806342842e0e116101df5780635c975abb116101a35780635c975abb146103e75780636352211e146103f257806370a0823114610405578063715018a61461041857806374c14439146104205780637da0a8771461043357600080fd5b806342842e0e1461036b57806345041a461461037e578063486ff0cd146103915780634d5106ae146103b2578063572b6c05146103c557600080fd5b806323b872dd1161022657806323b872dd146102f3578063291b9a3f1461030657806336fd3a8a1461033d5780633f4ba83a1461035057806341f23f0a1461035857600080fd5b806301ffc9a714610263578063023a584e1461028b57806306fdde03146102a0578063081812fc146102b5578063095ea7b3146102e0575b600080fd5b610276610271366004614fff565b610636565b60405190151581526020015b60405180910390f35b61029e61029936600461501c565b610688565b005b6102a8610ad4565b604051610282919061508d565b6102c86102c336600461501c565b610b66565b6040516001600160a01b039091168152602001610282565b61029e6102ee3660046150b5565b610bfb565b61029e6103013660046150e1565b610d23565b61032f610314366004615122565b6001600160a01b0316600090815260fe602052604090205490565b604051908152602001610282565b61032f61034b3660046150b5565b610d5b565b61029e610d98565b61029e61036636600461501c565b610deb565b61029e6103793660046150e1565b611084565b61029e61038c366004615181565b61109f565b6040805180820190915260058152640322e322e360dc1b60208201526102a8565b61029e6103c0366004615319565b6111b7565b6102766103d3366004615122565b6065546001600160a01b0391821691161490565b60ca5460ff16610276565b6102c861040036600461501c565b6111f7565b61032f610413366004615122565b61126e565b61029e6112f5565b61032f61042e366004615405565b611348565b6065546001600160a01b03166102c8565b61029e61045236600461544c565b6113d0565b61029e610465366004615480565b611c29565b61029e611c8d565b61032f6104803660046150b5565b611cde565b6098546001600160a01b03166102c8565b60fd546102c8906001600160a01b031681565b61029e6104b7366004615590565b611d09565b6102a86120c0565b61029e6104d23660046155bc565b6120cf565b61029e6104e53660046155ea565b6120e1565b61029e6104f8366004615678565b612156565b60fc546102c8906001600160a01b031681565b61029e61051e366004615122565b61218f565b61032f61053136600461501c565b6000908152610100602052604090205490565b6102a861055236600461501c565b6122c7565b61029e610565366004615122565b612581565b61032f6105783660046156e4565b6001600160a01b0392831660009081526101046020908152604080832094909516825292835283812063ffffffff9290921681529152205490565b61029e6105c1366004615122565b6125ec565b6105d96105d436600461501c565b612656565b60405161028292919061574c565b6102766105f536600461588a565b6001600160a01b039182166000908152606b6020908152604080832093909416825291909152205460ff1690565b61029e610631366004615122565b612915565b60006001600160e01b031982166380ac58cd60e01b148061066757506001600160e01b03198216635b5e139f60e01b145b8061068257506301ffc9a760e01b6001600160e01b03198316145b92915050565b80610692816111f7565b6001600160a01b03166106a36129d2565b6001600160a01b0316146106d25760405162461bcd60e51b81526004016106c9906158b8565b60405180910390fd5b60ca5460ff16156106f55760405162461bcd60e51b81526004016106c9906158d7565b600082815260ff6020526040902060036005820154600160a01b900460ff16600681111561072557610725615714565b1480610750575060066005820154600160a01b900460ff16600681111561074e5761074e615714565b145b61078a5760405162461bcd60e51b815260206004820152600b60248201526a085393d517d4105554d15160aa1b60448201526064016106c9565b600581015483906001600160a01b03166107a3826111f7565b6004840154600585015460408051928352600160a81b90910463ffffffff1660208301526001600160a01b0392909216917f7ee0fc3eab7021686f891346ebbf5bab192d6f9995fcc66021f4551888dc1481910160405180910390a460066005820154600160a01b900460ff16600681111561082157610821615714565b141561083f57600501805460ff60a01b1916600160a11b1790555050565b600061084e82600001546129e1565b9050806080015163ffffffff16600014806108a15750608081015160058301546001600160a01b03166000908152610103602090815260408083208286015163ffffffff90811685529252909120549116115b6108db5760405162461bcd60e51b815260206004820152600b60248201526a214d41585f41435449564560a81b60448201526064016106c9565b600582018054600160a11b60ff60a01b198216179091556001600160a01b031660009081526101026020526040812080546001929061091b908490615917565b909155505060058201546001600160a01b038116600090815261010360209081526040808320600160a81b90940463ffffffff168352929052908120805460019290610968908490615917565b9091555060019050610104600061097e876111f7565b6001600160a01b03908116825260208083019390935260409182016000908120600588015492831682528452828120600160a81b90920463ffffffff1681529252812080549091906109d1908490615917565b9091555050600682015463ffffffff42811691161015610a035760068201805463ffffffff19164263ffffffff161790555b60fc5460405163d71bb37b60e01b8152600481018690526001600160a01b039091169063d71bb37b90602401600060405180830381600087803b158015610a4957600080fd5b505af1158015610a5d573d6000803e3d6000fd5b5060029250610a6a915050565b6005830154600160a01b900460ff166006811115610a8a57610a8a615714565b14610acd5760405162461bcd60e51b815260206004820152601360248201527221494e53554646494349454e545f46554e445360681b60448201526064016106c9565b50505b5050565b606060668054610ae39061592f565b80601f0160208091040260200160405190810160405280929190818152602001828054610b0f9061592f565b8015610b5c5780601f10610b3157610100808354040283529160200191610b5c565b820191906000526020600020905b815481529060010190602001808311610b3f57829003601f168201915b5050505050905090565b6000818152606860205260408120546001600160a01b0316610bdf5760405162461bcd60e51b815260206004820152602c60248201527f4552433732313a20617070726f76656420717565727920666f72206e6f6e657860448201526b34b9ba32b73a103a37b5b2b760a11b60648201526084016106c9565b506000908152606a60205260409020546001600160a01b031690565b6000610c06826111f7565b9050806001600160a01b0316836001600160a01b03161415610c745760405162461bcd60e51b815260206004820152602160248201527f4552433732313a20617070726f76616c20746f2063757272656e74206f776e656044820152603960f91b60648201526084016106c9565b806001600160a01b0316610c866129d2565b6001600160a01b03161480610ca25750610ca2816105f56129d2565b610d145760405162461bcd60e51b815260206004820152603860248201527f4552433732313a20617070726f76652063616c6c6572206973206e6f74206f7760448201527f6e6572206e6f7220617070726f76656420666f7220616c6c000000000000000060648201526084016106c9565b610d1e8383612abc565b505050565b610d34610d2e6129d2565b82612b2a565b610d505760405162461bcd60e51b81526004016106c99061596a565b610d1e838383612c21565b6001600160a01b038216600090815260fe60205260408120805483908110610d8557610d856159bb565b9060005260206000200154905092915050565b610da06129d2565b6001600160a01b0316610dbb6098546001600160a01b031690565b6001600160a01b031614610de15760405162461bcd60e51b81526004016106c9906159d1565b610de9612dcc565b565b80610df5816111f7565b6001600160a01b0316610e066129d2565b6001600160a01b03161480610e445750600081815260ff60205260409020600501546001600160a01b0316610e396129d2565b6001600160a01b0316145b610e605760405162461bcd60e51b81526004016106c9906158b8565b60ca5460ff1615610e835760405162461bcd60e51b81526004016106c9906158d7565b600082815260ff6020526040902060036005820154600160a01b900460ff166006811115610eb357610eb3615714565b14158015610ee05750600580820154600160a01b900460ff166006811115610edd57610edd615714565b14155b8015610f0c575060046005820154600160a01b900460ff166006811115610f0957610f09615714565b14155b8015610f38575060016005820154600160a01b900460ff166006811115610f3557610f35615714565b14155b610f545760405162461bcd60e51b81526004016106c990615a06565b6006810154600160201b900463ffffffff161580610f885750600681015463ffffffff600160201b90910481164290911610155b610fa45760405162461bcd60e51b81526004016106c990615a30565b6000610fb382600001546129e1565b90508060e00151610ff65760405162461bcd60e51b815260206004820152600d60248201526c214e4f545f5041555341424c4560981b60448201526064016106c9565b600582018054600360a11b60ff60a01b1982161790915584906001600160a01b0316611021826111f7565b6004850154600586015460408051928352600160a81b90910463ffffffff1660208301526001600160a01b0392909216917f3b1ababbfb41865093a096e886e08d3058f1adbce6c29e7be7ed6fd16b70802891015b60405180910390a450505050565b610d1e83838360405180602001604052806000815250612156565b826110a9816111f7565b6001600160a01b03166110ba6129d2565b6001600160a01b031614806110f85750600081815260ff60205260409020600501546001600160a01b03166110ed6129d2565b6001600160a01b0316145b6111145760405162461bcd60e51b81526004016106c9906158b8565b60ca5460ff16156111375760405162461bcd60e51b81526004016106c9906158d7565b600084815260ff6020526040902060046005820154600160a01b900460ff16600681111561116757611167615714565b14156111a15760405162461bcd60e51b81526020600482015260096024820152680850d05390d153115160ba1b60448201526064016106c9565b6111af600882018585614edc565b505050505050565b60ca5460ff16156111da5760405162461bcd60e51b81526004016106c9906158d7565b6111eb898989898989898989612e65565b50505050505050505050565b6000818152606860205260408120546001600160a01b0316806106825760405162461bcd60e51b815260206004820152602960248201527f4552433732313a206f776e657220717565727920666f72206e6f6e657869737460448201526832b73a103a37b5b2b760b91b60648201526084016106c9565b60006001600160a01b0382166112d95760405162461bcd60e51b815260206004820152602a60248201527f4552433732313a2062616c616e636520717565727920666f7220746865207a65604482015269726f206164647265737360b01b60648201526084016106c9565b506001600160a01b031660009081526069602052604090205490565b6112fd6129d2565b6001600160a01b03166113186098546001600160a01b031690565b6001600160a01b03161461133e5760405162461bcd60e51b81526004016106c9906159d1565b610de9600061360e565b6000821561137057506001600160a01b038316600090815261010160205260409020546113c9565b63ffffffff8216156113ad57506001600160a01b03831660009081526101036020908152604080832063ffffffff851684529091529020546113c9565b506001600160a01b038316600090815261010260205260409020545b9392505050565b60fc546001600160a01b03166113e46129d2565b6001600160a01b03161461140a5760405162461bcd60e51b81526004016106c9906158b8565b60ca5460ff161561142d5760405162461bcd60e51b81526004016106c9906158d7565b600082815260ff6020526040902042600183600681111561145057611450615714565b14156115e95760008481526101006020526040902054806114b35760405162461bcd60e51b815260206004820152601960248201527f21494e56414c49442870656e64696e67506c616e44617461290000000000000060448201526064016106c9565b60006114be826129e1565b600585015490915086906001600160a01b03166114da826111f7565b6004870154600588015460208087015160028b01546040805195865263ffffffff600160a81b90950485169386019390935292169083015260608201526001600160a01b0391909116907fe17e61be0a4aac2f0b6fece72cedc2ab9ca554634d5af864a9282095206a0c2b9060800160405180910390a4602081015160058501805463ffffffff909216600160a81b0263ffffffff60a81b1990921691909117905581845560a081015161ffff16156115d2578060a0015161ffff1681604001516115a59190615a53565b6115af9084615a7f565b8460060160046101000a81548163ffffffff021916908363ffffffff1602179055505b505060008481526101006020526040812055610acd565b60028360068111156115fd576115fd615714565b14156117db57600582018054600160a21b60ff60a01b198216179091556001600160a01b0316600090815261010260205260408120805460019290611643908490615aa7565b909155505060058201546001600160a01b038116600090815261010360209081526040808320600160a81b90940463ffffffff168352929052908120805460019290611690908490615aa7565b9091555060009050610104816116a5876111f7565b6001600160a01b03908116825260208083019390935260409182016000908120600588015492831682528452828120600160a81b90920463ffffffff1681529252902054111561175857600161010460006116ff876111f7565b6001600160a01b03908116825260208083019390935260409182016000908120600588015492831682528452828120600160a81b90920463ffffffff168152925281208054909190611752908490615aa7565b90915550505b600582015484906001600160a01b0316611771826111f7565b6004850154600586015460408051928352600160a81b90910463ffffffff1660208301526001600160a01b0392909216917f58e4414596fd750dbb9dabfe65b97bf5add2061f5902f34e2b82a9c25bd79f98910160405180910390a46117d684613660565b610acd565b60068360068111156117ef576117ef615714565b14156119c557600582018054600360a01b60ff60a01b198216179091556001600160a01b0316600090815261010260205260408120805460019290611835908490615aa7565b909155505060058201546001600160a01b038116600090815261010360209081526040808320600160a81b90940463ffffffff168352929052908120805460019290611882908490615aa7565b909155506000905061010481611897876111f7565b6001600160a01b03908116825260208083019390935260409182016000908120600588015492831682528452828120600160a81b90920463ffffffff1681529252902054111561194a57600161010460006118f1876111f7565b6001600160a01b03908116825260208083019390935260409182016000908120600588015492831682528452828120600160a81b90920463ffffffff168152925281208054909190611944908490615aa7565b90915550505b600582015484906001600160a01b0316611963826111f7565b6004850154600586015460408051928352600160a81b90910463ffffffff1660208301526001600160a01b0392909216917f7afd3b59e582bb56b590409b808e910ae787056cb10b682b9bdefa44c8eb940d91015b60405180910390a4610acd565b60038360068111156119d9576119d9615714565b1415611a6357600582018054600560a01b60ff60a01b1982161790915584906001600160a01b0316611a0a826111f7565b6004850154600586015460408051928352600160a81b90910463ffffffff1660208301526001600160a01b0392909216917f44abb4f4529fdbcacc1ee98eef9318eaf9a12044d6925a2dc2c702959d9352f191016119b8565b6004836006811115611a7757611a77615714565b1415611bfb576000611a8c83600001546129e1565b905060016005840154600160a01b900460ff166006811115611ab057611ab0615714565b1415611b2c57600583015485906001600160a01b0316611acf826111f7565b6004860154600587015460408051928352600160a81b90910463ffffffff1660208301526001600160a01b0392909216917ff42e506093cb49dad3d3349cf7a2b390140be665daecb2c820e903afd12b1df7910160405180910390a45b60408101516006840154611b46919063ffffffff16615a7f565b60068401805463ffffffff191663ffffffff9283169081179091559083161015611b805760058301805460ff60a01b1916600160a11b1790555b600583015485906001600160a01b0316611b99826111f7565b6004860154600587015460408051928352600160a81b90910463ffffffff1660208301526001600160a01b0392909216917fcdd2eee203a384f2c6e81f39021f7e3ebef3a21ccd0d0f6dd117387ab61b6b54910160405180910390a450610acd565b6005836006811115611c0f57611c0f615714565b1415610acd57600060028301819055600383015550505050565b60ca5460ff1615611c4c5760405162461bcd60e51b81526004016106c9906158d7565b6000611c5f8c8c8c8c8c8b8b8a8a612e65565b9050611c6b8785613707565b50600090815260ff602052604090206001019590955550505050505050505050565b611c956129d2565b6001600160a01b0316611cb06098546001600160a01b031690565b6001600160a01b031614611cd65760405162461bcd60e51b81526004016106c9906159d1565b610de961382d565b6001600160a01b038216600090815261010160205260408120805483908110610d8557610d856159bb565b81611d13816111f7565b6001600160a01b0316611d246129d2565b6001600160a01b03161480611d625750600081815260ff60205260409020600501546001600160a01b0316611d576129d2565b6001600160a01b0316145b611d7e5760405162461bcd60e51b81526004016106c9906158b8565b60ca5460ff1615611da15760405162461bcd60e51b81526004016106c9906158d7565b600083815260ff6020526040902060046005820154600160a01b900460ff166006811115611dd157611dd1615714565b1415611def5760405162461bcd60e51b81526004016106c990615a06565b4263ffffffff8416611edd57611e04856111f7565b6001600160a01b0316611e156129d2565b6001600160a01b031614611e3b5760405162461bcd60e51b81526004016106c9906158b8565b60068201805463ffffffff60401b1916600160401b63ffffffff871602179055600582015485906001600160a01b0316611e74826111f7565b6004850154600586015460408051928352600160a81b90910463ffffffff9081166020840152891682820152516001600160a01b0392909216917fc54424be96a88104b924830a25713de0140a7b7048d7a26370e735b421b057869181900360600190a46120b9565b8063ffffffff168463ffffffff1611611fcc576006820154600160201b900463ffffffff161580611f235750600682015463ffffffff600160201b909104811690821610155b611f3f5760405162461bcd60e51b81526004016106c990615a30565b600682018054600160401b63ffffffff84169081026bffffffff00000000ffffffff199092161717905560fc5460405163d71bb37b60e01b8152600481018790526001600160a01b039091169063d71bb37b90602401600060405180830381600087803b158015611faf57600080fd5b505af1158015611fc3573d6000803e3d6000fd5b505050506120b9565b6006820154600160201b900463ffffffff161580611fff5750600682015463ffffffff600160201b909104811690851610155b61201b5760405162461bcd60e51b81526004016106c990615a30565b60068201805463ffffffff60401b1916600160401b63ffffffff871602179055600582015485906001600160a01b0316612054826111f7565b6004850154600586015460408051928352600160a81b90910463ffffffff9081166020840152891682820152516001600160a01b0392909216917fc54424be96a88104b924830a25713de0140a7b7048d7a26370e735b421b057869181900360600190a45b5050505050565b606060678054610ae39061592f565b610ad06120da6129d2565b8383613886565b886120eb816111f7565b6001600160a01b03166120fc6129d2565b6001600160a01b0316146121225760405162461bcd60e51b81526004016106c9906158b8565b60ca5460ff16156121455760405162461bcd60e51b81526004016106c9906158d7565b6111eb8a8a8a8a8a8a8a8a8a613955565b6121676121616129d2565b83612b2a565b6121835760405162461bcd60e51b81526004016106c99061596a565b610acd84848484613d1d565b600054610100900460ff166121aa5760005460ff16156121ae565b303b155b6122115760405162461bcd60e51b815260206004820152602e60248201527f496e697469616c697a61626c653a20636f6e747261637420697320616c72656160448201526d191e481a5b9a5d1a585b1a5e995960921b60648201526084016106c9565b600054610100900460ff16158015612233576000805461ffff19166101011790555b61223b613d50565b612243613d87565b612297604051806040016040528060128152602001714361736b20537562736372697074696f6e7360701b815250604051806040016040528060088152602001674341534b5355425360c01b815250613dbe565b60fd80546001600160a01b0319166001600160a01b0384161790558015610ad0576000805461ff00191690555050565b6000818152606860205260409020546060906001600160a01b03166123465760405162461bcd60e51b815260206004820152602f60248201527f4552433732314d657461646174613a2055524920717565727920666f72206e6f60448201526e3732bc34b9ba32b73a103a37b5b2b760891b60648201526084016106c9565b600082815260ff6020818152604080842081516101c08101835281548152600182015493810193909352600281015491830191909152600381015460608301526004810154608083015260058101546001600160a01b03811660a08401529192909160c0840191600160a01b9091041660068111156123c7576123c7615714565b60068111156123d8576123d8615714565b8152600582015463ffffffff600160a81b820481166020840152600160c81b9091048116604083015260068301548082166060840152600160201b810482166080840152600160401b90041660a082015260078201805460c09092019161243e9061592f565b80601f016020809104026020016040519081016040528092919081815260200182805461246a9061592f565b80156124b75780601f1061248c576101008083540402835291602001916124b7565b820191906000526020600020905b81548152906001019060200180831161249a57829003601f168201915b505050505081526020016008820180546124d09061592f565b80601f01602080910402602001604051908101604052809291908181526020018280546124fc9061592f565b80156125495780601f1061251e57610100808354040283529160200191612549565b820191906000526020600020905b81548152906001019060200180831161252c57829003601f168201915b505050505081525050905080610180015160405160200161256a9190615abe565b604051602081830303815290604052915050919050565b6125896129d2565b6001600160a01b03166125a46098546001600160a01b031690565b6001600160a01b0316146125ca5760405162461bcd60e51b81526004016106c9906159d1565b60fc80546001600160a01b0319166001600160a01b0392909216919091179055565b6125f46129d2565b6001600160a01b031661260f6098546001600160a01b031690565b6001600160a01b0316146126355760405162461bcd60e51b81526004016106c9906159d1565b606580546001600160a01b0319166001600160a01b03831617905550565b50565b604080516101c08101825260008082526020820181905291810182905260608082018390526080820183905260a0820183905260c0820183905260e0820183905261010082018390526101208201839052610140820183905261016082019290925261018081018290526101a0810191909152600082815260ff6020818152604080842081516101c08101835281548152600182015493810193909352600281015491830191909152600381015460608301526004810154608083015260058101546001600160a01b03811660a08401529192909160c0840191600160a01b90910416600681111561274a5761274a615714565b600681111561275b5761275b615714565b8152600582015463ffffffff600160a81b820481166020840152600160c81b9091048116604083015260068301548082166060840152600160201b810482166080840152600160401b90041660a082015260078201805460c0909201916127c19061592f565b80601f01602080910402602001604051908101604052809291908181526020018280546127ed9061592f565b801561283a5780601f1061280f5761010080835404028352916020019161283a565b820191906000526020600020905b81548152906001019060200180831161281d57829003601f168201915b505050505081526020016008820180546128539061592f565b80601f016020809104026020016040519081016040528092919081815260200182805461287f9061592f565b80156128cc5780601f106128a1576101008083540402835291602001916128cc565b820191906000526020600020905b8154815290600101906020018083116128af57829003601f168201915b50505050508152505091506128f8836000908152606860205260409020546001600160a01b0316151590565b1561290d57612906836111f7565b9050915091565b506000915091565b61291d6129d2565b6001600160a01b03166129386098546001600160a01b031690565b6001600160a01b03161461295e5760405162461bcd60e51b81526004016106c9906159d1565b6001600160a01b0381166129c35760405162461bcd60e51b815260206004820152602660248201527f4f776e61626c653a206e6577206f776e657220697320746865207a65726f206160448201526564647265737360d01b60648201526084016106c9565b6126538161360e565b3b151590565b60006129dc613dff565b905090565b6040805161012081018252600080825260208201819052918101829052606081018290526080810182905260a0810182905260c0810182905260e0810182905261010081019190915250604080516101208101825260a083811c8252608084811c63ffffffff908116602080860191909152606087811c8316868801529587901c8216958501959095529385901c90931692820192909252601083901c61ffff1691810191909152600882901c60ff1660c082015260f89190911b600160f81b8181161460e0830152600160f91b9081161461010082015290565b6000818152606a6020526040902080546001600160a01b0319166001600160a01b0384169081179091558190612af1826111f7565b6001600160a01b03167f8c5be1e5ebec7d5bd14f71427d1e84f3dd0314c0f7b2291e5b200ac8c7c3b92560405160405180910390a45050565b6000818152606860205260408120546001600160a01b0316612ba35760405162461bcd60e51b815260206004820152602c60248201527f4552433732313a206f70657261746f7220717565727920666f72206e6f6e657860448201526b34b9ba32b73a103a37b5b2b760a11b60648201526084016106c9565b6000612bae836111f7565b9050806001600160a01b0316846001600160a01b03161480612be95750836001600160a01b0316612bde84610b66565b6001600160a01b0316145b80612c1957506001600160a01b038082166000908152606b602090815260408083209388168352929052205460ff165b949350505050565b826001600160a01b0316612c34826111f7565b6001600160a01b031614612c9c5760405162461bcd60e51b815260206004820152602960248201527f4552433732313a207472616e73666572206f6620746f6b656e2074686174206960448201526839903737ba1037bbb760b91b60648201526084016106c9565b6001600160a01b038216612cfe5760405162461bcd60e51b8152602060048201526024808201527f4552433732313a207472616e7366657220746f20746865207a65726f206164646044820152637265737360e01b60648201526084016106c9565b612d09838383613e33565b612d14600082612abc565b6001600160a01b0383166000908152606960205260408120805460019290612d3d908490615aa7565b90915550506001600160a01b0382166000908152606960205260408120805460019290612d6b908490615917565b909155505060008181526068602052604080822080546001600160a01b0319166001600160a01b0386811691821790925591518493918716917fddf252ad1be2c89b69c2b068fc378daa952ba7f163c4a11628f55a4df523b3ef91a4505050565b60ca5460ff16612e155760405162461bcd60e51b815260206004820152601460248201527314185d5cd8589b194e881b9bdd081c185d5cd95960621b60448201526064016106c9565b60ca805460ff191690557f5db9ee0a495bf2e6ff9c91a7834c1ba4fdd244a5e8aa4e537bd38aeae4b073aa612e486129d2565b6040516001600160a01b03909116815260200160405180910390a1565b60006004881015612eb15760405162461bcd60e51b815260206004820152601660248201527521494e56414c494428706c616e50726f6f664c656e2960501b60448201526064016106c9565b600060038710612f1a57612f138a8a6000818110612ed157612ed16159bb565b905060200201358c8c8c6003818110612eec57612eec6159bb565b905060200201358b8b6002818110612f0657612f066159bb565b9050602002013589613f5d565b9050612f5f565b612f5c8a8a6000818110612f3057612f306159bb565b905060200201358c8c8c6003818110612f4b57612f4b6159bb565b905060200201356000801b89613f5d565b90505b612f698a8a6140ab565b612f855760405162461bcd60e51b81526004016106c990615aed565b6000612fa98b8b6002818110612f9d57612f9d6159bb565b905060200201356129e1565b905060006130038c8c6000818110612fc357612fc36159bb565b905060200201358d8d6001818110612fdd57612fdd6159bb565b905060200201358e8e6002818110612ff757612ff76159bb565b90506020020135614172565b9050816080015163ffffffff1660001480613052575060808201516001600160a01b0384166000908152610103602090815260408083208287015163ffffffff90811685529252909120549116115b61308c5760405162461bcd60e51b815260206004820152600b60248201526a214d41585f41435449564560a81b60448201526064016106c9565b600060fd54602084015160405163b6ab359f60e01b81526001600160a01b03878116600483015263ffffffff909216602482015291169063b6ab359f9060440160206040518083038186803b1580156130e457600080fd5b505afa1580156130f8573d6000803e3d6000fd5b505050506040513d601f19601f8201168201806040525081019061311c9190615b1a565b600281111561312d5761312d615714565b146131695760405162461bcd60e51b815260206004820152600c60248201526b085393d517d153905093115160a21b60448201526064016106c9565b61317a6131746129d2565b826141dd565b600081815260ff602090815260409091206005810180549285015163ffffffff16600160a81b02600164ffffffff0160a01b03199093166001600160a01b0387161792909217909155428d8d60018181106131d7576131d76159bb565b60200291909101356004840155508d8d60028181106131f8576131f86159bb565b602002919091013583555060068201805463ffffffff60401b1916600160401b63ffffffff8d1602179055613231600783018989614edc565b5060058201805463ffffffff60c81b1916600160c81b63ffffffff84160217905560a084015161ffff16156132a5578360a0015161ffff1684604001516132789190615a53565b6132829082615a7f565b8260060160046101000a81548163ffffffff021916908363ffffffff1602179055505b83516132d45760058201805460ff60a01b1916600160a11b17905560068201805463ffffffff19169055613356565b606084015163ffffffff16156133295760058201805460ff60a01b1916600160a01b17905560608401516133089082615a7f565b60068301805463ffffffff191663ffffffff92909216919091179055613356565b60058201805460ff60a01b1916600160a11b17905560068201805463ffffffff191663ffffffff83161790555b60fe60006133626129d2565b6001600160a01b03908116825260208083019390935260409182016000908120805460018181018355918352858320018890559189168082526101018552838220805480850182559083528583200188905581526101029093529082208054919290916133d0908490615917565b90915550506001600160a01b0385166000908152610103602090815260408083208783015163ffffffff1684529091528120805460019290613413908490615917565b909155506001905061010460006134286129d2565b6001600160a01b03908116825260208083019390935260409182016000908120918a1681529083528181208884015163ffffffff16825290925281208054909190613474908490615917565b909155506134a39050613486846111f7565b600584015460208701516001600160a01b03909116908f8f6141f7565b6003840155600283015560fc5460405163d71bb37b60e01b8152600481018590526001600160a01b039091169063d71bb37b90602401600060405180830381600087803b1580156134f357600080fd5b505af1158015613507573d6000803e3d6000fd5b5060029250613514915050565b6005830154600160a01b900460ff16600681111561353457613534615714565b148061355f575060016005830154600160a01b900460ff16600681111561355d5761355d615714565b145b61357b5760405162461bcd60e51b81526004016106c990615b3b565b600582015483906001600160a01b0316613594826111f7565b60048501546005860154600287015460408051938452600160a81b90920463ffffffff166020840152908201526001600160a01b0391909116907f9fb45eab820cdd481e286e8c699e1c01031bb833c58f7cfba3ca8d1db6d98d819060600160405180910390a450909d9c50505050505050505050505050565b609880546001600160a01b038381166001600160a01b0319831681179093556040519116919082907f8be0079c531659141344cd1fd0a4f28419497f9722a3daafe3b4186f6b6457e090600090a35050565b600061366b826111f7565b905061367981600084613e33565b613684600083612abc565b6001600160a01b03811660009081526069602052604081208054600192906136ad908490615aa7565b909155505060008281526068602052604080822080546001600160a01b0319169055518391906001600160a01b038416907fddf252ad1be2c89b69c2b068fc378daa952ba7f163c4a11628f55a4df523b3ef908390a45050565b60008061378a836137848660405160200161372491815260200190565b60408051601f1981840301815282825280516020918201207f19457468657265756d205369676e6564204d6573736167653a0a33320000000084830152603c8085019190915282518085039091018152605c909301909152815191012090565b906142e3565b905060006137ca8560408051808201909152600080825260208201525060408051808201909152606082901c815260509190911c61ffff16602082015290565b9050816001600160a01b031681600001516001600160a01b0316146138255760405162461bcd60e51b815260206004820152601160248201527021494e56414c4944286e6574776f726b2960781b60448201526064016106c9565b509392505050565b60ca5460ff16156138505760405162461bcd60e51b81526004016106c9906158d7565b60ca805460ff191660011790557f62e78cea01bee320cd4e420270b5ea74000d11b0c9f74754ebdbfc544b05a258612e486129d2565b816001600160a01b0316836001600160a01b031614156138e85760405162461bcd60e51b815260206004820152601960248201527f4552433732313a20617070726f766520746f2063616c6c65720000000000000060448201526064016106c9565b6001600160a01b038381166000818152606b6020908152604080832094871680845294825291829020805460ff191686151590811790915591519182527f17307eab39ab6107e8899845ad3d59bd9653f200f220920489ca2b5937696c31910160405180910390a3505050565b60048610156139765760405162461bcd60e51b81526004016106c990615aed565b600089815260ff60205260409020600681015463ffffffff1615806139a75750600681015463ffffffff4281169116115b6139e35760405162461bcd60e51b815260206004820152600d60248201526c085391515117d491539155d053609a1b60448201526064016106c9565b60026005820154600160a01b900460ff166006811115613a0557613a05615714565b1480613a30575060016005820154600160a01b900460ff166006811115613a2e57613a2e615714565b145b613a4c5760405162461bcd60e51b81526004016106c990615a06565b600060038610613aa857613aa189896000818110613a6c57613a6c6159bb565b905060200201358b8b8b6003818110613a8757613a876159bb565b905060200201358a8a6002818110612f0657612f066159bb565b9050613adc565b613ad989896000818110613abe57613abe6159bb565b905060200201358b8b8b6003818110612f4b57612f4b6159bb565b90505b613ae689896140ab565b613b025760405162461bcd60e51b81526004016106c990615aed565b6000613b1a8a8a6002818110612f9d57612f9d6159bb565b60058401549091506001600160a01b03838116911614613b715760405162461bcd60e51b815260206004820152601260248201527121494e56414c49442870726f76696465722960701b60448201526064016106c9565b613b7f600784018686614edc565b506002830154158015613b93575060038710155b8015613bb55750600088888281613bac57613bac6159bb565b90506020020135115b15613bee57613be3613bc68d6111f7565b600585015460208401516001600160a01b03909116908b8b6141f7565b600385015560028401555b60208101516005840154600160a81b900463ffffffff908116911614613d0f57600060fd54602083015160405163b6ab359f60e01b81526001600160a01b03868116600483015263ffffffff909216602482015291169063b6ab359f9060440160206040518083038186803b158015613c6657600080fd5b505afa158015613c7a573d6000803e3d6000fd5b505050506040513d601f19601f82011682018060405250810190613c9e9190615b1a565b6002811115613caf57613caf615714565b14613ceb5760405162461bcd60e51b815260206004820152600c60248201526b085393d517d153905093115160a21b60448201526064016106c9565b613d0f8c828c8c6002818110613d0357613d036159bb565b905060200201356142ff565b505050505050505050505050565b613d28848484612c21565b613d3484848484614448565b610acd5760405162461bcd60e51b81526004016106c990615b63565b600054610100900460ff16613d775760405162461bcd60e51b81526004016106c990615bb5565b613d7f61455c565b610de9614583565b600054610100900460ff16613dae5760405162461bcd60e51b81526004016106c990615bb5565b613db661455c565b610de96145ba565b600054610100900460ff16613de55760405162461bcd60e51b81526004016106c990615bb5565b613ded61455c565b613df561455c565b610ad082826145ed565b600060143610801590613e1c57506065546001600160a01b031633145b15613e2e575060131936013560601c90565b503390565b6001600160a01b03831615801590613e5357506001600160a01b03821615155b15610d1e57600081815260ff602052604081208054909190613e74906129e1565b9050806101000151613ebd5760405162461bcd60e51b8152602060048201526012602482015271214e4f545f5452414e534645525241424c4560701b60448201526064016106c9565b6006820154600160201b900463ffffffff161580613ef15750600682015463ffffffff600160201b90910481164290911610155b613f0d5760405162461bcd60e51b81526004016106c990615a30565b50600601805463ffffffff60401b19811663ffffffff909116600160401b021790556001600160a01b0391909116600090815260fe60209081526040822080546001810182559083529120015550565b600080613f8d83613784888888604051602001613724939291909283526020830191909152604082015260600190565b90506001600160a01b0387811690821614613fdc5760405162461bcd60e51b815260206004820152600f60248201526e21494e56414c49442870726f6f662960881b60448201526064016106c9565b60fd54604051630782fb5960e31b81526001600160a01b03838116600483015290911690633c17dac89060240160006040518083038186803b15801561402157600080fd5b505afa158015614035573d6000803e3d6000fd5b505050506040513d6000823e601f3d908101601f1916820160405261405d9190810190615c00565b6020015186146140a15760405162461bcd60e51b815260206004820152600f60248201526e2150524f56494445525f4e4f4e434560881b60448201526064016106c9565b9695505050505050565b60fd546000906001600160a01b03166371ce3e66848460028181106140d2576140d26159bb565b90506020020135858560038181106140ec576140ec6159bb565b60200291909101359050614103866004818a615cc5565b6040518563ffffffff1660e01b81526004016141229493929190615d29565b60206040518083038186803b15801561413a57600080fd5b505afa15801561414e573d6000803e3d6000fd5b505050506040513d601f19601f820116820180604052508101906113c99190615d49565b600061417c6129d2565b60405160609190911b6bffffffffffffffffffffffff191660208201526034810185905260548101839052607481018490524360948201524260b482015260d40160408051601f198184030181529190528051602090910120949350505050565b610ad082826040518060200160405280600081525061463b565b600080808484828161420b5761420b6159bb565b9050602002013511156142d25760fd54604051632218d7d360e01b81526000916001600160a01b031690632218d7d390614251908b908b908b908b908b90600401615d66565b602060405180830381600087803b15801561426b57600080fd5b505af115801561427f573d6000803e3d6000fd5b505050506040513d601f19601f820116820180604052508101906142a39190615daa565b905080156142d05780858560018181106142bf576142bf6159bb565b9050602002013592509250506142d9565b505b5060009050805b9550959350505050565b60008060006142f2858561466e565b91509150613825816146de565b600083815260ff60205260408120805490919061431b906129e1565b905060016005830154600160a01b900460ff16600681111561433f5761433f615714565b14156143ba57606080850151908201516006840154614364919063ffffffff16615dc3565b61436e9190615a7f565b60068301805463ffffffff191663ffffffff92831690811790915542909116106143aa5760068201805463ffffffff19164263ffffffff161790555b6143b5858585614899565b6120b9565b604081015181516143d19163ffffffff1690615de8565b604085015185516143e89163ffffffff1690615de8565b14156143f9576143b5858585614899565b604081015181516144109163ffffffff1690615de8565b604085015185516144279163ffffffff1690615de8565b1115614439576143b5858286866149c1565b6120b985856020015185614bd9565b60006001600160a01b0384163b1561455157836001600160a01b031663150b7a026144716129d2565b8786866040518563ffffffff1660e01b81526004016144939493929190615e0a565b602060405180830381600087803b1580156144ad57600080fd5b505af19250505080156144dd575060408051601f3d908101601f191682019092526144da91810190615e3d565b60015b614537573d80801561450b576040519150601f19603f3d011682016040523d82523d6000602084013e614510565b606091505b50805161452f5760405162461bcd60e51b81526004016106c990615b63565b805181602001fd5b6001600160e01b031916630a85bd0160e11b149050612c19565b506001949350505050565b600054610100900460ff16610de95760405162461bcd60e51b81526004016106c990615bb5565b600054610100900460ff166145aa5760405162461bcd60e51b81526004016106c990615bb5565b610de96145b56129d2565b61360e565b600054610100900460ff166145e15760405162461bcd60e51b81526004016106c990615bb5565b60ca805460ff19169055565b600054610100900460ff166146145760405162461bcd60e51b81526004016106c990615bb5565b8151614627906066906020850190614f60565b508051610d1e906067906020840190614f60565b6146458383614c72565b6146526000848484614448565b610d1e5760405162461bcd60e51b81526004016106c990615b63565b6000808251604114156146a55760208301516040840151606085015160001a61469987828585614dc0565b945094505050506146d7565b8251604014156146cf57602083015160408401516146c4868383614ead565b9350935050506146d7565b506000905060025b9250929050565b60008160048111156146f2576146f2615714565b14156146fb5750565b600181600481111561470f5761470f615714565b141561475d5760405162461bcd60e51b815260206004820152601860248201527f45434453413a20696e76616c6964207369676e6174757265000000000000000060448201526064016106c9565b600281600481111561477157614771615714565b14156147bf5760405162461bcd60e51b815260206004820152601f60248201527f45434453413a20696e76616c6964207369676e6174757265206c656e6774680060448201526064016106c9565b60038160048111156147d3576147d3615714565b141561482c5760405162461bcd60e51b815260206004820152602260248201527f45434453413a20696e76616c6964207369676e6174757265202773272076616c604482015261756560f01b60648201526084016106c9565b600481600481111561484057614840615714565b14156126535760405162461bcd60e51b815260206004820152602260248201527f45434453413a20696e76616c6964207369676e6174757265202776272076616c604482015261756560f01b60648201526084016106c9565b600083815260ff60205260409020600581015484906001600160a01b03166148c0826111f7565b6004840154600585015460208089015160028801546040805195865263ffffffff600160a81b90950485169386019390935292169083015260608201526001600160a01b0391909116907fe17e61be0a4aac2f0b6fece72cedc2ab9ca554634d5af864a9282095206a0c2b9060800160405180910390a460a083015161ffff1615614990578260a0015161ffff16836040015161495d9190615a53565b61496d9063ffffffff1642615917565b8160060160046101000a81548163ffffffff021916908363ffffffff1602179055505b60209092015160058301805463ffffffff909216600160a81b0263ffffffff60a81b19909216919091179055905550565b600084815260ff602052604090206149da858484614899565b83511580156149e95750825115155b15614aa95760068101805463ffffffff19164263ffffffff1617905560fc5460405163d71bb37b60e01b8152600481018790526001600160a01b039091169063d71bb37b90602401600060405180830381600087803b158015614a4b57600080fd5b505af1158015614a5f573d6000803e3d6000fd5b5060029250614a6c915050565b6005820154600160a01b900460ff166006811115614a8c57614a8c615714565b146143b55760405162461bcd60e51b81526004016106c990615b3b565b6006810154600090614ac290429063ffffffff16615dc3565b63ffffffff16856040015163ffffffff168660000151614ae29190615de8565b60408601518651614af99163ffffffff1690615de8565b614b039190615aa7565b614b0d9190615e5a565b60fc549091506001600160a01b031663c54c58c4614b2a886111f7565b600585015460405160e084901b6001600160e01b03191681526001600160a01b039283166004820152911660248201526044810189905260648101849052608401602060405180830381600087803b158015614b8557600080fd5b505af1158015614b99573d6000803e3d6000fd5b505050506040513d601f19601f82011682018060405250810190614bbd9190615d49565b6111af5760405162461bcd60e51b81526004016106c990615b3b565b600083815260ff60209081526040808320610100909252909120829055600581015484906001600160a01b0316614c0f826111f7565b600484015460058501546040805192835263ffffffff600160a81b90920482166020840152908816908201526001600160a01b0391909116907f3d051466fe86e1bd842d67e98121d69a930caccf48fc2ae2c83119b5a7b71af690606001611076565b6001600160a01b038216614cc85760405162461bcd60e51b815260206004820181905260248201527f4552433732313a206d696e7420746f20746865207a65726f206164647265737360448201526064016106c9565b6000818152606860205260409020546001600160a01b031615614d2d5760405162461bcd60e51b815260206004820152601c60248201527f4552433732313a20746f6b656e20616c7265616479206d696e7465640000000060448201526064016106c9565b614d3960008383613e33565b6001600160a01b0382166000908152606960205260408120805460019290614d62908490615917565b909155505060008181526068602052604080822080546001600160a01b0319166001600160a01b03861690811790915590518392907fddf252ad1be2c89b69c2b068fc378daa952ba7f163c4a11628f55a4df523b3ef908290a45050565b6000807f7fffffffffffffffffffffffffffffff5d576e7357a4501ddfe92f46681b20a0831115614df75750600090506003614ea4565b8460ff16601b14158015614e0f57508460ff16601c14155b15614e205750600090506004614ea4565b6040805160008082526020820180845289905260ff881692820192909252606081018690526080810185905260019060a0016020604051602081039080840390855afa158015614e74573d6000803e3d6000fd5b5050604051601f1901519150506001600160a01b038116614e9d57600060019250925050614ea4565b9150600090505b94509492505050565b6000806001600160ff1b03831660ff84901c601b01614ece87828885614dc0565b935093505050935093915050565b828054614ee89061592f565b90600052602060002090601f016020900481019282614f0a5760008555614f50565b82601f10614f235782800160ff19823516178555614f50565b82800160010185558215614f50579182015b82811115614f50578235825591602001919060010190614f35565b50614f5c929150614fd4565b5090565b828054614f6c9061592f565b90600052602060002090601f016020900481019282614f8e5760008555614f50565b82601f10614fa757805160ff1916838001178555614f50565b82800160010185558215614f50579182015b82811115614f50578251825591602001919060010190614fb9565b5b80821115614f5c5760008155600101614fd5565b6001600160e01b03198116811461265357600080fd5b60006020828403121561501157600080fd5b81356113c981614fe9565b60006020828403121561502e57600080fd5b5035919050565b60005b83811015615050578181015183820152602001615038565b83811115610acd5750506000910152565b60008151808452615079816020860160208601615035565b601f01601f19169290920160200192915050565b6020815260006113c96020830184615061565b6001600160a01b038116811461265357600080fd5b600080604083850312156150c857600080fd5b82356150d3816150a0565b946020939093013593505050565b6000806000606084860312156150f657600080fd5b8335615101816150a0565b92506020840135615111816150a0565b929592945050506040919091013590565b60006020828403121561513457600080fd5b81356113c9816150a0565b60008083601f84011261515157600080fd5b50813567ffffffffffffffff81111561516957600080fd5b6020830191508360208285010111156146d757600080fd5b60008060006040848603121561519657600080fd5b83359250602084013567ffffffffffffffff8111156151b457600080fd5b6151c08682870161513f565b9497909650939450505050565b60008083601f8401126151df57600080fd5b50813567ffffffffffffffff8111156151f757600080fd5b6020830191508360208260051b85010111156146d757600080fd5b803563ffffffff8116811461522657600080fd5b919050565b634e487b7160e01b600052604160045260246000fd5b6040516060810167ffffffffffffffff811182821017156152645761526461522b565b60405290565b604051601f8201601f1916810167ffffffffffffffff811182821017156152935761529361522b565b604052919050565b600067ffffffffffffffff8211156152b5576152b561522b565b50601f01601f191660200190565b600082601f8301126152d457600080fd5b81356152e76152e28261529b565b61526a565b8181528460208386010111156152fc57600080fd5b816020850160208301376000918101602001919091529392505050565b600080600080600080600080600060c08a8c03121561533757600080fd5b8935985060208a013567ffffffffffffffff8082111561535657600080fd5b6153628d838e016151cd565b909a50985060408c013591508082111561537b57600080fd5b6153878d838e016151cd565b909850965086915061539b60608d01615212565b955060808c01359150808211156153b157600080fd5b6153bd8d838e016152c3565b945060a08c01359150808211156153d357600080fd5b506153e08c828d0161513f565b915080935050809150509295985092959850929598565b801515811461265357600080fd5b60008060006060848603121561541a57600080fd5b8335615425816150a0565b92506020840135615435816153f7565b915061544360408501615212565b90509250925092565b6000806040838503121561545f57600080fd5b8235915060208301356007811061547557600080fd5b809150509250929050565b60008060008060008060008060008060006101008c8e0312156154a257600080fd5b8b359a5067ffffffffffffffff8060208e013511156154c057600080fd5b6154d08e60208f01358f016151cd565b909b50995060408d01358110156154e657600080fd5b6154f68e60408f01358f016151cd565b909950975060608d0135965061550e60808e01615212565b95508060a08e0135111561552157600080fd5b6155318e60a08f01358f016152c3565b94508060c08e0135111561554457600080fd5b6155548e60c08f01358f016152c3565b93508060e08e0135111561556757600080fd5b506155788d60e08e01358e0161513f565b81935080925050509295989b509295989b9093969950565b600080604083850312156155a357600080fd5b823591506155b360208401615212565b90509250929050565b600080604083850312156155cf57600080fd5b82356155da816150a0565b91506020830135615475816153f7565b600080600080600080600080600060c08a8c03121561560857600080fd5b8935985060208a0135975060408a013567ffffffffffffffff8082111561562e57600080fd5b61563a8d838e016151cd565b909950975060608c013591508082111561565357600080fd5b61565f8d838e016151cd565b909750955060808c01359150808211156153b157600080fd5b6000806000806080858703121561568e57600080fd5b8435615699816150a0565b935060208501356156a9816150a0565b925060408501359150606085013567ffffffffffffffff8111156156cc57600080fd5b6156d8878288016152c3565b91505092959194509250565b6000806000606084860312156156f957600080fd5b8335615704816150a0565b92506020840135615435816150a0565b634e487b7160e01b600052602160045260246000fd5b6007811061574857634e487b7160e01b600052602160045260246000fd5b9052565b60408152825160408201526020830151606082015260408301516080820152606083015160a0820152608083015160c0820152600060a084015161579b60e08401826001600160a01b03169052565b5060c08401516101006157b08185018361572a565b60e086015191506101206157cb8186018463ffffffff169052565b908601519150610140906157e68583018463ffffffff169052565b86015191506101606157ff8582018463ffffffff169052565b9086015191506101809061581a8583018463ffffffff169052565b86015191506101a06158338582018463ffffffff169052565b8187015192506101c091508182860152615851610200860184615061565b90870151858203603f19016101e087015290925090506158718282615061565b925050506113c960208301846001600160a01b03169052565b6000806040838503121561589d57600080fd5b82356158a8816150a0565b91506020830135615475816150a0565b60208082526005908201526404282aaa8960db1b604082015260600190565b60208082526010908201526f14185d5cd8589b194e881c185d5cd95960821b604082015260600190565b634e487b7160e01b600052601160045260246000fd5b6000821982111561592a5761592a615901565b500190565b600181811c9082168061594357607f821691505b6020821081141561596457634e487b7160e01b600052602260045260246000fd5b50919050565b60208082526031908201527f4552433732313a207472616e736665722063616c6c6572206973206e6f74206f6040820152701ddb995c881b9bdc88185c1c1c9bdd9959607a1b606082015260800190565b634e487b7160e01b600052603260045260246000fd5b6020808252818101527f4f776e61626c653a2063616c6c6572206973206e6f7420746865206f776e6572604082015260600190565b60208082526010908201526f21494e56414c4944287374617475732960801b604082015260600190565b602080825260099082015268214d494e5f5445524d60b81b604082015260600190565b600063ffffffff80831681851681830481118215151615615a7657615a76615901565b02949350505050565b600063ffffffff808316818516808303821115615a9e57615a9e615901565b01949350505050565b600082821015615ab957615ab9615901565b500390565b66697066733a2f2f60c81b815260008251615ae0816007850160208701615035565b9190910160070192915050565b60208082526013908201527221494e56414c494428706c616e50726f6f662960681b604082015260600190565b600060208284031215615b2c57600080fd5b8151600381106113c957600080fd5b6020808252600e908201526d21554e50524f4345535341424c4560901b604082015260600190565b60208082526032908201527f4552433732313a207472616e7366657220746f206e6f6e20455243373231526560408201527131b2b4bb32b91034b6b83632b6b2b73a32b960711b606082015260800190565b6020808252602b908201527f496e697469616c697a61626c653a20636f6e7472616374206973206e6f74206960408201526a6e697469616c697a696e6760a81b606082015260800190565b60006020808385031215615c1357600080fd5b825167ffffffffffffffff80821115615c2b57600080fd5b9084019060608287031215615c3f57600080fd5b615c47615241565b8251615c52816150a0565b81528284015184820152604083015182811115615c6e57600080fd5b80840193505086601f840112615c8357600080fd5b82519150615c936152e28361529b565b8281528785848601011115615ca757600080fd5b615cb683868301878701615035565b60408201529695505050505050565b60008085851115615cd557600080fd5b83861115615ce257600080fd5b5050600583901b0193919092039150565b81835260006001600160fb1b03831115615d0c57600080fd5b8260051b8083602087013760009401602001938452509192915050565b8481528360208201526060604082015260006140a1606083018486615cf3565b600060208284031215615d5b57600080fd5b81516113c9816153f7565b6001600160a01b0386811682528516602082015263ffffffff84166040820152608060608201819052600090615d9f9083018486615cf3565b979650505050505050565b600060208284031215615dbc57600080fd5b5051919050565b600063ffffffff83811690831681811015615de057615de0615901565b039392505050565b600082615e0557634e487b7160e01b600052601260045260246000fd5b500490565b6001600160a01b03858116825284166020820152604081018390526080606082018190526000906140a190830184615061565b600060208284031215615e4f57600080fd5b81516113c981614fe9565b6000816000190483118215151615615e7457615e74615901565b50029056fea2646970667358221220e4825e7b2c0443ab47bd26821b65a1aafb63d45486ee62c01414736184e97fef64736f6c63430008090033",
  "linkReferences": {},
  "deployedLinkReferences": {}
}