{
  "_format": "hh-sol-artifact-1",
  "contractName": "CaskSubscriptionPlans",
  "sourceName": "contracts/subscriptions/CaskSubscriptionPlans.sol",
  "abi": [
    {
      "inputs": [],
      "stateMutability": "nonpayable",
      "type": "constructor"
    },
    {
      "anonymous": false,
      "inputs": [
        {
          "indexed": true,
          "internalType": "address",
          "name": "previousOwner",
          "type": "address"
        },
        {
          "indexed": true,
          "internalType": "address",
          "name": "newOwner",
          "type": "address"
        }
      ],
      "name": "OwnershipTransferred",
      "type": "event"
    },
    {
      "anonymous": false,
      "inputs": [
        {
          "indexed": false,
          "internalType": "address",
          "name": "account",
          "type": "address"
        }
      ],
      "name": "Paused",
      "type": "event"
    },
    {
      "anonymous": false,
      "inputs": [
        {
          "indexed": true,
          "internalType": "address",
          "name": "provider",
          "type": "address"
        },
        {
          "indexed": true,
          "internalType": "uint32",
          "name": "planId",
          "type": "uint32"
        }
      ],
      "name": "PlanDisabled",
      "type": "event"
    },
    {
      "anonymous": false,
      "inputs": [
        {
          "indexed": true,
          "internalType": "address",
          "name": "provider",
          "type": "address"
        },
        {
          "indexed": true,
          "internalType": "uint32",
          "name": "planId",
          "type": "uint32"
        }
      ],
      "name": "PlanEnabled",
      "type": "event"
    },
    {
      "anonymous": false,
      "inputs": [
        {
          "indexed": true,
          "internalType": "address",
          "name": "provider",
          "type": "address"
        },
        {
          "indexed": true,
          "internalType": "uint32",
          "name": "planId",
          "type": "uint32"
        },
        {
          "indexed": false,
          "internalType": "uint32",
          "name": "retireAt",
          "type": "uint32"
        }
      ],
      "name": "PlanRetired",
      "type": "event"
    },
    {
      "anonymous": false,
      "inputs": [
        {
          "indexed": true,
          "internalType": "address",
          "name": "provider",
          "type": "address"
        },
        {
          "indexed": true,
          "internalType": "address",
          "name": "paymentAddress",
          "type": "address"
        },
        {
          "indexed": false,
          "internalType": "uint256",
          "name": "nonce",
          "type": "uint256"
        },
        {
          "indexed": false,
          "internalType": "string",
          "name": "cid",
          "type": "string"
        }
      ],
      "name": "ProviderSetProfile",
      "type": "event"
    },
    {
      "anonymous": false,
      "inputs": [
        {
          "indexed": false,
          "internalType": "address",
          "name": "account",
          "type": "address"
        }
      ],
      "name": "Unpaused",
      "type": "event"
    },
    {
      "inputs": [
        {
          "internalType": "uint32",
          "name": "_planId",
          "type": "uint32"
        }
      ],
      "name": "disablePlan",
      "outputs": [],
      "stateMutability": "nonpayable",
      "type": "function"
    },
    {
      "inputs": [
        {
          "internalType": "uint32",
          "name": "_planId",
          "type": "uint32"
        }
      ],
      "name": "enablePlan",
      "outputs": [],
      "stateMutability": "nonpayable",
      "type": "function"
    },
    {
      "inputs": [
        {
          "internalType": "address",
          "name": "_consumer",
          "type": "address"
        },
        {
          "internalType": "bytes32",
          "name": "_discountValidator",
          "type": "bytes32"
        }
      ],
      "name": "erc20DiscountCurrentlyApplies",
      "outputs": [
        {
          "internalType": "bool",
          "name": "",
          "type": "bool"
        }
      ],
      "stateMutability": "view",
      "type": "function"
    },
    {
      "inputs": [
        {
          "internalType": "address",
          "name": "_provider",
          "type": "address"
        },
        {
          "internalType": "uint32",
          "name": "_planId",
          "type": "uint32"
        },
        {
          "internalType": "bytes32",
          "name": "_discountId",
          "type": "bytes32"
        }
      ],
      "name": "getDiscountRedemptions",
      "outputs": [
        {
          "internalType": "uint256",
          "name": "",
          "type": "uint256"
        }
      ],
      "stateMutability": "view",
      "type": "function"
    },
    {
      "inputs": [
        {
          "internalType": "address",
          "name": "_provider",
          "type": "address"
        },
        {
          "internalType": "uint32",
          "name": "_planId",
          "type": "uint32"
        }
      ],
      "name": "getPlanEOL",
      "outputs": [
        {
          "internalType": "uint32",
          "name": "",
          "type": "uint32"
        }
      ],
      "stateMutability": "view",
      "type": "function"
    },
    {
      "inputs": [
        {
          "internalType": "address",
          "name": "_provider",
          "type": "address"
        },
        {
          "internalType": "uint32",
          "name": "_planId",
          "type": "uint32"
        }
      ],
      "name": "getPlanStatus",
      "outputs": [
        {
          "internalType": "enum ICaskSubscriptionPlans.PlanStatus",
          "name": "",
          "type": "uint8"
        }
      ],
      "stateMutability": "view",
      "type": "function"
    },
    {
      "inputs": [
        {
          "internalType": "address",
          "name": "_provider",
          "type": "address"
        }
      ],
      "name": "getProviderProfile",
      "outputs": [
        {
          "components": [
            {
              "internalType": "address",
              "name": "paymentAddress",
              "type": "address"
            },
            {
              "internalType": "uint256",
              "name": "nonce",
              "type": "uint256"
            },
            {
              "internalType": "string",
              "name": "cid",
              "type": "string"
            }
          ],
          "internalType": "struct ICaskSubscriptionPlans.Provider",
          "name": "",
          "type": "tuple"
        }
      ],
      "stateMutability": "view",
      "type": "function"
    },
    {
      "inputs": [],
      "name": "initialize",
      "outputs": [],
      "stateMutability": "nonpayable",
      "type": "function"
    },
    {
      "inputs": [
        {
          "internalType": "address",
          "name": "forwarder",
          "type": "address"
        }
      ],
      "name": "isTrustedForwarder",
      "outputs": [
        {
          "internalType": "bool",
          "name": "",
          "type": "bool"
        }
      ],
      "stateMutability": "view",
      "type": "function"
    },
    {
      "inputs": [],
      "name": "owner",
      "outputs": [
        {
          "internalType": "address",
          "name": "",
          "type": "address"
        }
      ],
      "stateMutability": "view",
      "type": "function"
    },
    {
      "inputs": [],
      "name": "pause",
      "outputs": [],
      "stateMutability": "nonpayable",
      "type": "function"
    },
    {
      "inputs": [],
      "name": "paused",
      "outputs": [
        {
          "internalType": "bool",
          "name": "",
          "type": "bool"
        }
      ],
      "stateMutability": "view",
      "type": "function"
    },
    {
      "inputs": [],
      "name": "renounceOwnership",
      "outputs": [],
      "stateMutability": "nonpayable",
      "type": "function"
    },
    {
      "inputs": [
        {
          "internalType": "uint32",
          "name": "_planId",
          "type": "uint32"
        },
        {
          "internalType": "uint32",
          "name": "_retireAt",
          "type": "uint32"
        }
      ],
      "name": "retirePlan",
      "outputs": [],
      "stateMutability": "nonpayable",
      "type": "function"
    },
    {
      "inputs": [
        {
          "internalType": "address",
          "name": "_subscriptionManager",
          "type": "address"
        }
      ],
      "name": "setManager",
      "outputs": [],
      "stateMutability": "nonpayable",
      "type": "function"
    },
    {
      "inputs": [
        {
          "internalType": "address",
          "name": "_paymentAddress",
          "type": "address"
        },
        {
          "internalType": "string",
          "name": "_cid",
          "type": "string"
        },
        {
          "internalType": "uint256",
          "name": "_nonce",
          "type": "uint256"
        }
      ],
      "name": "setProviderProfile",
      "outputs": [],
      "stateMutability": "nonpayable",
      "type": "function"
    },
    {
      "inputs": [
        {
          "internalType": "address",
          "name": "_subscriptions",
          "type": "address"
        }
      ],
      "name": "setSubscriptions",
      "outputs": [],
      "stateMutability": "nonpayable",
      "type": "function"
    },
    {
      "inputs": [
        {
          "internalType": "address",
          "name": "_forwarder",
          "type": "address"
        }
      ],
      "name": "setTrustedForwarder",
      "outputs": [],
      "stateMutability": "nonpayable",
      "type": "function"
    },
    {
      "inputs": [],
      "name": "subscriptionManager",
      "outputs": [
        {
          "internalType": "address",
          "name": "",
          "type": "address"
        }
      ],
      "stateMutability": "view",
      "type": "function"
    },
    {
      "inputs": [],
      "name": "subscriptions",
      "outputs": [
        {
          "internalType": "address",
          "name": "",
          "type": "address"
        }
      ],
      "stateMutability": "view",
      "type": "function"
    },
    {
      "inputs": [
        {
          "internalType": "address",
          "name": "newOwner",
          "type": "address"
        }
      ],
      "name": "transferOwnership",
      "outputs": [],
      "stateMutability": "nonpayable",
      "type": "function"
    },
    {
      "inputs": [],
      "name": "trustedForwarder",
      "outputs": [
        {
          "internalType": "address",
          "name": "",
          "type": "address"
        }
      ],
      "stateMutability": "view",
      "type": "function"
    },
    {
      "inputs": [],
      "name": "unpause",
      "outputs": [],
      "stateMutability": "nonpayable",
      "type": "function"
    },
    {
      "inputs": [
        {
          "internalType": "address",
          "name": "_consumer",
          "type": "address"
        },
        {
          "internalType": "address",
          "name": "_provider",
          "type": "address"
        },
        {
          "internalType": "uint32",
          "name": "_planId",
          "type": "uint32"
        },
        {
          "internalType": "bytes32[]",
          "name": "_discountProof",
          "type": "bytes32[]"
        }
      ],
      "name": "verifyAndConsumeDiscount",
      "outputs": [
        {
          "internalType": "bytes32",
          "name": "",
          "type": "bytes32"
        }
      ],
      "stateMutability": "nonpayable",
      "type": "function"
    },
    {
      "inputs": [
        {
          "internalType": "address",
          "name": "_consumer",
          "type": "address"
        },
        {
          "internalType": "address",
          "name": "_provider",
          "type": "address"
        },
        {
          "internalType": "uint32",
          "name": "_planId",
          "type": "uint32"
        },
        {
          "internalType": "bytes32[]",
          "name": "_discountProof",
          "type": "bytes32[]"
        }
      ],
      "name": "verifyDiscount",
      "outputs": [
        {
          "internalType": "bytes32",
          "name": "",
          "type": "bytes32"
        }
      ],
      "stateMutability": "view",
      "type": "function"
    },
    {
      "inputs": [
        {
          "internalType": "address",
          "name": "_network",
          "type": "address"
        },
        {
          "internalType": "bytes32",
          "name": "_networkData",
          "type": "bytes32"
        },
        {
          "internalType": "bytes",
          "name": "_networkSignature",
          "type": "bytes"
        }
      ],
      "name": "verifyNetworkData",
      "outputs": [
        {
          "internalType": "bool",
          "name": "",
          "type": "bool"
        }
      ],
      "stateMutability": "view",
      "type": "function"
    },
    {
      "inputs": [
        {
          "internalType": "bytes32",
          "name": "_planData",
          "type": "bytes32"
        },
        {
          "internalType": "bytes32",
          "name": "_merkleRoot",
          "type": "bytes32"
        },
        {
          "internalType": "bytes32[]",
          "name": "_merkleProof",
          "type": "bytes32[]"
        }
      ],
      "name": "verifyPlan",
      "outputs": [
        {
          "internalType": "bool",
          "name": "",
          "type": "bool"
        }
      ],
      "stateMutability": "pure",
      "type": "function"
    },
    {
      "inputs": [
        {
          "internalType": "address",
          "name": "_provider",
          "type": "address"
        },
        {
          "internalType": "uint256",
          "name": "_nonce",
          "type": "uint256"
        },
        {
          "internalType": "bytes32",
          "name": "_planMerkleRoot",
          "type": "bytes32"
        },
        {
          "internalType": "bytes32",
          "name": "_discountMerkleRoot",
          "type": "bytes32"
        },
        {
          "internalType": "bytes",
          "name": "_providerSignature",
          "type": "bytes"
        }
      ],
      "name": "verifyProviderSignature",
      "outputs": [
        {
          "internalType": "bool",
          "name": "",
          "type": "bool"
        }
      ],
      "stateMutability": "view",
      "type": "function"
    },
    {
      "inputs": [],
      "name": "versionRecipient",
      "outputs": [
        {
          "internalType": "string",
          "name": "",
          "type": "string"
        }
      ],
      "stateMutability": "pure",
      "type": "function"
    }
  ],
  "bytecode": "0x60806040523480156200001157600080fd5b50600054600160a81b900460ff166200003857600054600160a01b900460ff161562000042565b62000042620000f1565b620000aa5760405162461bcd60e51b815260206004820152602e60248201527f496e697469616c697a61626c653a20636f6e747261637420697320616c72656160448201526d191e481a5b9a5d1a585b1a5e995960921b606482015260840160405180910390fd5b600054600160a81b900460ff16158015620000d5576000805461ffff60a01b191661010160a01b1790555b8015620000ea576000805460ff60a81b191690555b5062000115565b600062000109306200010f60201b620014481760201c565b15905090565b3b151590565b61284880620001256000396000f3fe608060405234801561001057600080fd5b50600436106101cf5760003560e01c80637f116d8811610104578063b8e381e5116100a2578063cd1402e711610071578063cd1402e714610430578063d0ebdbe714610443578063da74222814610456578063f2fde38b1461046957600080fd5b8063b8e381e5146103e4578063be8b0f3e146103f7578063bf158fd21461040a578063c5b2cfce1461041d57600080fd5b80638da5cb5b116100de5780638da5cb5b1461035f5780639c4f7d5914610370578063b0d8985c14610383578063b6ab359f1461039657600080fd5b80637f116d881461033c5780638129fc1c1461034f5780638456cb591461035757600080fd5b8063572b6c051161017157806371ce3e661161014b57806371ce3e66146102de578063762f3e3d146102f157806379c19bc4146103045780637da0a8771461031757600080fd5b8063572b6c05146102995780635c975abb146102cb578063715018a6146102d657600080fd5b8063256c6ba9116101ad578063256c6ba9146102375780633c17dac81461024a5780633f4ba83a1461026a578063486ff0cd1461027257600080fd5b8063025b6875146101d45780631bc569b5146102015780632218d7d314610216575b600080fd5b6101e76101e2366004612044565b61047c565b60405163ffffffff90911681526020015b60405180910390f35b61021461020f366004612077565b6104af565b005b6102296102243660046120d7565b6105df565b6040519081526020016101f8565b610214610245366004612077565b6106cd565b61025d61025836600461214d565b6107f9565b6040516101f891906121b5565b6102146108e4565b60408051808201825260058152640322e322e360dc1b602082015290516101f891906121ec565b6102bb6102a736600461214d565b6000546001600160a01b0391821691161490565b60405190151581526020016101f8565b60655460ff166102bb565b610214610937565b6102bb6102ec3660046121ff565b61098a565b6102296102ff366004612252565b6109f8565b6102296103123660046120d7565b610a32565b6000546001600160a01b03165b6040516001600160a01b0390911681526020016101f8565b6102bb61034a366004612331565b610af0565b610214610c97565b610214610d83565b6033546001600160a01b0316610324565b61021461037e36600461214d565b610dd4565b61021461039136600461239c565b610e3f565b6103d76103a4366004612044565b6001600160a01b038216600090815260996020908152604080832063ffffffff8516845290915290205460ff1692915050565b6040516101f8919061243b565b609c54610324906001600160a01b031681565b6102bb610405366004612463565b610f3a565b609754610324906001600160a01b031681565b61021461042b3660046124ba565b611029565b6102bb61043e3660046124d6565b611124565b61021461045136600461214d565b6112bf565b61021461046436600461214d565b61132a565b61021461047736600461214d565b611391565b6001600160a01b0382166000908152609a6020908152604080832063ffffffff8086168552925290912054165b92915050565b6000609960006104bd61144e565b6001600160a01b031681526020808201929092526040908101600090812063ffffffff8616825290925290205460ff1660028111156104fe576104fe612425565b1461053f5760405162461bcd60e51b815260206004820152600c60248201526b085393d517d153905093115160a21b60448201526064015b60405180910390fd5b60016099600061054d61144e565b6001600160a01b031681526020808201929092526040908101600090812063ffffffff861682529092529020805460ff1916600183600281111561059357610593612425565b02179055508063ffffffff166105a761144e565b6001600160a01b03167f50ec551c598cd517a78f91d12398f4f1d95e0171a4393505d01401f8b6c940a760405160405180910390a350565b609c546000906001600160a01b03166105f661144e565b6001600160a01b0316146106345760405162461bcd60e51b815260206004820152600560248201526404282aaa8960db1b6044820152606401610536565b60006106438787878787610a32565b905080156106c157600061066f8585600181811061066357610663612500565b9050602002013561145d565b6001600160a01b0388166000908152609b60209081526040808320608085015163ffffffff1684528252808320868452909152812080549293506001929091906106ba90849061252c565b9091555050505b90505b95945050505050565b6001609960006106db61144e565b6001600160a01b031681526020808201929092526040908101600090812063ffffffff8616825290925290205460ff16600281111561071c5761071c612425565b146107595760405162461bcd60e51b815260206004820152600d60248201526c085393d517d11254d050931151609a1b6044820152606401610536565b60006099600061076761144e565b6001600160a01b031681526020808201929092526040908101600090812063ffffffff861682529092529020805460ff191660018360028111156107ad576107ad612425565b02179055508063ffffffff166107c161144e565b6001600160a01b03167fb6af1d2951898e17e763c18b77daf0ada2f2753802d37868e67797e87991a29860405160405180910390a350565b6040805160608082018352600080835260208084018290528385018390526001600160a01b0386811683526098825291859020855193840186528054909216835260018201549083015260028101805493949293919284019161085b90612544565b80601f016020809104026020016040519081016040528092919081815260200182805461088790612544565b80156108d45780601f106108a9576101008083540402835291602001916108d4565b820191906000526020600020905b8154815290600101906020018083116108b757829003601f168201915b5050505050815250509050919050565b6108ec61144e565b6001600160a01b03166109076033546001600160a01b031690565b6001600160a01b03161461092d5760405162461bcd60e51b81526004016105369061257f565b610935611545565b565b61093f61144e565b6001600160a01b031661095a6033546001600160a01b031690565b6001600160a01b0316146109805760405162461bcd60e51b81526004016105369061257f565b61093560006115de565b60006109ed8383808060200260200160405190810160405280939291908181526020018383602002808284376000920191909152505060408051602081018b90528993500190505b60405160208183030381529060405280519060200120611630565b90505b949350505050565b6001600160a01b0383166000908152609b6020908152604080832063ffffffff8616845282528083208484529091529020545b9392505050565b60006003821080610a5e575082826000818110610a5157610a51612500565b905060200201356000801b145b15610a6b575060006106c4565b6000610a8f84846001818110610a8357610a83612500565b90506020020135611646565b90506001816002811115610aa557610aa5612425565b1415610abf57610ab78686868661165d565b9150506106c4565b6002816002811115610ad357610ad3612425565b1415610ae657610ab7878787878761172b565b50600090506106c4565b6040805160208101869052908101849052606081018390526000908190610b75906080015b60408051601f1981840301815282825280516020918201207f19457468657265756d205369676e6564204d6573736167653a0a33320000000084830152603c8085019190915282518085039091018152605c909301909152815191012090565b9050825160001415610c4757604051630b135d3f60e11b81526000906001600160a01b03891690631626ba7e90610bb290859088906004016125b4565b60206040518083038186803b158015610bca57600080fd5b505afa158015610bde573d6000803e3d6000fd5b505050506040513d601f19601f82011682018060405250810190610c0291906125cd565b90506001600160e01b03198116630b135d3f60e11b148015610c3e57506001600160a01b03881660009081526098602052604090206001015487145b925050506106c4565b6000610c5382856117d7565b9050876001600160a01b0316816001600160a01b0316148015610c3e57505050506001600160a01b03851660009081526098602052604090206001015484146106c4565b600054600160a81b900460ff16610cbb57600054600160a01b900460ff1615610cbf565b303b155b610d225760405162461bcd60e51b815260206004820152602e60248201527f496e697469616c697a61626c653a20636f6e747261637420697320616c72656160448201526d191e481a5b9a5d1a585b1a5e995960921b6064820152608401610536565b600054600160a81b900460ff16158015610d4c576000805461ffff60a01b191661010160a01b1790555b610d546117fb565b610d5c611834565b609c80546001600160a01b03191690558015610d80576000805460ff60a81b191690555b50565b610d8b61144e565b6001600160a01b0316610da66033546001600160a01b031690565b6001600160a01b031614610dcc5760405162461bcd60e51b81526004016105369061257f565b61093561186d565b610ddc61144e565b6001600160a01b0316610df76033546001600160a01b031690565b6001600160a01b031614610e1d5760405162461bcd60e51b81526004016105369061257f565b609c80546001600160a01b0319166001600160a01b0392909216919091179055565b600060986000610e4d61144e565b6001600160a01b031681526020810191909152604001600020600181015490915015610eaf5780600101548211610eaf5760405162461bcd60e51b8152602060048201526006602482015265214e4f4e434560d01b6044820152606401610536565b80546001600160a01b0319166001600160a01b038616178155610ed6600282018585611f7b565b50600181018290556001600160a01b038516610ef061144e565b6001600160a01b03167e0b4932fa91cc5ebcac0f9fb3ab2ae36eb6ba359cdd98d49954b5a700a21109848787604051610f2b939291906125f7565b60405180910390a35050505050565b600080610f5384604051602001610b1591815260200190565b9050825160001415610ffd57604051630b135d3f60e11b81526000906001600160a01b03871690631626ba7e90610f9090859088906004016125b4565b60206040518083038186803b158015610fa857600080fd5b505afa158015610fbc573d6000803e3d6000fd5b505050506040513d601f19601f82011682018060405250810190610fe091906125cd565b6001600160e01b031916630b135d3f60e11b149250610a2b915050565b600061100982856117d7565b9050856001600160a01b0316816001600160a01b03161492505050610a2b565b60026099600061103761144e565b6001600160a01b031681526020808201929092526040908101600090812063ffffffff871682529092529020805460ff1916600183600281111561107d5761107d612425565b021790555080609a600061108f61144e565b6001600160a01b031681526020808201929092526040908101600090812063ffffffff87811680845291909452919020805463ffffffff1916939092169290921790556110da61144e565b60405163ffffffff841681526001600160a01b0391909116907fb14722ab80cf12b24122b69280630813ed38d597d93a29801fa9087cb8968a5d9060200160405180910390a35050565b6000606082901c60ff605884901c8116908114156111e857816001600160a01b031663313ce5676040518163ffffffff1660e01b815260040160206040518083038186803b15801561117557600080fd5b505afa9250505080156111a5575060408051601f3d908101601f191682019092526111a29181019061262d565b60015b6111e5573d8080156111d3576040519150601f19603f3d011682016040523d82523d6000602084013e6111d8565b606091505b50600093505050506104a9565b90505b6040516370a0823160e01b81526001600160a01b0386811660048301528316906370a082319060240160206040518083038186803b15801561122957600080fd5b505afa925050508015611259575060408051601f3d908101601f1916820190925261125691810190612650565b60015b611287573d8080156111d3576040519150601f19603f3d011682016040523d82523d6000602084013e6111d8565b60ff8216156112a85761129b82600a61274d565b6112a5908261275c565b90505b67ffffffffffffffff8516111592506104a9915050565b6112c761144e565b6001600160a01b03166112e26033546001600160a01b031690565b6001600160a01b0316146113085760405162461bcd60e51b81526004016105369061257f565b609780546001600160a01b0319166001600160a01b0392909216919091179055565b61133261144e565b6001600160a01b031661134d6033546001600160a01b031690565b6001600160a01b0316146113735760405162461bcd60e51b81526004016105369061257f565b600080546001600160a01b0319166001600160a01b03831617905550565b61139961144e565b6001600160a01b03166113b46033546001600160a01b031690565b6001600160a01b0316146113da5760405162461bcd60e51b81526004016105369061257f565b6001600160a01b03811661143f5760405162461bcd60e51b815260206004820152602660248201527f4f776e61626c653a206e6577206f776e657220697320746865207a65726f206160448201526564647265737360d01b6064820152608401610536565b610d80816115de565b3b151590565b60006114586118e9565b905090565b6040805161010081018252600080825260208201819052918101829052606081018290526080810182905260a0810182905260c0810182905260e0810191909152604080516101008101825260a084811c825263ffffffff608086811c8216602080860191909152606088811c8416868801529588901c8316958501959095529386901c169282019290925261ffff601085901c169181019190915260f083901b9060c0810160ff8516600281111561151857611518612425565b600281111561152957611529612425565b8152600160f81b92831690921460209092019190915292915050565b60655460ff1661158e5760405162461bcd60e51b815260206004820152601460248201527314185d5cd8589b194e881b9bdd081c185d5cd95960621b6044820152606401610536565b6065805460ff191690557f5db9ee0a495bf2e6ff9c91a7834c1ba4fdd244a5e8aa4e537bd38aeae4b073aa6115c161144e565b6040516001600160a01b03909116815260200160405180910390a1565b603380546001600160a01b038381166001600160a01b0319831681179093556040519116919082907f8be0079c531659141344cd1fd0a4f28419497f9722a3daafe3b4186f6b6457e090600090a35050565b60008261163d858461191d565b14949350505050565b600060ff821660028111156104a9576104a9612425565b6000600382108061168957508282600081811061167c5761167c612500565b905060200201356000801b145b15611696575060006109f0565b6000838360008181106116ab576116ab612500565b905060200201356040516020016116c491815260200190565b6040516020818303038152906040528051906020012090506116e78185856119c1565b801561171357506117138187878787600181811061170757611707612500565b90506020020135611aa6565b1561171f5790506109f0565b50600095945050505050565b6000600382108061175757508282600081811061174a5761174a612500565b905060200201356000801b145b15611764575060006106c4565b60008383600081811061177957611779612500565b90506020020135905061178d8185856119c1565b801561179e575061179e8782611124565b80156117be57506117be8187878787600181811061170757611707612500565b156117ca5790506106c4565b5060009695505050505050565b60008060006117e68585611b9d565b915091506117f381611c0d565b509392505050565b600054600160a81b900460ff166118245760405162461bcd60e51b81526004016105369061277e565b61182c611dc8565b610935611df1565b600054600160a81b900460ff1661185d5760405162461bcd60e51b81526004016105369061277e565b611865611dc8565b610935611e2a565b60655460ff16156118b35760405162461bcd60e51b815260206004820152601060248201526f14185d5cd8589b194e881c185d5cd95960821b6044820152606401610536565b6065805460ff191660011790557f62e78cea01bee320cd4e420270b5ea74000d11b0c9f74754ebdbfc544b05a2586115c161144e565b60006014361080159061190657506000546001600160a01b031633145b15611918575060131936013560601c90565b503390565b600081815b84518110156117f357600085828151811061193f5761193f612500565b602002602001015190508083116119815760408051602081018590529081018290526060016040516020818303038152906040528051906020012092506119ae565b60408051602081018390529081018490526060016040516020818303038152906040528051906020012092505b50806119b9816127c9565b915050611922565b600060038210806119ed5750828260008181106119e0576119e0612500565b905060200201356000801b145b156119fa57506000610a2b565b60408051600081526020810190915260048310611a5357611a1e83600381876127e4565b808060200260200160405190810160405280939291908181526020018383602002808284376000920191909152509293505050505b6106c48185856002818110611a6a57611a6a612500565b905060200201358787876001818110611a8557611a85612500565b905060200201356040516020016109d2929190918252602082015260400190565b600080611ab28361145d565b9050806080015163ffffffff1660001480611adc57508363ffffffff16816080015163ffffffff16145b8015611b385750606081015163ffffffff161580611b38575060608101516001600160a01b0386166000908152609b60209081526040808320608086015163ffffffff90811685529083528184208b8552909252909120549116115b8015611b665750602081015163ffffffff161580611b6657504263ffffffff16816020015163ffffffff1611155b8015611b935750604081015163ffffffff161580611b9357504263ffffffff16816040015163ffffffff16115b9695505050505050565b600080825160411415611bd45760208301516040840151606085015160001a611bc887828585611e5f565b94509450505050611c06565b825160401415611bfe5760208301516040840151611bf3868383611f4c565b935093505050611c06565b506000905060025b9250929050565b6000816004811115611c2157611c21612425565b1415611c2a5750565b6001816004811115611c3e57611c3e612425565b1415611c8c5760405162461bcd60e51b815260206004820152601860248201527f45434453413a20696e76616c6964207369676e617475726500000000000000006044820152606401610536565b6002816004811115611ca057611ca0612425565b1415611cee5760405162461bcd60e51b815260206004820152601f60248201527f45434453413a20696e76616c6964207369676e6174757265206c656e677468006044820152606401610536565b6003816004811115611d0257611d02612425565b1415611d5b5760405162461bcd60e51b815260206004820152602260248201527f45434453413a20696e76616c6964207369676e6174757265202773272076616c604482015261756560f01b6064820152608401610536565b6004816004811115611d6f57611d6f612425565b1415610d805760405162461bcd60e51b815260206004820152602260248201527f45434453413a20696e76616c6964207369676e6174757265202776272076616c604482015261756560f01b6064820152608401610536565b600054600160a81b900460ff166109355760405162461bcd60e51b81526004016105369061277e565b600054600160a81b900460ff16611e1a5760405162461bcd60e51b81526004016105369061277e565b610935611e2561144e565b6115de565b600054600160a81b900460ff16611e535760405162461bcd60e51b81526004016105369061277e565b6065805460ff19169055565b6000807f7fffffffffffffffffffffffffffffff5d576e7357a4501ddfe92f46681b20a0831115611e965750600090506003611f43565b8460ff16601b14158015611eae57508460ff16601c14155b15611ebf5750600090506004611f43565b6040805160008082526020820180845289905260ff881692820192909252606081018690526080810185905260019060a0016020604051602081039080840390855afa158015611f13573d6000803e3d6000fd5b5050604051601f1901519150506001600160a01b038116611f3c57600060019250925050611f43565b9150600090505b94509492505050565b6000806001600160ff1b03831660ff84901c601b01611f6d87828885611e5f565b935093505050935093915050565b828054611f8790612544565b90600052602060002090601f016020900481019282611fa95760008555611fef565b82601f10611fc25782800160ff19823516178555611fef565b82800160010185558215611fef579182015b82811115611fef578235825591602001919060010190611fd4565b50611ffb929150611fff565b5090565b5b80821115611ffb5760008155600101612000565b80356001600160a01b038116811461202b57600080fd5b919050565b803563ffffffff8116811461202b57600080fd5b6000806040838503121561205757600080fd5b61206083612014565b915061206e60208401612030565b90509250929050565b60006020828403121561208957600080fd5b610a2b82612030565b60008083601f8401126120a457600080fd5b50813567ffffffffffffffff8111156120bc57600080fd5b6020830191508360208260051b8501011115611c0657600080fd5b6000806000806000608086880312156120ef57600080fd5b6120f886612014565b945061210660208701612014565b935061211460408701612030565b9250606086013567ffffffffffffffff81111561213057600080fd5b61213c88828901612092565b969995985093965092949392505050565b60006020828403121561215f57600080fd5b610a2b82612014565b6000815180845260005b8181101561218e57602081850181015186830182015201612172565b818111156121a0576000602083870101525b50601f01601f19169290920160200192915050565b6020815260018060a01b03825116602082015260208201516040820152600060408301516060808401526109f06080840182612168565b602081526000610a2b6020830184612168565b6000806000806060858703121561221557600080fd5b8435935060208501359250604085013567ffffffffffffffff81111561223a57600080fd5b61224687828801612092565b95989497509550505050565b60008060006060848603121561226757600080fd5b61227084612014565b925061227e60208501612030565b9150604084013590509250925092565b634e487b7160e01b600052604160045260246000fd5b600082601f8301126122b557600080fd5b813567ffffffffffffffff808211156122d0576122d061228e565b604051601f8301601f19908116603f011681019082821181831017156122f8576122f861228e565b8160405283815286602085880101111561231157600080fd5b836020870160208301376000602085830101528094505050505092915050565b600080600080600060a0868803121561234957600080fd5b61235286612014565b9450602086013593506040860135925060608601359150608086013567ffffffffffffffff81111561238357600080fd5b61238f888289016122a4565b9150509295509295909350565b600080600080606085870312156123b257600080fd5b6123bb85612014565b9350602085013567ffffffffffffffff808211156123d857600080fd5b818701915087601f8301126123ec57600080fd5b8135818111156123fb57600080fd5b88602082850101111561240d57600080fd5b95986020929092019750949560400135945092505050565b634e487b7160e01b600052602160045260246000fd5b602081016003831061245d57634e487b7160e01b600052602160045260246000fd5b91905290565b60008060006060848603121561247857600080fd5b61248184612014565b925060208401359150604084013567ffffffffffffffff8111156124a457600080fd5b6124b0868287016122a4565b9150509250925092565b600080604083850312156124cd57600080fd5b61206083612030565b600080604083850312156124e957600080fd5b6124f283612014565b946020939093013593505050565b634e487b7160e01b600052603260045260246000fd5b634e487b7160e01b600052601160045260246000fd5b6000821982111561253f5761253f612516565b500190565b600181811c9082168061255857607f821691505b6020821081141561257957634e487b7160e01b600052602260045260246000fd5b50919050565b6020808252818101527f4f776e61626c653a2063616c6c6572206973206e6f7420746865206f776e6572604082015260600190565b8281526040602082015260006109f06040830184612168565b6000602082840312156125df57600080fd5b81516001600160e01b031981168114610a2b57600080fd5b83815260406020820152816040820152818360608301376000818301606090810191909152601f909201601f1916010192915050565b60006020828403121561263f57600080fd5b815160ff81168114610a2b57600080fd5b60006020828403121561266257600080fd5b5051919050565b600181815b808511156126a457816000190482111561268a5761268a612516565b8085161561269757918102915b93841c939080029061266e565b509250929050565b6000826126bb575060016104a9565b816126c8575060006104a9565b81600181146126de57600281146126e857612704565b60019150506104a9565b60ff8411156126f9576126f9612516565b50506001821b6104a9565b5060208310610133831016604e8410600b8410161715612727575081810a6104a9565b6127318383612669565b806000190482111561274557612745612516565b029392505050565b6000610a2b60ff8416836126ac565b60008261277957634e487b7160e01b600052601260045260246000fd5b500490565b6020808252602b908201527f496e697469616c697a61626c653a20636f6e7472616374206973206e6f74206960408201526a6e697469616c697a696e6760a81b606082015260800190565b60006000198214156127dd576127dd612516565b5060010190565b600080858511156127f457600080fd5b8386111561280157600080fd5b5050600583901b019391909203915056fea2646970667358221220351e3383ff23b87a910cc3c244105d49cfa0e87612e41faeb9cde4421b02801464736f6c63430008090033",
  "linkReferences": {},
  "deployedLinkReferences": {}
}